:020000040800F2
:10000000F87900243580000817380008218000089E
:10001000193800081B3800081D38000800000000CF
:1000200000000000000000000000000059800008EF
:100030001F38000800000000295F00089F5E0008CC
:100040005D80000861800008658000086980000804
:100050006D800008718000087580000879800008B4
:100060007D80000881800008858000088980000864
:100070008D80000891800008958000089980000814
:100080009D800008A1800008A5800008A9800008C4
:10009000AD800008B1800008B5800008B980000874
:1000A000BD800008C1800008C5800008C980000824
:1000B000E14F0008CD800008D1800008D5800008FD
:1000C000D9800008DD800008E1800008E580000894
:1000D000E98000086D5C0008ED800008715C000894
:1000E000F1800008F580000800000000F980000899
:1000F000FD800008018100080581000809810008D1
:100100000D8100081181000815810008198100087F
:100110001D8100082181000825810008298100082F
:100120002D810008318100083581000839810008DF
:100130003D8100084181000845810008498100088F
:1001400000000000000000000000000000000000AF
:100150004D8100085181000855810008598100082F
:100160005D810008618100086581000869810008DF
:100170006D81000871810008758100080000000091
:10018000798100087D81000881810008858100084F
:10019000898100088D8100089181000895810008FF
:1001A000998100089D810008A1810008A5810008AF
:1001B000A9810008AD810008B1810008B58100085F
:1001C000B9810008BD810008C1810008C58100080F
:1001D000C9810008CD810008D1810008D5810008BF
:1001E000D9810008DD810008E1810008E58100086F
:1001F000E9810008ED810008F1810008F58100081F
:10020000F9810008FD8100080182000805820008CC
:10021000098200080D82000811820008158200087A
:10022000198200081D8200082182000800000000D9
:100230002582000829820008000000002D820008A5
:100240003182000835820008398200083D820008AA
:100250004182000845820008498200084D8200085A
:100260005182000855820008598200085D8200080A
:1002700061820008658200086982000800000000B1
:100280006D8200087182000875820008000000007D
:1002900000000000798200082DE9F04381B0074694
:1002A00038680025A846084C010140F187807A6E25
:1002B00062B1B2F5801F0ED0B2F5001F19D0B2F5B1
:1002C000401F0DD0012578E000440258E36A43F452
:1002D0000033E36206E00221381D01F065FC0546AB
:1002E00028006AD1216D786E21F440110143216507
:1002F00064E0A16A01F00301032901D101255CE05A
:10030000206820F08050206001F0D6FC064621686D
:10031000880005D501F0D0FC801B0328F7D34BE003
:10032000A06A796A20F07C7040EA0150A062F96A04
:10033000B86A3A6B491E4902401EC0F30800521EBB
:1003400001F47E4112040843796B02F4FE0210436B
:10035000491E090601F0FE4108432064E06AB96BBA
:1003600020F440600843E062E06AF96B20F400701A
:100370000843E062E06A20F48070E062616C386CEF
:100380006FF3CF0141EAC0016164E16A41F4807119
:10039000E162E06A40F08070E062216841F08051E3
:1003A000216001F089FC0646206881009AD401F0A2
:1003B00083FC801B0328F7D30325A8463968CA05A8
:1003C00021D5786D04281CD8DFE800F0031016074B
:1003D0000700E16A41F40031E162280012D1216D89
:1003E000786DC90840EAC10121650CE00021381D83
:1003F00001F0DAFB0546F0E7A06A00F003000328ED
:100400001ED10125A8463868820540F18780B96D64
:1004100049B1402975D0802979D0C02918BFB1F5DC
:10042000807F04D078E0E06A40F40030E062280089
:1004300073D1216DB86D21F4E071014321656DE048
:10044000216821F08051216001F036FC06462068C9
:10045000810006D501F030FC801B0328F7D303256B
:10046000D0E7A06A796A20F07C7040EA0150A0626F
:10047000F96AB86A3A6B491E4902401EC0F3080087
:10048000521E01F47E4112040843796B02F4FE020D
:100490001043491E090601F0FE4108432064E06A4A
:1004A000B96B20F440600843E062E06AF96B20F425
:1004B00000700843E062E06A20F48070E062616CE2
:1004C000386C6FF3CF0141EAC0016164E16A41F425
:1004D0008071E162E06A40F48000E062216841F0EE
:1004E0008051216001F0E8FB06462068810006D4B7
:1004F00001F0E2FB801B0328F7D3032582E70025E8
:100500006DE70021381D01F04FFB05468FE7A06A1B
:1005100000F00300032823D10125A84638684205CE
:1005200040F18C80D7F8A41061B1B1F5001F78D0EC
:10053000B1F5800F7BD0B1F5C00F18BFB1F5000F3A
:1005400004D079E0E06A40F40030E062280074D121
:10055000A16DD7F8A40021F460010143A1656DE00D
:10056000216821F08051216001F0A6FB0646206839
:10057000810006D501F0A0FB801B0328F7D30325DB
:10058000CBE7A06A796A20F07C7040EA0150A06253
:10059000F96AB86A3A6B491E4902401EC0F3080066
:1005A000521E01F47E4112040843796B02F4FE02EC
:1005B0001043491E090601F0FE4108432064E06A29
:1005C000B96B20F440600843E062E06AF96B20F404
:1005D00000700843E062E06A20F48070E062616CC1
:1005E000386C6FF3CF0141EAC0016164E16A41F404
:1005F0008071E162E06A40F48000E062216841F0CD
:100600008051216001F058FB06462068810006D425
:1006100001F052FB801B0328F7D303257DE700255B
:1006200007E70021381D01F0BFFA05468EE7A06AF2
:1006300000F00300032823D10125A84638680205ED
:1006400040F18C80D7F8A81061B1B1F1807F78D0EB
:10065000B1F1007F7BD0B1F1407F18BFB1F1806F65
:1006600004D079E0E06A40F40030E062280074D100
:10067000A16DD7F8A80021F0E0610143A1656DE00C
:10068000216821F08051216001F016FB06462068A8
:10069000810006D501F010FB801B0328F7D303254A
:1006A000CBE7A06A796A20F07C7040EA0150A06232
:1006B000F96AB86A3A6B491E4902401EC0F3080045
:1006C000521E01F47E4112040843796B02F4FE02CB
:1006D0001043491E090601F0FE4108432064E06A08
:1006E000B96B20F440600843E062E06AF96B20F4E3
:1006F00000700843E062E06A20F48070E062616CA0
:10070000386C6FF3CF0141EAC0016164E16A41F4E2
:100710008071E162E06A40F48000E062216841F0AB
:100720008051216001F0C8FA06462068810006D495
:1007300001F0C2FA801B0328F7D303257DE70025CB
:1007400006E70021381D01F02FFA05468EE7A06A62
:1007500000F0030003281BD10125A8463868820158
:1007600040F17F80B96C51B1102904D0202970D09C
:10077000302904D073E0E06A40F40030E0622800E1
:100780006ED1E16CB86C21F030010143E16468E0A6
:10079000216821F08051216001F08EFA0646206820
:1007A000810006D501F088FA801B0328F7D30325C2
:1007B000D3E7A06A796A20F07C7040EA0150A06219
:1007C000F96AB86A3A6B491E4902401EC0F3080034
:1007D000521E01F47E4112040843796B02F4FE02BA
:1007E0001043491E090601F0FE4108432064E06AF7
:1007F000B96B20F440600843E062E06AF96B20F4D2
:1008000000700843E062E06A20F48070E062616C8E
:10081000386C6FF3CF0141EAC0016164E16A41F4D1
:100820008071E162E06A40F48000E062216841F09A
:100830008051216001F040FA06462068810006D40C
:1008400001F03AFA801B0328F7D3032585E700253A
:100850000EE70221381D01F0A7F905468FE70125B3
:10086000A8463968CA0428D5F86D60B1B0F5805F34
:1008700016D0B0F5005F19D0B0F5405F18BFB0F5E5
:10088000804F04D017E0E16A41F40031E1622800B2
:1008900012D1216DF86D21F4E041014321650CE096
:1008A0000021381D01F080F90546F0E7A06A00F04C
:1008B0000300032824D10125A8463868820440F1AA
:1008C0008780396E99B1B1F5803F0BD0B1F5003F0B
:1008D00077D0B1F5403F1CBFB1F5802FB1F5A02F07
:1008E00005D073E00121381D01F05EF905462800AE
:1008F0006DD1216D386E21F4E0210143216567E05F
:10090000216821F08051216001F0D6F90646206867
:10091000810006D501F0D0F9801B0328F7D3032509
:10092000CAE7A06A796A20F07C7040EA0150A062B0
:10093000F96AB86A3A6B491E4902401EC0F30800C2
:10094000521E01F47E4112040843796B02F4FE0248
:100950001043491E090601F0FE4108432064E06A85
:10096000B96B20F440600843E062E06AF96B20F460
:1009700000700843E062E06A20F48070E062616C1D
:10098000386C6FF3CF0141EAC0016164E16A41F460
:100990008071E162E06A40F48000E062216841F029
:1009A0008051216001F088F906462068810006D454
:1009B00001F082F9801B0328F7D303257CE700258B
:1009C00067E7A16A01F00301032926D10125A846A2
:1009D00039684A0440F18980D7F8AC0098B1B0F189
:1009E000805F0BD0B0F1005F78D0B0F1405F1CBFEA
:1009F000B0F1804FB0F1A04F05D074E00121381D57
:100A000001F0D2F8054628006ED1A16DD7F8AC00F0
:100A100021F0E0410143A16567E0216821F08051A8
:100A2000216001F049F906462068810006D501F0F1
:100A300043F9801B0328F7D30325C8E7A06A796A26
:100A400020F07C7040EA0150A062F96AB86A3A6B03
:100A5000491E4902401EC0F30800521E01F47E41A7
:100A600012040843796B02F4FE021043491E090682
:100A700001F0FE4108432064E06AB96B20F4406055
:100A80000843E062E06AF96B20F400700843E0621A
:100A9000E06A20F48070E062616C386C6FF3CF0123
:100AA00041EAC0016164E16A41F48071E162E06A97
:100AB00040F40000E062216841F08051216001F0C3
:100AC000FBF806462068810006D401F0F5F8801B8B
:100AD0000328F7D303257AE700250AE7A16A01F086
:100AE000030103291BD10125A84639680A0440F1F6
:100AF0007F80F86E50B1B0F1805F03D0B0F1005F3D
:100B00006ED073E0E16A41F40031E16228006ED1F9
:100B1000216DF86E21F040510143216568E02168A4
:100B200021F08051216001F0C7F80646206881005D
:100B300006D501F0C1F8801B0328F7D30325D3E7BE
:100B4000A06A796A20F07C7040EA0150A062F96ADC
:100B5000B86A3A6B491E4902401EC0F30800521E93
:100B600001F47E4112040843796B02F4FE02104343
:100B7000491E090601F0FE4108432064E06AB96B92
:100B800020F440600843E062E06AF96B20F40070F2
:100B90000843E062E06A20F48070E062616C386CC7
:100BA0006FF3CF0141EAC0016164E16A41F48071F1
:100BB000E162E06A40F40000E062216841F08051A7
:100BC000216001F079F806462068810006D401F022
:100BD00073F8801B0328F7D3032585E7002514E766
:100BE0000121381D00F0E0FF05468FE70125A846EA
:100BF0003968CA011BD5786C032816D8DFE800F0E5
:100C000006020F06E16A41F40031E16228000DD1CD
:100C1000E16C786C890840EA8101E16407E0022117
:100C2000381D00F0C1FF0546F0E70125A8463968E8
:100C30004A0214D5D4F8000440F48070C4F80004CB
:100C400001F03AF84FEA0006D4F80004C10523D4B5
:100C500001F032F8801B6528F6D30325A8463978C1
:100C6000CA0767D5B86F70B1082807D010285AD0C6
:100C700018281CBF2028282805D059E00121381D3C
:100C800000F092FF0546280053D1616DB86F21F046
:100C90003801014361654DE02800DFD1206FD7F8AE
:100CA000B01000F4407001F4407188420BD0206F06
:100CB000216F41F480312167226F20F4407022F4CB
:100CC000803222672067D7F8B000B0F5807F0DD161
:100CD00000F0F2FF064641F28939206F810705D402
:100CE00000F0EAFF801B4845F7D3B6E7D7F8B0001D
:100CF00000F44071B1F5407F09D12269DFF8EC1BA7
:100D000001EA101122F47C520A43226103E02069B7
:100D100020F47C502061216FD7F8B000C0F30B00A5
:100D2000014321679BE7A16A01F0030103291CD15C
:100D30000125A84639788A0740F17F80786F052819
:100D400000F27980DFE800F008037208080801214A
:100D5000381D00F029FF054628006DD1616D786FC0
:100D6000C90840EAC101616567E0216821F080514E
:100D7000216000F0A1FF06462068810006D500F042
:100D80009BFF801B0328F7D30325D2E7A06A796A6B
:100D900020F07C7040EA0150A062F96AB86A3A6BB0
:100DA000491E4902401EC0F30800521E01F47E4154
:100DB00012040843796B02F4FE021043491E09062F
:100DC00001F0FE4108432064E06AB96B20F4406002
:100DD0000843E062E06AF96B20F400700843E062C7
:100DE000E06A20F48070E062616C386C6FF3CF01D0
:100DF00041EAC0016164E16A41F48071E162E06A44
:100E000040F40000E062216841F08051216000F070
:100E100053FF06462068810006D400F04DFF801B7A
:100E20000328F7D3032584E700252EE7A16A01F004
:100E3000030103291ED10125A84639784A0740F14C
:100E40008180D7F89000052800F27A80DFE800F072
:100E50000803730808080121381D00F0A5FE0546A7
:100E600028006ED1A16DD7F89000C90840EAC101F1
:100E7000A16567E0216821F08051216000F01CFF2E
:100E800006462068810006D500F016FF801B032867
:100E9000F7D30325D0E7A06A796A20F07C7040EA96
:100EA0000150A062F96AB86A3A6B491E4902401EB5
:100EB000C0F30800521E01F47E4112040843796B0E
:100EC00002F4FE021043491E090601F0FE410843E8
:100ED0002064E06AB96B20F440600843E062E06A95
:100EE000F96B20F400700843E062E06A20F480703F
:100EF000E062616C386C6FF3CF0141EAC00161645C
:100F0000E16A41F48071E162E06A40F40000E0626D
:100F1000216841F08051216000F0CEFE0646206835
:100F2000810006D400F0C8FE801B0328F7D30325F8
:100F300082E7002512E7A16A01F00301032926D107
:100F40000125A84639788A0640F18980D7F88C00B7
:100F500098B1B0F1805F0BD0B0F1005F78D0B0F104
:100F6000405F1CBFB0F1804FB0F1A04F05D074E0DE
:100F70000021381D00F018FE054628006ED1616D75
:100F8000D7F88C0021F0E0410143616567E02168FA
:100F900021F08051216000F08FFE0646206881001C
:100FA00006D500F089FE801B0328F7D30325C8E788
:100FB000A06A796A20F07C7040EA0150A062F96A68
:100FC000B86A3A6B491E4902401EC0F30800521E1F
:100FD00001F47E4112040843796B02F4FE021043CF
:100FE000491E090601F0FE4108432064E06AB96B1E
:100FF00020F440600843E062E06AF96B20F400707E
:101000000843E062E06A20F48070E062616C386C52
:101010006FF3CF0141EAC0016164E16A41F480717C
:10102000E162E06A40F40000E062216841F0805132
:10103000216000F041FE06462068810006D400F0E1
:101040003BFE801B0328F7D303257AE7002509E739
:10105000A16A01F00301032926D10125A8463978A8
:101060004A0640F18980D7F8980098B1B0F5806FB2
:101070000BD0B0F5006F78D0B0F5406F1CBFB0F565
:10108000805FB0F5A05F05D074E00021381D00F04E
:101090008BFD054628006ED1A16DD7F8980021F48C
:1010A000E0510143A16567E0216821F08051216092
:1010B00000F002FE06462068810006D500F0FCFD27
:1010C000801B0328F7D30325C8E7A06A796A20F0BC
:1010D0007C7040EA0150A062F96AB86A3A6B491E16
:1010E0004902401EC0F30800521E01F47E41120462
:1010F0000843796B02F4FE021043491E090601F011
:10110000FE4108432064E06AB96B20F44060084364
:10111000E062E06AF96B20F400700843E062E06A84
:1011200020F48070E062616C386C6FF3CF0141EAAB
:10113000C0016164E16A41F48071E162E06A40F0FB
:101140008070E062216841F08051216000F0B4FDC0
:1011500006462068810006D400F0AEFD801B0328FF
:10116000F7D303257AE7002509E7A16A01F0030117
:10117000032926D10125A84639780A0640F189803D
:10118000D7F89C0098B1B0F5005F0BD0B0F5804F58
:1011900078D0B0F5C04F1CBFB0F5004FB0F5204F70
:1011A00005D074E00021381D00F0FEFC0546280043
:1011B0006ED1A16DD7F89C0021F460410143A16577
:1011C00067E0216821F08051216000F075FD06463E
:1011D0002068810006D500F06FFD801B0328F7D33F
:1011E0000325C8E7A06A796A20F07C7040EA0150C4
:1011F000A062F96AB86A3A6B491E4902401EC0F300
:101200000800521E01F47E4112040843796B02F477
:10121000FE021043491E090601F0FE410843206406
:10122000E06AB96B20F440600843E062E06AF96B61
:1012300020F400700843E062E06A20F48070E0620D
:10124000616C386C6FF3CF0141EAC0016164E16AFF
:1012500041F48071E162E06A40F08070E0622168F0
:1012600041F08051216000F027FD06462068810092
:1012700006D400F021FD801B0328F7D303257AE76D
:10128000002509E7A16A01F00301032921D1012505
:10129000A84639780A0740F1D280D7F88000B0F527
:1012A000805F40F0C580A16A01F00301032900F0CE
:1012B000BD80206820F08050206000F0FDFC0646D4
:1012C0002168880066D500F0F7FC801B0328F7D35F
:1012D000ACE0206820F08050206000F0EDFC064675
:1012E0002168880006D500F0E7FC801B0328F7D3AF
:1012F0000325CDE7A06A796A20F07C7040EA0150AE
:10130000A062F96AB86A3A6B491E4902401EC0F3EE
:101310000800521E01F47E4112040843796B02F466
:10132000FE021043491E090601F0FE4108432064F5
:10133000E06AB96B20F440600843E062E06AF96B50
:1013400020F400700843E062E06A20F48070E062FC
:10135000616C386C6FF3CF0141EAC0016164E16AEE
:1013600041F48071E162E06A40F08070E0622168DF
:1013700041F08051216000F09FFC0646206881000A
:1013800006D400F099FC801B0328F7D303257FE7E0
:1013900000250EE7A16A786A21F07C7141EA0051CC
:1013A000A162F86AB96A3A6B401E4002491EC1F355
:1013B0000801521E00F47E4012040143786B02F4CF
:1013C000FE021143401E000600F0FE40014321646E
:1013D000E06AB96B20F440600843E062E06AF96BB0
:1013E00020F400700843E062E06A20F48070E0625C
:1013F000616C386C6FF3CF0141EAC0016164E16A4E
:1014000041F48071E162E06A40F08070E06221683E
:1014100041F08051216000F04FFC064620688100B9
:1014200006D400F049FC801B0328F7D34FF00108D5
:10143000616DD7F8800021F440510143616539782E
:10144000CA066ED5D7F89400B0F5807F62D1A16A44
:1014500001F0030103295BD0206820F08050206058
:1014600000F02AFC06462168880005D500F024FC1F
:10147000801B0328F7D34BE0A06A796A20F07C70C8
:1014800040EA0150A062F96AB86A3A6B491E490203
:10149000401EC0F30800521E01F47E4112040843AE
:1014A000796B02F4FE021043491E090601F0FE4169
:1014B00008432064E06AB96B20F440600843E062AE
:1014C000E06AF96B20F400700843E062E06A20F4FF
:1014D0008070E062616C386C6FF3CF0141EAC0014B
:1014E0006164E16A41F48071E162E06A40F0807019
:1014F000E062216841F08051216000F0DDFB06468A
:101500002068810006D400F0D7FB801B0328F7D3A6
:101510004FF00108A16DD7F8940021F44071014308
:10152000A16539680A031FD5D7F8A00030B1B0F51E
:10153000803F12D0B0F5003F05D013E00021381DE8
:1015400000F032FB054628000DD1A16DD7F8A000B0
:1015500021F440310143A16506E0A16A01F00301D5
:1015600003291FD10125A84639684A0340F182802A
:10157000D7F88400B0F5801F06D0B0F5001F72D0F8
:10158000B0F5401F04D073E0E16A41F40031E1623C
:1015900028006ED1616DD7F8840021F44011014319
:1015A000616567E0216821F08051216000F084FBD3
:1015B00006462068810006D500F07EFB801B0328CC
:1015C000F7D30325CFE7A06A796A20F07C7040EA60
:1015D0000150A062F96AB86A3A6B491E4902401E7E
:1015E000C0F30800521E01F47E4112040843796BD7
:1015F00002F4FE021043491E090601F0FE410843B1
:101600002064E06AB96B20F440600843E062E06A5D
:10161000F96B20F400700843E062E06A20F4807007
:10162000E062616C386C6FF3CF0141EAC001616424
:10163000E16A41F48071E162E06A40F08070E0624A
:10164000216841F08051216000F036FB0646206899
:10165000810006D400F030FB801B0328F7D303255C
:1016600081E7002571E7A16A01F00301032917D181
:101670000125A8463968CA037BD5F86C18B1B0F5C6
:10168000803F6ED073E0E16A41F40031E1622800EE
:101690006ED1E16CF86C21F480310143E16468E0C3
:1016A000216821F08051216000F006FB0646206889
:1016B000810006D500F000FB801B0328F7D303252B
:1016C000D7E7A06A796A20F07C7040EA0150A062F6
:1016D000F96AB86A3A6B491E4902401EC0F3080015
:1016E000521E01F47E4112040843796B02F4FE029B
:1016F0001043491E090601F0FE4108432064E06AD8
:10170000B96B20F440600843E062E06AF96B20F4B2
:1017100000700843E062E06A20F48070E062616C6F
:10172000386C6FF3CF0141EAC0016164E16A41F4B2
:101730008071E162E06A40F40000E062216841F0FB
:101740008051216000F0B8FA06462068810006D476
:1017500000F0B2FA801B0328F7D3032589E70025A0
:1017600018E70221381D00F01FFA05468FE7012512
:10177000A84639688A0062D5A06A00F003000328F1
:101780005BD0216821F08051216000F095FA064677
:101790002068810005D500F08FFA801B0328F7D35D
:1017A0004BE0A06A796A20F07C7040EA0150A062A8
:1017B000F96AB86A3A6B491E4902401EC0F3080034
:1017C000521E01F47E4112040843796B02F4FE02BA
:1017D0001043491E090601F0FE4108432064E06AF7
:1017E000B96B20F440600843E062E06AF96B20F4D2
:1017F00000700843E062E06A20F48070E062616C8F
:10180000386C6FF3CF0141EAC0016164E16A41F4D1
:101810008071E162E06A40F08070E062216841F02E
:101820008051216000F048FA06462068810006D405
:1018300000F042FA801B0328F7D34FF00108396803
:101840008A031AD5F86F68B1B0F5807F06D0B0F57D
:10185000007F18BFB0F5407F04D00CE0E16A41F48E
:101860000031E162280007D1616DF86F21F4407109
:101870000143616501E00125A8463A68D00205D51B
:10188000216D386F21F00041014321653968CA009C
:1018900006D52369D7F8B40023F4804303432361BA
:1018A00039688A0205D5236DB86E23F0807303432F
:1018B000236539684A0008D5206920F4004020617A
:1018C0002169D7F8B800014321613A68002A05D59B
:1018D000E36C386D23F040530343E364B8F1010037
:1018E0008041C043C00F01B0BDE8F083CFFFFF00CF
:1018F00000B581B000F0A4FBDFF8B023DFF8A81337
:101900001368C3F30212895C01B001F01F01C840E3
:1019100000BD000030B4DFF88C329C6A996ADA6A44
:10192000C2F30015DA6BC1F305310029C2F3CC0212
:1019300012FB05F500EE105AB8EE400A00F0838065
:1019400014F0030402D0022C2CD032E0DFED910A17
:1019500020EE200A00EE901A1968F8EE600A8A0656
:101960000CD51968DFF83C43C1F3C101CC4001EE4E
:10197000104AB8EE411AC1EE200A03E09FED862A14
:10198000C2EE200A996BF7EE001AC1F3080101EECE
:10199000101AB8EE411A31EE000A70EE211A20EE4C
:1019A000A10A1FE000EE901AF8EE600A9FED7B2A74
:1019B00005E000EE901AF8EE600A9FED792A996B27
:1019C000DFED741AC2EE200AC1F3080101EE101A0D
:1019D000B8EE411A00EE211AB7EE000A31EE000A05
:1019E00020EE800A996BB7EE001AC1F3462100EE93
:1019F000901AF8EE600A70EE810AC0EE200AFCEE42
:101A0000E00AC0ED000A996BC1F3064100EE901A9E
:101A1000F8EE600A70EE810AC0EE200AFCEEE00AE1
:101A2000C0ED010A996BC1F3066100EE901AF8EE61
:101A3000600A70EE810A80EE200ABCEEC00A80EDDA
:101A4000020A30BC7047002202604160826030BCF4
:101A50007047000030B4DFF84C319C6A996ADA6A4A
:101A6000C2F300255A6CC1F305510029C2F3CC0220
:101A700012FB05F500EE105AB8EE400A00F0838024
:101A800014F0030402D0022C2CD032E0DFED410A26
:101A900020EE200A00EE901A1968F8EE600A8A0615
:101AA0000CD51968DFF8FC41C1F3C101CC4001EE4F
:101AB000104AB8EE411AC1EE200A03E09FED362A23
:101AC000C2EE200A196CF7EE001AC1F3080101EE0C
:101AD000101AB8EE411A31EE000A70EE211A20EE0B
:101AE000A10A1FE000EE901AF8EE600A9FED2B2A83
:101AF00005E000EE901AF8EE600A9FED292A196CB5
:101B0000DFED241AC2EE200AC1F3080101EE101A1B
:101B1000B8EE411A00EE211AB7EE000A31EE000AC3
:101B200020EE800A196CB7EE001AC1F3462100EED0
:101B3000901AF8EE600A70EE810AC0EE200AFCEE00
:101B4000E00AC0ED000A196CC1F3064100EE901ADC
:101B5000F8EE600A70EE810AC0EE200AFCEEE00AA0
:101B6000C0ED010A196CC1F3066100EE901AF8EE9F
:101B7000600A70EE810A80EE200ABCEEC00A80ED99
:101B8000020A30BC7047002202604160826030BCB3
:101B900070470000000000390024744C20BCBE4B8C
:101BA0000024744A00440258F0B581B00646404D06
:101BB0000C46A86A00F00300032808BF01206ED07D
:101BC000286820F08060286000F076F807462968D1
:101BD000080107D500F070F8C01B0328F7D30320D5
:101BE00001B0F0BDA86A316820F47C3040EA0130D1
:101BF000A862B1687068F268491E4902401EC0F3CD
:101C00000800521E01F47E4112040843316902F4B7
:101C1000FE021043491E090601F0FE410843A86375
:101C2000E96A706921F0C0010143E962E96AB069BB
:101C300021F020010143E962E96A21F01001E96223
:101C4000E86BF1696FF3CF0040EAC100E863E86A2E
:101C500040F01000E86224B9E86A40F40020E8622D
:101C60000AE0012C04D1E86A40F48010E86203E045
:101C7000E96A41F40011E962286840F08060286058
:101C800000F01AF804462968080107D400F014F897
:101C9000001B0328F7D3032001B0F0BD002001B0E2
:101CA000F0BD00000090D003087C000820440258DA
:101CB00000440258002070470E490868002808BFF9
:101CC00000F0B0BC0C490868800B0DD000BF00BF0D
:101CD00000BF00BF00BF00BF00BF00BF00BF00BF0C
:101CE00000BF00BF401EF1D104490868401C0860D5
:101CF00070470000E0040024D8040024E4690024B4
:101D00002DE9F043040081B0884600F0B180DFF88F
:101D1000B063306800F00F0040450AD2316809090D
:101D200048EA01113160326802F00F02424540F08A
:101D30009F802078DFF88C5341070AD52069AA6973
:101D400002F07002824204D2A96921F070010843B6
:101D5000A861207801070AD56069EA6902F070027B
:101D6000824204D2E96921F070010843E8612078D9
:101D7000C1060AD5A069EA6902F4E062824204D28F
:101D8000E96921F4E0610843E861207881060AD519
:101D9000E0692A6A02F07002824204D2296A21F0C4
:101DA000700108432862207881070AD5E068AA6993
:101DB00002F00F02824204D2A969090940EA011027
:101DC000A8612078C10736D5AA69A06822F470629C
:101DD0000243AA616068022802D129688A0308E0E8
:101DE000032802D129688A0103E0012806D1296865
:101DF000CA0506D4012001B0BDE8F0832B6859075D
:101E000036D52A6941F28939D20840EAC2002861F0
:101E1000FFF752FF07462869616800F03800B0EB11
:101E2000C10F08D0FFF748FFC01B4845F3D303207C
:101E300001B0BDE8F083207881070AD5E068AA697F
:101E400002F00F02904204D2A969090940EA011088
:101E5000A861306800F00F0080450DD23168090993
:101E600048EA01113160326802F00F02424503D0A6
:101E7000012001B0BDE8F083207841070AD5206930
:101E8000AA6902F07002904204D2A96921F070019F
:101E90000843A861207801070AD56069EA6902F061
:101EA0007002904204D2E96921F070010843E861B0
:101EB0002078C1060AD5A069EA6902F4E06290427E
:101EC00004D2E96921F4E0610843E86120788106E1
:101ED0000AD5E0692A6A02F07002904204D2296AA7
:101EE00021F070010843286200F020F8AA69DFF8A9
:101EF000E811C2F303228B5CAC69DFF8CC5104F02B
:101F00000F04095D01B003F01F03D840DFF8BC31B6
:101F100001F01F0120FA01F21A602860DFF8B40115
:101F20000068BDE8F043FFF7C5BE0000654A1069D0
:101F300010F0380004D010280BD018280BD07DE00A
:101F4000116863488B067AD51168C1F3C101C84096
:101F5000704762487047936A906AD2F82CC0516B00
:101F60000CF0010CC0F305100028C1F3CC0111FBEB
:101F70000CFC00EE10CAB8EE400A60D013F0030368
:101F800002D0022B2BD031E0DFED490A20EE200AEF
:101F900000EE900A1068F8EE600A81060BD5106812
:101FA0004B4BC0F3C100C34001EE103AB8EE411AEA
:101FB000C1EE200A03E09FED3F2AC2EE200A106B1B
:101FC000F7EE001AC0F3080001EE100AB8EE411A4D
:101FD00031EE000A70EE211A20EEA10A1FE000EE99
:101FE000900AF8EE600A9FED342A05E000EE900AB0
:101FF000F8EE600A9FED312A106BDFED2D1AC2EE6C
:10200000200AC0F3080001EE100AB8EE411A00EEF3
:10201000211AB7EE000A31EE000A20EE800A106B9A
:10202000C0F34620401C00EE900AF8EE600A80EEF5
:10203000200ABCEEC00A10EE100A7047284870470C
:1020400010B5FFF773FF014626480368224AC3F321
:102050000323D45C00681C4B00F00F00125C04F0FA
:102060001F04E140196002F01F0221FA02F0174933
:10207000086010BD00B581B0FFF7E2FF1A4A1649AB
:102080001368C3F30212895C01B001F01F01C8405C
:1020900000BD00B581B0FFF7D3FF134A0E491368A6
:1020A000C3F30222895C01B001F01F01C84000BDEA
:1020B000000000390024744C20BCBE4B0024744A3C
:1020C0000020005200440258D8040024DC040024FC
:1020D0000090D003D4040024087C000840787D01DF
:1020E00000093D00184402581C440258F0B5040091
:1020F00081B000F08D822078DFF82055C10712D51D
:102100002869A96A00F03800102805D0182804BFF3
:1021100001F0030102296FD129688A0303D56068A1
:10212000002800F0758221788A0722D52869A96ADB
:1021300010F0380005D0182808BF11F0030F40F048
:10214000AD8029684A0703D5E068002800F0608266
:1021500000F09DFA41F20401884280F098802069E5
:10216000402840F08D80686820F47C3040F40030D6
:1021700068602178C80624D52869A96A00F038006B
:10218000082806D0182804BF01F00301012940F0F7
:10219000D4802868C10503D5E269802A40F03882DE
:1021A00000F075FA41F20401884280F0BE80206A96
:1021B000202840F0B380686820F0F84040F080406C
:1021C000686021780A0740F1FB806069002800F010
:1021D000E580696F41F001016967FFF76DFD064613
:1021E000686F810700F1EC80FFF766FD801B032814
:1021F000F6D3032001B0F0BD6068B0F5803F10D089
:1022000040B9296821F480312960286820F48020B1
:10221000286013E0B0F5A02F08D1296841F480218F
:102220002960286840F48030286007E02A6822F49A
:1022300080322A60296821F480212960606841F297
:10224000893670B1FFF738FD0746296888033FF5E6
:102250006AAFFFF731FDC01BB042F6D3032001B0D7
:10226000F0BDFFF729FD0746286881037FF55BAFC6
:10227000FFF722FDC01BB042F6D3032001B0F0BD32
:102280006A6822F47C3242EA00326A6071E7686868
:10229000216920F0FE4040EA016069E7E06850B340
:1022A000296821F0190108432860FFF705FD06465B
:1022B0002868410707D4FFF7FFFC801B0328F7D3EA
:1022C000032001B0F0BD00F0E2F941F204018842C0
:1022D0000AD2206940283FF446AF696821F47C3176
:1022E00041EA0031696044E76868216920F0FE40F6
:1022F00040EA01603CE72868400840002860FFF79A
:10230000DBFC0646296848077FF533AFFFF7D4FCAE
:10231000801B0328F6D3032001B0F0BD696821F0CB
:10232000F84141EA806169604BE7E868216A20F082
:102330007C5040EA0160E86043E7E069D8B1296871
:1023400041F080012960FFF7B7FC06462868C10507
:1023500007D4FFF7B1FC801B0328F7D3032001B09B
:10236000F0BD00F094F941F204018842DDD2206A08
:102370002028D3D11FE7286820F080002860FFF7CD
:102380009BFC06462968C8057FF51BAFFFF794FC48
:10239000801B0328F6D3032001B0F0BD686F40080E
:1023A00040006867FFF788FC0646686F810707D51D
:1023B000FFF782FC801B0328F7D3032001B0F0BD98
:1023C00021788A0625D5A06988B1296841F4805111
:1023D0002960FFF771FC06462868810419D4FFF7CD
:1023E0006BFC801B0328F7D3032001B0F0BD2868E5
:1023F00020F480502860FFF75FFC064629688804B7
:1024000007D5FFF759FC801B0328F7D3032001B041
:10241000F0BD2078410751D5D5F8002442F48072F0
:10242000C5F80024FFF748FC4FEA0006D5F8000481
:10243000C10507D4FFF740FC801B6528F6D30320B5
:1024400001B0F0BDA068012804D1286F40F0010060
:10245000286713E008B9286F09E00528286F06D11E
:1024600040F004002867296F41F0010105E04008B1
:1024700040002867296F21F004012967A06841F214
:10248000893668B1FFF718FC0746286F810715D415
:10249000FFF712FCC01BB042F7D3032001B0F0BD20
:1024A000FFF70AFC0746286F810707D5FFF704FCF2
:1024B000C01BB042F7D3032001B0F0BD606A002812
:1024C00000F0A980296901F0380118297AD0022882
:1024D000286820F08070286066D1FFF7EDFB064683
:1024E0002968880107D5FFF7E7FB801B0328F7D38E
:1024F000032001B0F0BDA86AA26A4949E36A084016
:10250000104340EA0310A862616B206BA26B491E66
:102510004902401EC0F30800521E01F47E4112041D
:102520000843E16B02F4FE021043491E090601F064
:10253000FE4108432863E86A40084000E862696B8E
:10254000A06C6FF3CF0141EAC0016963E96A206CB6
:1025500021F00C010143E962E96A606C21F002019B
:102560000143E962E96A41F48031E962E86A40F4D2
:102570000030E862E96A41F48021E962E86A40F0EB
:102580000100E862296841F080712960FFF794FB3F
:102590000446286881013ED4FFF78EFB001B032808
:1025A000F7D3032001B0F0BDFFF786FB044629688E
:1025B000880130D5FFF780FB001B0328F7D30320E9
:1025C00001B0F0BD0128A96A2A6B21D0A36A01F0ED
:1025D0000300984202BFC1F30510E16A884217D197
:1025E000236BC2F308005B1E984201BFC2F3462072
:1025F000616B491E88420BD1A16BC2F30640491E94
:10260000884201BFC2F30660E16B491E884202D0D6
:10261000012001B0F0BD002001B0F0BD004402581F
:102620000CFCFFFFEFF3108172B60248006881F3E3
:10263000108870474062002430B581B0032000F05C
:102640005BF8FFF773FCDFF85C10DFF85C200B68C9
:10265000DFF85850C3F30323D45C096801F00F017D
:10266000525C04F01F04E040114C02F01F0220FAFB
:1026700002F3236028600F20FFF71CFB10B101203C
:1026800001B030BD00F01AF8002001B030BD09489B
:102690000068000C70470848016841F001010160C2
:1026A0007047000018440258087C0008D804002431
:1026B000DC0400240010005C20040058704730B493
:1026C000002513E050F8042BD30744BFA9F1010300
:1026D0009A18091F042942F8045BFAD213468C07A2
:1026E00044BF15809B1CC90748BF1D7050F8041BD0
:1026F0000029E7D130BC7047434B4FF6FF02196801
:10270000000200F4E06011400843404908431860AB
:10271000704770B43C4B1C68C4F30223C3F1070537
:10272000052D28BF0F2405D20126C3F1070406FAA0
:1027300004F4641E1D1D072D34BF0023DB1E214041
:102740009940012404FA03F35B1E1A401143090166
:10275000020003D42E48815470BC70472D4B02F008
:102760000F021A4402F8041C70BC7047010007D421
:10277000012200F01F018A40274B400943F8202026
:102780007047BFF35F8F25480022016821F4803134
:10279000016002677047214940F00100086708683E
:1027A00040F480300860BFF34F8FBFF36F8F7047E6
:1027B00043781B4A1360017809B3D0F804C0C2F80B
:1027C00004C0C37A017B90F80DC01B0643EA017375
:1027D000817A43EAC143817B43EA8C4390F80FC07E
:1027E00043EA4143417A43EA0C4390F808C0007839
:1027F00043EA012343EA4C0303439360704751606B
:1028000000239360704700000CED00E00000FA0523
:1028100000E400E018ED00E000E100E024ED00E05D
:1028200098ED00E02DE9F14FB0B0924604910DF122
:1028300042013A9A2B9199464A7000200AE01AF810
:10284000011B0498309A90470028049000F0B48649
:102850000D98401C0D909AF8000050B12528EED13B
:10286000002100220791089209910A920B910C9283
:1028700004E00D9800F0A2BE41F001011AF8010F2A
:102880002028F9D023280CD02B2804D02D2805D0BF
:10289000302809D00BE041F00201EFE741F00401DC
:1028A000ECE741F00801E9E741F01001E6E72A28EA
:1028B0000FD1D9F8002052F8040BC9F800200028E5
:1028C0000F9003D540420F9041F004010AF1010A34
:1028D00014E00F92DFF824380AE00F98984205DAE6
:1028E00000EB800402EB4402303A0F920AF1010A35
:1028F0009AF80020A2F130000A28EED39AF80000DE
:102900002E2803D04FF0FF320E9229E01AF8010F63
:102910002A2809D1D9F8000050F8042BC9F8000082
:102920000E920AF1010A1BE02D280CBF0AF1010AE0
:10293000002000220E92DFF8C4470BE040B90E9A47
:10294000A24205DA02EB820503EB4503303B0E930E
:102950000AF1010A9AF80030A3F130020A2AEDD3F5
:10296000ADF84010DFF89807784400F294709AF8B8
:10297000001000F045FF08B11AF8010B8DF8420075
:102980009DF84200682805D19AF8000068280CD10B
:10299000622106E06C2804BF9AF800006C2804D17C
:1029A00071218DF842100AF1010A12A806901AF856
:1029B00001BBBBF125012CD01C3900F0D081091FCF
:1029C000022940F2CC81133900F02185093900F049
:1029D000C681891E00F0B685491E00F06385491E38
:1029E000022940F2BC81091F00F05C85491F00F0FC
:1029F0002881491E00F00B85491E00F0D080C91EB9
:102A00000DD0891E00F00385C91E00F0008500F07E
:102A1000A4BD25238DF84830012100F0A9BDD9F8C7
:102A2000000050F8044BC9F80000002C059440F059
:102A3000A3802B994878002800F099804FF0FF344C
:102A40000FF6803000F0ECFE201A40F0B58500F063
:102A500090BD6D1E40F0A7853096079D12AF75B1F1
:102A6000309E17F8012B02A9304600F071FE0028B5
:102A700001D46D1EF5D10028309640F09D850A9D49
:102A80003020002D8DF804000CDD309E012301AABA
:102A900002A9304600F06CFE002840F08D856D1EC6
:102AA000F4D13096059F089D75B1309E17F8012B23
:102AB00002A9304600F04CFE002801D46D1EF5D16D
:102AC0000028309640F078850B9D3020002D8DF841
:102AD00004000CDD309E012301AA02A9304600F05B
:102AE00047FE002840F068856D1EF4D130960598A9
:102AF0000899099D471875B1309E17F8012B02A956
:102B0000304600F025FE002801D46D1EF5D10028C6
:102B1000309640F051850C9D3020002D8DF804003A
:102B20000CDD309E012301AA02A9304600F020FEF0
:102B3000002840F041856D1EF4D130969DF840008C
:102B400041077FF588AE2020002C8DF804007FF728
:102B500082AE309D012301AA02A9284600F008FE9A
:102B6000002840F02985641EF4D1309573E60FF6F5
:102B70006040059000F0FDBC0E9D002D04D5204660
:102B800000F06EFE044607E02A46204600F084FE70
:102B9000002814BF041B2C46089400F0EABCD9F8A6
:102BA000001051F8040BC9F8001020F000040021B7
:102BB00021F0FF3512ABCDE902450593DDE9022393
:102BC00006993C2413B90AB90E9898B102F00F0582
:102BD0003035641EEEB23A2EA8BF2735120942EAFC
:102BE00003721B090D5508BF002A03D005980D1963
:102BF000A842EBD308190590C4F13C020E98089244
:102C000082420ADABDF84010821A4FF6EF70014096
:102C10000A92ADF8401000F0ACBC002840F1A98445
:102C20009DF8400000F01400102840F0A2840F9B93
:102C300007990A985B1A1B1A9A1A002A40F399847A
:102C4000E3E32B99487820B14FF0FF340FF6503072
:102C5000F8E69DF84200622861D0682817D06A28FB
:102C60003FD06C2806D0712847D074282CD07A2801
:102C70001DD064E0D9F8001051F8040BC9F8001019
:102C8000002868D14FF0FF340FF62C30DAE6D9F87F
:102C9000001051F8040BC9F8001020B94FF0FF34B0
:102CA0000FF61430CEE60D99018000F062BCD9F821
:102CB000001051F8040BC9F8001000284BD14FF058
:102CC000FF340FF6F420BDE6D9F8001051F8040BDC
:102CD000C9F8001000283ED14FF0FF340FF6D8207D
:102CE000B0E6D9F8001051F8040BC9F8001080B90B
:102CF0004FF0FF340FF6C020A4E6D9F8001051F8C9
:102D0000040BC9F8001020B94FF0FF340FF6A820CB
:102D100098E60D9AD317C0E9002300F02ABCD9F831
:102D2000001051F8040BC9F8001020B94FF0FF341F
:102D30000FF6842086E60D99017000F01ABCD9F8D0
:102D4000001051F8040BC9F8001020B94FF0FF34FF
:102D50000FF6642076E60D99016000F00ABCD9F800
:102D60000020D21D22F00702C9F80020D2E900019C
:102D70000832C9F80020CDE90201C80F02D0079837
:102D80002D210AE0BDF84000810702D507982B21CC
:102D900003E0C00705D50798202112AA1154401C52
:102DA000079012A807994BF020024318DDE90201B1
:102DB000CDE92C01612A059321AC0BD00E98002897
:102DC00002D506200E9005E001BF4BF020006728D9
:102DD00001210E91DDE9020148004015401C0A4620
:102DE0000DD109030BD0ABF1610503201A2D08901A
:102DF00002D20FF6E0110DE00FF6DC110AE070B917
:102E000012030CD1ABF1610503201A2D08901AD3DF
:102E10000FF6CC110322184600F06AFDA9E3DDE9A4
:102E20000201CDE92E01DDE92E2323F00047B7F59D
:102E3000801F22F000060DD20022002F08BF002EB6
:102E4000009203D116E00FF69411E3E76A4600F012
:102E5000A3FD0FE0DFF8D808DFF8D81800EB175013
:102E60000090DDE92E234FF0FF301940DFF8C878DD
:102E700010403943CDE902014BF0200061280DD10B
:102E8000059830210170821CBBF1610F05920CBFC7
:102E90007821582141700798801C0790DDE90201D4
:102EA00020F0000231F0004308BF002A02D10026C2
:102EB000002567E14BF02008B8F1610F40F0B480C5
:102EC0000E98002847BF21210191401C0190019FCD
:102ED000DDE92C017F1C00220023DDE9024500F022
:102EE00093FD00998DF8842038BF85F00045091FB7
:102EF000002F00910DF1850653DD20462946002262
:102F0000002300F099FD4CD24800400D00F11C0355
:102F100012D0002B10DD40F2FF70834206DBDFF899
:102F20001C1805F000421143002011E06FF31E5100
:102F300041EA035120460BE024F0000035F0004147
:102F400008BF00280FBF29461C22294600F08CFD2F
:102F500004460D4600F00AFEFF1F002F804609DDE3
:102F600000F00BFE02460B462046294600F00CFE00
:102F700004460D46F01D0721B8F1000F0CDD491E77
:102F80005EBF08F00F0200F8012D4FEA2818F3D5B4
:102F900002E0002200F8012D491EFAD5C61D002FBF
:102FA000ABDC0DF18500361A01988642D8BF304659
:102FB00000280DF1850430D4B04206DA0DF1850108
:102FC0000A5C082AA8BF0F2100DA0021024621ABC3
:102FD000134400E0401E13F80159521E8D42F9D0EF
:102FE0000F2904D10DF185018B5C5B1C8B54002AE9
:102FF00004D50099091D21AC401C0091411E0CD440
:103000006218ABF13A0613783033DDB23A2DA8BF1F
:10301000F318491E02F80139F5D50E99002940F13F
:10302000AF80421E0E92ABE00099DFF8142747F202
:103030009750414391FBF2F2DDE92C45009225F0D7
:103040000045D2F1070204DD2046294600F04DFB81
:103050000BE052420020DFF8EC1600F046FB02467F
:103060000B462046294600F098FD0446B8F1660F4D
:103070000E9806BF009F0A3706273F18142FC8BFB7
:10308000142730200D468DF884000DF18506002FA1
:1030900038DD2046294600F089FD01460A4606F142
:1030A000080304200A26B2FBF6F606EB860EA2EB16
:1030B0004E02303203F8012C0A22B6FBF2F202EB88
:1030C000820EA6EB4E063036401E03F8026DE9D1A3
:1030D000083F002F03F10806D9DD084600F06DFD1A
:1030E00002460B462046294600F04EFD0022DFF83E
:1030F000583600F069FD04460D46CAE7CBCCCC0C2F
:10310000504F00000DF18500361A0DF1850404E0E2
:103110000098401E761E0090641C20783028F7D05E
:10312000B8F1660F02D10099491C04E0B8F1650FAF
:103130000CBF012100210E9808188642B8BF701EEE
:1031400000281DD4B04204DA215C3429C8BF3921DB
:1031500000DC30210246631E9D1800E0401E15F879
:103160000169521E8E42F9D0392902D1A15C491C55
:10317000A154002A04D50099491C1C46401C00910A
:103180000646009D00F02AFD406A0778DDF8388089
:1031900030B2002802DC01260FF248644BF0200018
:1031A000662808BF6D1C16D0672846D128B210F1DA
:1031B000040F48DB404546DA9DF840006D1C0107CE
:1031C00003D430B24045B8BF804628B2B8EB0008FF
:1031D00048BF4FF000080FFA85FBBBF1000F00F36A
:1031E000B5800898411C0891302205990A54B8F11D
:1031F000000F03DC9DF84000010704D50898411C2E
:10320000089105990F5418EB0B0FB8BFC8F10005D2
:103210002DB268420B90A84432B29045B8BF4646E2
:10322000059B089836B2099632462146184400F0AC
:103230005FFBA8EB06000C90D2E0BBF1610F17D149
:103240004FF0700B19E030B2404504DA9DF84010A1
:103250000A0758BF8046B8F1010848BF4FF0000880
:10326000BBF1670F14BF4FF0450B4FF0650B04E047
:10327000BBF1410F08BF4FF0500B0898411C08915B
:10328000B8F1000F059914F8012B0A5403DC9DF8DE
:10329000400001071AD50898411C0891B8F1000FA9
:1032A00005990F5412DD761E30B280450598089BB3
:1032B000B8BF464632B22146184400F019FB0899BF
:1032C00036B271180891A8EB06000B900598089982
:1032D000084429B2002980F800B003D42B224270A0
:1032E000821C04E02D2242700D46821C6D4200219A
:1032F0002CAB28460AE004460A2094FBF0F000EBD1
:103300008005A4EB450403F8014B491C00B20028DA
:10331000F1DC012906DC4BF02000652804BF3020D9
:1033200002F8010B00292CAB08D1302002F8010B68
:1033300006E0491E585C303002F8010B0029F8DC29
:10334000059908980844121A099249E030B229B246
:1033500088421CDA0598089B32B22146184400F0D6
:10336000C7FA089936B27118ABEB0606B8F1000F30
:1033700008910B9603DC9DF84000020704D50598E0
:1033800047540999491C0991CDF8308028E00598E7
:10339000089B2AB22146184400F0AAFA0898761B26
:1033A0005844B8F1000F089003DC9DF840100A075C
:1033B00003D5411C089105990F5430B280450598FA
:1033C000089BB8BF464632B204EB0B01184400F02C
:1033D0008FFA089836B230180890A8EB06000B90C8
:1033E0009DF8400000F01400102840F0C280079AB9
:1033F00008990B988A18099982180C988A188218CB
:103400000F98824280F2B580821A0A92B1E09DF84C
:103410004200622808D068280ED06A2814D06C2890
:103420001FD0712810D01CE0D9F8001051F8040BFF
:10343000C9F80010C0B21AE0D9F8001051F8040B16
:10344000C9F8001080B212E0D9F80020D21D22F095
:103450000702C9F80020D2E900010832C9F80020AB
:1034600006E0D9F8001051F8040BC9F8001000214B
:10347000CDE902019DF8400001075AD5DDE902239C
:10348000002B08BF002A54D04BF02000782850D1E0
:10349000079812A930220A54401C431C079301F8D4
:1034A00000B046E09DF84200622808D068280ED09F
:1034B0006A2814D06C281FD0712810D01CE0D9F8CD
:1034C000001051F8040BC9F8001040B21AE0D9F806
:1034D000001051F8040BC9F8001000B212E0D9F83E
:1034E0000020D21D22F00702C9F80020D2E9000115
:1034F0000832C9F8002006E0D9F8001051F8040B92
:10350000C9F80010C117CDE90201002902D50798BA
:103510002D210AE0BDF84000810702D507982B2134
:1035200003E0C00705D50798202112AA1154401CBA
:10353000079012A807990144059102A8594600F086
:103540004FF816E001200790D9F8000050F8041B4E
:10355000C9F800008DF848100BE025210122BBF1CD
:10356000000F8DF84810079203D08DF849B0022162
:1035700007910F9A07980A990C9C121A0898521AE8
:103580000B99121A0998521A121A9DF84000141B2E
:1035900041073FF562AA2020002C8DF804007FF738
:1035A0005CAA309E2546012301AA02A9304600F0FC
:1035B000DFF800283FF44DAA4FF0FF3031B0BDE8EE
:1035C000F08F00007072696E74665F733A206261FA
:1035D0006420257320617267756D656E740000004C
:1035E0002DE9FC4307466F293E6908BF082405D032
:1035F00041F02000782814BF0A2410243C25D7E984
:103600000023642918BF69299046994605D1002BEB
:1036100003D5D8F1000869EB4909B9F1000F08BFDB
:10362000B8F1000F0CD1386B50B9082C39D197F88C
:103630003800010735D530203B2586F83B0030E0C7
:103640008DF80010404649462246E31700F0CAFABA
:103650003032D0B26D1E3A28019504DB9DF800008F
:10366000A0F151018A187255404649462246E31797
:1036700000F0B8FA80465FEA010908BFB8F1000F10
:1036800003D0F86871198842DCD3082C09D197F867
:103690003800010705D5705D302802D06D1E30203E
:1036A0007055C5F13C02BA617119F960386B8242FC
:1036B00008DA821A3A624FF6EF70398F0140398783
:1036C000BDE8F38300280ED597F8380000F0140009
:1036D000102808D17B6B7969386A5B1A1B1A9A1A11
:1036E000002AC8BF3A62BDE8F3832DE9D0430646FD
:1036F0000F4614464FF00008DFF8509012E0E00744
:1037000007D542464B463046394600F05DFA06463C
:103710000F464046494642464B4600F055FA641073
:1037200080468946002CEAD130463946BDE8D08330
:1037300002FCFFFFFFFF0F800000E03F0000F07F72
:10374000A08601000000F03F84D79741000024408C
:1037500010B503460C461146A0689847A06020B1FA
:10376000E06A401CE062002010BD4FF0FF3010BD49
:10377000F8B505460E4617461C4600205CB117F802
:10378000011BB068A847B06030B1F06A401CF0621D
:103790000020641EF3D1F2BD4FF0FF30F2BD0000F7
:1037A0007072696E74665F733A20256E2064697367
:1037B000616C6C6F776564007072696E74663A2034
:1037C00062616420256E20617267756D656E74009C
:1037D000000000006E616E004E414E00696E660092
:1037E000494E460030008268521C8260426832B105
:1037F0000268531C036011704168491E41607047A4
:10380000C9B202788A421AB11CBF10F8012FF9E739
:1038100018BF002070477047FEE7FEE7FEE77047DD
:1038200080B500B906A005490B681BB12222002112
:10383000984701E000F0EEFA222002BDF069002472
:10384000636F6E73747261696E742068616E646C0C
:1038500065723A20626164206D657373616765000B
:1038600000F10103810704D010F8011B820781B128
:10387000FAD10268A2F10131914311F0803104BF05
:1038800050F8042FF6E709BAB1FA81F100EBD10044
:10389000401CC01A70472E00C9B2830706D0521EC2
:1038A00022D310F8013B9942F7D11FE0083A13D315
:1038B00002F1040241EA012141EA014150F8043BCE
:1038C000121F21BF4B40A3F1013C2CEA030C1CF05A
:1038D000803FF3D0C9B2001F083210F8013B521EDE
:1038E00028BF91EA030FF8D818BF0120401E704787
:1038F00062B38B0708D0521E11F8013B00F8013B60
:1039000000F024808B07F6D1830740F0208000BFB1
:10391000103A07D330B4B1E83810103AA0E83810A4
:10392000F9D230BC530724BFB1E80810A0E8081052
:1039300044BF51F8043B40F8043BD20724BF31F8A0
:10394000022B20F8022B44BF0B7803707047121F24
:1039500017D35B0009D151F8043B20F8023B1B0C44
:10396000121F20F8023BF6D20BE051F8043B00F89E
:10397000013B1B0A20F8023B1B0C121F00F8013B05
:10398000F3D238BF121D521E24BF11F8013B00F8BC
:10399000013BF8D87047000010B5144600F002F85B
:1039A000226010BDC1F30A5343B14A0012F5001F53
:1039B00028D2A3F2FE32A1EB0251704750EA410C2B
:1039C00020D001F0004C31EA0C01B1FA81F204BFC1
:1039D000B0FA80F3D2180B3AB2F120032CBF00FAF0
:1039E00003F1914041EA0C013EBFC2F1200C20FAE4
:1039F0000CF319439040524240F2FD33D21A01EBCE
:103A000003517047002270474FF4001C1CEB410F1C
:103A100094BF1CEB430F09E041EA030C50EA4C0C45
:103A200052EA0C0C03D2994208BF9042704714BF6F
:103A30008B428242704700004FF4001C1CEB410F88
:103A400094BF1CEB430F09E041EA030C50EA4C0C15
:103A500052EA0C0C03D28B4208BF8242704714BF5B
:103A6000994290427047000041EC100B104600B59F
:103A700000F004F851EC100B00BD0000020030EE25
:103A8000101B40F2FF7C37D41CEA115313D063455E
:103A90006BD09B18634504D201EB025120EE101B42
:103AA000704701F0004141EA0C51002041EC100B3D
:103AB000AFF30080704710EE100B50EA410054D075
:103AC000B2F57F7F08D202EB5C010905002041ECD2
:103AD000110B20EE010B70474FF0FE41002341EC2B
:103AE000113B20EE010BB2F57E7230EE101B4FEA57
:103AF000410342EB5353CDE752421CEA115316D017
:103B0000634532D09A4204D2A1EB025120EE101B41
:103B100070475B1ED21AA1EB035120EE101B372A0F
:103B20000CD3002001F0004141EC100BC0E710EE77
:103B3000100B50EA410018D0372AF2D2C2EB5C02D7
:103B40001105002041EC110BF1EE100A20F01F01CD
:103B500021F4F851E1EE101A20EE010BF1EE101AEB
:103B6000E1EE100A11F0080FA2D1704741EC100BE2
:103B7000BDEEC00B10EE100A704700EE100AB8EE52
:103B8000C00B51EC100B704741EC100B43EC112BA8
:103B900030EE410B51EC100B704741EC100B43EC35
:103BA000112B80EE010B51EC100B704741EC100B08
:103BB000BCEEC00B10EE100A704700EE100AB8EE13
:103BC000400B51EC100B704741EC100B43EC112BE8
:103BD00020EE010B51EC100B7047000000487047BD
:103BE000E4040024BBBBE1B1B2F5803F80F07E80ED
:103BF000022A1ED98C46B1FBF2F102FB11C31B0451
:103C000043EA1043B3FBF2FC02FB1C3380B240EAF0
:103C10000343B3FBF2F002FB103240EA0C400023F6
:103C20007047022A05D98446B0FBF2F002FB10C2AD
:103C300070474AB105D100F0010249085FEA30003F
:103C4000704700220023704700F0E8B80B00020024
:103C5000002100207047904271EB030CF6D3B3F5BE
:103C6000803F2FD2F0B5B3FA83F7B1FA81F4A7F110
:103C70000F0E3D1B5340CEF1200602FA0EF2F34127
:103C80005340B5F10F0746D80F3C2C444140C4F1D6
:103C90002006A040F1414140B1FBF3F603FB1611B1
:103CA000A2FB0645001BA94102D2761E801859418D
:103CB00080EA010221FA0EF362FA0EF200215A4064
:103CC0003046F0BD30B4B1FBF3FC03FB1C11A2FB8A
:103CD0000C45001BA94103D2ACF1010C80185941DD
:103CE00030BC02460B46604600217047B2F1807F2F
:103CF00065D3F0B5B2FA82F7B1FA81F4C7F10F06D5
:103D00003D1B22FA06F307F1110EF24120355A400D
:103D1000B5F10F07B8D94140C4F12006A040F141E8
:103D20004140B1FBF3FC03FB1C11A2FB0C45001B43
:103D3000A94103D2BCF1010C801859410F2F12D3B5
:103D40000F3FC90341EA5041B1FBF3F603FB1611E3
:103D5000A2FB0645D4EBC030A94102D2761E8018E2
:103D6000594146EACC3C07B34140C7F12006B84070
:103D7000F1414140B1FBF3F603FB1611A2FB0645EE
:103D8000001BA94102D2761E8018594180EA010227
:103D900021FA0EF3C7F1200462FA0EF20CFA07F0D2
:103DA0005A402CFA04F13043F0BD80EA010221FAB6
:103DB0000EF3002162FA0EF260465A40F0BD8C46C6
:103DC000B1FBF2F102FB11C31B0243EA1063B3FB28
:103DD000F2FC02FB1C331B024CEA002043EA106396
:103DE000B3FBF2FC02FB1C331B024CEA002043EA4B
:103DF0001063B3FBF2FC02FB1C331B024CEA0020F5
:103E000043EA1063B3FBF2FC02FB1C324CEA0020D5
:103E100000237047012000F003B800007047000045
:103E200080B5AFF30080024A11001820ABBEFBE75B
:103E30002600020010B5040014D0D4F8801021B977
:103E4000002284F87C2000F01FFB2421C4F880109D
:103E500020680268520852000260204600F01EF8F6
:103E6000012801D1012010BDA06A10B1204600F048
:103E70000DFA2068416821F4904141602068826811
:103E800022F02A0282602068016841F0010101608D
:103E90002046BDE8104000F05FBA0000F0B587B0E2
:103EA00004462268DFF8903500251668A06821696D
:103EB0001E4063690643E0690E43616E1E4306437C
:103EC0000E4316605368E06823F440530343DFF861
:103ED0006C055360DFF85C359A42A6691CBF216A05
:103EE0000E43976807403E439660D16A606ADFF8E8
:103EF00050650909B24240EA0111D16240D1DFF8B0
:103F00004415486D10F0380000F0A280082800F039
:103F1000E580102845D0182857D0202800F06A8066
:103F2000282800F07E8080209A4240F00B810228F1
:103F30000FD0042800F0D480082800F0D680102884
:103F400000F0D880202800F0E280402800F0E280D5
:103F50008FE1FDF7CDFC002800F08C81626A0FF242
:103F6000105131F81230626802EB4201B0FBF3F6F7
:103F70008E42C0F07E811703B74280F0CE8078E198
:103F8000DFF8C40482420ED1DFF8B8144E6D06F09B
:103F90000706052EC7D8DFE806F089A104182D44CE
:103FA000C1E70820C0E7DFF8A40482420FD1DFF8A0
:103FB00094144E6D06F00706052EB4D8DFE806F01F
:103FC000768E04051A31AEE7EBE71020ACE7DFF898
:103FD0008004824210D1DFF86C144E6D06F00706A3
:103FE000052EA0D8DFE806F0627A0504061D9AE7E0
:103FF000EBE7D6E7202097E7DFF85804824212D19A
:10400000DFF840144E6D06F00706052E3FF68BAF25
:10401000DFE806F04C640605040784E7EAE7D4E726
:10402000BFE7402080E7DFF83004824212D1DFF89A
:1040300014144E6D16F038060AD0082E4ED0102EED
:10404000AFD0182EC1D0202ED4D0282EE9D06AE7C8
:10405000012069E7DFF80404824211D1DFF8E4139C
:104060004E6D06F00706052E3FF65DAFDFE806F061
:104070001E360706050456E7D3E7BBE7A5E790E73A
:10408000DFF8DC03824213D1DFF8B8134E6D06F07F
:104090000706052E3FF647AFDFE806F008200706C3
:1040A000050440E7BDE7A5E78FE77AE700203BE797
:1040B0009A427FF438AFDFF88C03816D01F007017D
:1040C00005293FF630AFDFE801F0080907060504CF
:1040D00029E7A6E78EE778E763E73AE7042023E7D6
:1040E00003A8FDF717FC049835E76846FDF7B2FC16
:1040F000019830E7DFF84C13DFF868030A6893068D
:104100007FF52CAF0968C1F3C101C84023E7DFF890
:10411000580323E74FF4004020E75008002110EB3C
:104120000620DFF8487351EB16610023FFF75AFDB4
:10413000A0F54076BE4280F09C80D4F800C0CCF858
:104140000C0097E0E169B1F5004F4CD160B1012856
:104150002AD004282BD008282ED0102831D020288F
:104160003BD040283CD084E0FDF784FF002800F0DD
:104170008180636A0FF2F822616832F81360B0FB45
:10418000F6F04A0802EB4002B2FBF1F080B24FF6C3
:10419000F071A0F110038B426BD20140C0F34200DA
:1041A00001432068C16065E0FDF773FFDEE703A807
:1041B000FDF7B0FB0498D9E76846FDF74BFC019882
:1041C000D4E7DFF88012DFF89C020A689306D0D5A6
:1041D0000968C1F3C101C840C8E7DFF88C02C8E72D
:1041E0004FF40040C5E760B1012823D0042824D053
:1041F000082827D010282AD0202834D0402835D0AD
:1042000037E0FDF737FFA8B3636A0FF264226168F5
:1042100032F813604FF6F072B0FBF6F000EB51008D
:10422000B0FBF1F080B2A0F11001914221D22368DD
:10423000D8601FE0FDF72DFFE5E703A8FDF76AFB57
:104240000498E0E76846FDF705FC0198DBE7DFF836
:10425000F411DFF810020A689306D5D50968C1F396
:10426000C101C840CFE7DFF80002CDE74FF40040BE
:10427000CAE7012501200022A4F86A00A4F868001A
:104280002846E266226707B0F0BD000090F82810CB
:10429000CA0706D502685368C16A23F400330B438A
:1042A000536090F82820910706D502685368016B87
:1042B00023F480330B43536090F82820510706D530
:1042C00002685368416B23F480230B43536090F8DA
:1042D0002820110706D502685368816B23F4004338
:1042E0000B43536090F82820D10606D502689368E6
:1042F000C16B23F480530B43936090F82820910600
:1043000006D502689368016C23F400530B43936055
:1043100090F82820510613D502685368416C23F4A5
:1043200080130B435360436CB3F5801F08D1D2F860
:1043300004C0816C2CF4C00C41EA0C0CC2F804C01F
:1043400090F82820110606D501684A68C06C22F44E
:10435000002202434A60704730B5044681B0002015
:10436000C4F88800FDF7A8FC216805460A68100714
:104370003ED52368D96988023AD4FDF79DFC401BDD
:10438000B0F1007F206801681FD24A07F1D50346CB
:10439000D8690105EDD54FF400621A622068016802
:1043A00021F4D07101602068826852085200826056
:1043B0002020C4F88000C4F88400C4F888000020DD
:1043C00084F87C00032001B030BD21F4D07101607D
:1043D000206882685208520082602020C4F8800061
:1043E0000022C4F88400032084F87C2001B030BD92
:1043F000206801684A0712D52368D86941020ED4A3
:10440000FDF75AFC401BB0F1007F20680168DCD248
:104410004A07F1D50346D8690105EDD5BBE7202051
:104420000022C4F88000C4F88400002084F87C20B6
:1044300001B030BD000C0058F369FFCFFFF4FF114D
:104440000010014000440258004400400048004071
:10445000004C004000500040001401400078004033
:10446000007C00400090D00300093D0000FD0F00DB
:10447000010002000400060008000A000C00100001
:1044800020004000800000017047000000B581B0AE
:1044900000F00EFA00F08EFB00F094FBFEE7000047
:1044A000F0B587B00225C44CB4200121002206904B
:1044B0004FF48057059104F5906C04920023039506
:1044C0000FF27502CDF80850BEA1019704F1140057
:1044D000CDF800C04FF4806600F098FBB4230122B1
:1044E000069300211E2004F5914305920FF2152238
:1044F000CDF81010B7A10390029004F566700093F8
:104500000023019600F082FBB420012106900022D6
:104510001F2304F589400591B2A104920FF24522B0
:10452000039302930023009004F53970019600F084
:104530006DFB07B0F0BD000050B587B09E4C002168
:10454000022021704FF4805600F008FC0022642005
:10455000626000F003FC60680121E060217000F0FF
:1045600033FC00F007FBB420012106900022032356
:1045700004F5A450CDF81410B7A104920FF28902EB
:10458000039302930023009004F1C800019600F009
:104590003DFBB420012106900022042304F5525073
:1045A000CDF81410AFA104920FF26D0203930293A1
:1045B0000023009004F50C70019600F027FBB42056
:1045C000012106900022052304F51250CDF81410A5
:1045D000A8A104920FF215120393029300230090F6
:1045E00004F5BE70019600F011FB34235FF0000269
:1045F000A4A104F24C4000F0EFFB00BF00F0B7FCB8
:10460000012000F0ABFBF9E700B581B04FF4FA7080
:1046100000F0A4FBFAE700002DE9F04782B00FF2AA
:10462000742A664C0FF2CC1578A6DFF88C910FF245
:10463000F41815E0404600F09FF809F5BE7000F050
:104640001FFD09F5BE7000F031FD02E0304600F0BC
:1046500093F809F5BE7000F04FFD142000F07EFBCA
:1046600000F0F7FD0028F8D0012806D0042835D046
:104670000728EBD01628DDD0EFE7204609F1140714
:1046800000F07AF899ED020A5046B7EEC00A53ECF2
:10469000102B00F071F8204600F06EF804F1440091
:1046A00000F06AF804F1800000F066F8002FD4D022
:1046B0003B69B86A0190D7F8A81004F1BC00591AF8
:1046C0000091BA68F96A9B1A7A6900F055F8D7F830
:1046D000887009F114008742E8D1BEE7284600F04F
:1046E0004BF809F5BE7000F0BDFEB6E700B581B02D
:1046F00052A000F041F8022000F0D9FE642000F042
:104700002DFBF8E730B581B02B4C2DED028B02E08C
:10471000C82000F023FB20780028F9D0E168284B5E
:104720009FED238AA1FB0332900904BF0025A560F9
:10473000642141436160E06094ED010A0020606003
:1047400094ED031AF8EE400A6420B8EE411A80EEA8
:10475000811A38EE411A84ED021A84ED040A00F041
:10476000FDFAE9E71448EFF3108172B64268521C73
:10477000426081F31088F8E70EB410B5B3B002467A
:1047800035ABC92168460C4C00F0B4FE4FF0FF3148
:1047900004F24C4000F0CCFE694606A000F0FCFE9E
:1047A00004F24C4000F00CFF33B010BC5DF810FB7D
:1047B0000000C84225730000680500246C790008D9
:1047C0003E0AD7A3417070205461736B205374610B
:1047D00072740000417070205461736B2053544117
:1047E00054000000417070205461736B2049444CA8
:1047F000450000004170705461736B434F4DC8CE4B
:10480000CEF1B9D2C6F00D0A00000000417070541C
:1048100061736B434F4DC8CECEF1BBD6B8B40D0A11
:10482000000000004170705461736B434F4DC8CE5F
:10483000CEF1B8B4CEBB0D0A000000004170705438
:1048400061736B436F6DC8CECEF1BFAACABCD6B43C
:10485000D0D00D0A00000000417070204D73702010
:1048600050726F00417070205461736B20557365F6
:1048700072494600417070205461736B20434F4D64
:10488000000000004170705072696E746653656D6F
:10489000700000004F5320435055205573616765E9
:1048A000203D2025352E326625250D0A000000000A
:1048B000F0B59DB0FDF765FF01214FF010528DF866
:1048C00000100321019200228DF80B1000218DF8B9
:1048D0000D20122301228DF80830ADF80E10684625
:1048E0008DF801108DF80A208DF809108DF80C1044
:1048F000FDF75EFF01214FF0C0428DF8001003214B
:10490000019201228DF80B1000218DF80F2000225A
:104910008DF80E100F2301218DF808308DF80D2031
:1049200068468DF801108DF80A208DF809208DF861
:104930000C20FDF73DFF0420FDF72DFF8A4A10688B
:10494000810312D4BFF34F8FBFF36F8F0023C2F8E0
:104950003C32BFF34F8FBFF36F8F106840F40030CD
:104960001060BFF34F8FBFF36F8F1168CB0345D437
:1049700000201067BFF34F8FD2F86C30C3F34E3472
:1049800043F6E076C3F3C90006EA4416451E46EA3C
:104990008071C2F84C1218B310F0030100F00780C8
:1049A00046EA85776D1E491EC2F84C72F8D1800820
:1049B00000F0168046EA85716D1EC2F84C1246EA78
:1049C00085776D1EC2F84C7246EA85716D1EC2F87D
:1049D0004C1246EA85776D1E401EC2F84C72E9D132
:1049E0002046441E0028CBD1BFF34F8F106840F4FF
:1049F00080301060BFF34F8FBFF36F8FFDF71CFE49
:104A000001A800210022002300241EC01EC04C214A
:104A1000564C00F0F1FDD4F80C04002120F0040005
:104A2000C4F80C0452480091026852085200026017
:104A3000006800F001000090D4F8181441F44041DF
:104A4000C4F81814D4F8180400F4404000900099F9
:104A5000D4F818048204FBD5002201210C924FF4F3
:104A6000803310920222129209A813920522149206
:104A700002220991A0211692189204221591002178
:104A8000179208220A931A911992FDF72FFB00B191
:104A9000FEE73F2103220191082102924022049166
:104AA00040210592002306914FF480620891042171
:104AB000039301A80792FDF723F900B1FEE72068F0
:104AC00040F080002060D4F8F41041F00201C4F8F6
:104AD000F410D4F8F40000F0020000900099FDF703
:104AE000DAFDD4F8DC000023002240F00050C4F8C6
:104AF000DC00D4F8DC1001F0005100910098D4F8EB
:104B0000DC1041F08041C4F8DC10D4F8DC0000F087
:104B1000804000900099D4F8DC0040F00040C4F8D8
:104B2000DC00D4F8DC1001F0004100910098D4F8CA
:104B3000A81041F08051C4F8A810D4F8A8000021B2
:104B400040F00050C4F8A8000020009115A100F02A
:104B500031FE0020002300905FF0000213A100F05E
:104B600055FE1DB0F0BD000014ED00E000440258F9
:104B70002C04005800B581B000F084FE00F0C8FAA3
:104B800000F092FE01F092F800F078FC01B05DF8C0
:104B900004EB00F091B901B97047FEE700F070BB7B
:104BA0007047000052545455500000005254544471
:104BB0004F574E000248016821F002010160704722
:104BC00010E000E030B581B00D4D28684FF0F034B2
:104BD00010F10F3F08D02C6001F03EF901F076F99A
:104BE00008480168491C01602C6007480068FFF70D
:104BF00057FC0021296001B0BDE8304001F07EB9CA
:104C0000E00400246C680024E86900242DE9F04FDA
:104C100080460024B8F1000F87B08A4616469946B0
:104C200042D01698B4283FD1119F109DEFF3108009
:104C300072B644490A68521C0A6080F310884248E0
:104C4000DFF808E1D0F800B0DEF8000005EB070C53
:104C50000023ACF10102D8B10092D84518D0BBB9FD
:104C6000DBF80C20954205D3DBF810E075453CBF1E
:104C700000250123DDF800C0944505D3DBF810E0E2
:104C8000F4453CBF00250123401EDBF888B0E4D189
:104C9000EFF3108072B60A68521E0A6080F3108823
:104CA00001F094F9D84504D10E24204607B0BDE8A0
:104CB000F08F15B13246100004D10324204607B00E
:104CC000BDE8F08FC82F38BF052436D3DDF848C0C3
:104CD000BCF1200F28BF0F242FD2DDF84CE0F445A3
:104CE00038BF182429D3159E012E88BF102424D83C
:104CF0001748184B01689942174B186808BF1324CE
:104D0000EFF30581084308D01968EFF305800143EC
:104D1000B1F1F03F38BF13240FD374B9059614983E
:104D200004904B46CDF80CE05146CDF808C0404603
:104D30000197009501F0A4F90446204607B0BDE8AC
:104D4000F08F00BF6C680024606800246468002451
:104D500058680024F4620024E004002470B5EFF3E6
:104D6000108372B614490C687CB1144A1168EFF3D1
:104D70000582114309D112498C4206D010B983F340
:104D8000108870BD0F4A116819B183F31088132081
:104D900070BD0425012100262563A163C4F8846049
:104DA000E0641068401C106083F31088204601F016
:104DB00013FAD4F8840070BD58680024E00400247D
:104DC000F46200246C6800240248016841F002018A
:104DD0000160704710E000E02DE9F041044688468C
:104DE000164600259CB3342B31D1EFF3108072B6F8
:104DF0002B4A1168491C116080F3108829482A4BFE
:104E000007681868B8B110F0030104D0BC4212D092
:104E1000491E3F6AFAD180080DD0BC421CBF3F6AD0
:104E2000BC421CBF3F6ABC4205D03F6ABC4202D0B4
:104E3000401E3F6AF1D1EFF3108072B61168491E2F
:104E4000116080F3108801F0C1F8BC4203D11C2529
:104E50002846BDE8F081012E1CBF002E1F251BD166
:104E60001248134A01689142124A106808BF13257C
:104E7000EFF30581084308D01168EFF30580014383
:104E8000B1F1F03F38BF132506D32DB93246414664
:104E9000204601F0CDFA05462846BDE8F08100BF66
:104EA0006C680024A8690024AC69002458680024B8
:104EB000F4620024E004002470B594B0DFF8A4018B
:104EC000002101254160DFF8A04181604C22417042
:104ED00001700161416141730173C16101624176F9
:104EE00001768162C16280F8251080F82410214685
:104EF00080F8315001A8FEF70BFDDFF87001DFF8F4
:104F0000703106684FF0804246F001060660056881
:104F1000DFF8606101A805F00105009500991D68A2
:104F200001924FF0FF3304936D08A5FB0661C90C95
:104F30004A1E92B2002102928022059103910691AD
:104F4000079201F0A5FA28B140F2362104F14C0095
:104F5000FFF721FE022200211C20FDF7DAFB1C20B6
:104F6000FDF704FC01A801F0C3FA14B070BD10B540
:104F70003C4C606B30B1606B401E606304BF01202D
:104F800084F8300022460421506850B15068401E19
:104F9000506001BF012050701378012B04BF90684E
:104FA00050600C32491EEFD1A06B6FF00042401CE4
:104FB000A063A16B914204BF0020A063FFF7F0FD46
:104FC00094F83200401C84F83200C0B20A2806DB94
:104FD000002084F83200BDE81040FFF7DFBD10BDAF
:104FE00010B5254C6168206889070AD5800708D567
:104FF0004FF6FD70214A606021680840206010680B
:1050000080476168206849070AD5400708D54FF6F0
:10501000FB701A4A60602168084020605068804731
:105020006168206809070AD5000708D54FF6F770B0
:10503000124A60602168084020609068804761687B
:105040002068C9060CD5C0060AD54FF6EF700B4A8A
:105050006060216808402060D068BDE810400047CB
:1050600010BD000054690024787D0008E84402580F
:10507000D804002406BD37860C000040C069002417
:1050800018B10168074A914201D00E207047064BC3
:105090001968EFF30582114308BF01F0B9BA132074
:1050A000704700BF44524854E004002410B500216A
:1050B00018B102680C4B9A4202D00E21084610BD6E
:1050C0000A4C0B4B22680B4C9A42226808BF1321F2
:1050D000EFF305831A4318BF132103D111B901F06F
:1050E00035FB0146084610BD445248545868002418
:1050F000F4620024E004002418B10168034A9142DC
:1051000001D00E20704701F053BB00BF44524854F9
:10511000DFF82813002030B581F8AA00002381F8B9
:10512000AB0087B081F8AC300A460A200025642421
:105130000223148113719572D57215731032401EBB
:10514000F5D1642006220887DFF8F442A1F8480070
:10515000A1F85800A1F86800DFF8E80281F83B20C8
:1051600081F83C5081F84B2081F84C5081F85B204D
:1051700081F85C5081F86B2081F86C50016841F037
:1051800002010160026802F00202059205990368BB
:1051900043F004030360026802F0040205920599DB
:1051A000036843F040030360026802F04002059286
:1051B0000599036843F080030360026802F08002EF
:1051C00005920599036843F4807303600268032322
:1051D000204602F48072059205994FF48072019581
:1051E000029569460393DFF86052009201F016FBC6
:1051F0004FF4005269460092DFF8500201F00EFBB6
:10520000102069460090DFF8480201F007FB0420F7
:1052100069460090284601F001FB01206946009094
:10522000DFF8300201F0FAFA0820694600902846BB
:1052300001F0F4FA802128460091694601F0EEFA67
:105240004FF4006269460092204601F0E7FA07B089
:1052500030BDDFF8E81191F8AA2091F8AB00824246
:1052600001D1002070478818521C90F8A00081F8E6
:10527000AA20D2B20A2AA4BF002281F8AA2070472D
:105280002DE9F04F6D4900254FF0010B0F46DFF877
:10529000C821DFF8C8314FF0FF0AE8B208282ADA3F
:1052A0004FF0000ED046F1466D48046826698488A8
:1052B0002640741E8679A441E443E40FB44204BF3F
:1052C0000EF1010EC84609F101090830B9F1080FC5
:1052D000EBDB5FFA8EFEBEF1010F02BF5FFA88F8CA
:1052E0005FFA85FCE04521D038790628844677DBD3
:1052F0000520387192E00AD1D2F800045FEAC05C60
:105300005CBFD3F800E05FEA8E40EDD40EE05FFAB8
:1053100085FCBCF1090FE7D1D3F800C05FEA8C40EF
:105320005CBFD2F800E05FEACE6CDDD438790428A7
:10533000D8BF052002DD0A2802DA401C387173E06C
:10534000B87AA0B94FF0010C01F1A00E87F80AC09D
:1053500091F8AB000EF800B091F8AB00401C81F85A
:10536000AB00C0B20A28A4BF002081F8AB00388986
:10537000002859D0B7F806C0844510D20CF1010CB2
:10538000A7F806C01FFA8CFC84454DD191F8ABE01C
:105390000BF1020001F1A00C0CF80E0014E0F87AF9
:1053A000002841D097F80CC00CF1010C87F80CC014
:1053B0005FFA8CFC844537D3002001F1A00C3873D0
:1053C00091F8ABE00CF80EB091F8AB00401C81F8FE
:1053D000AB00C0B20A2827DB002081F8AB0023E035
:1053E00020B1A0F1010C87F804C017E0B87A0128B9
:1053F00014D187F80AC091F8AB800BF1010E01F1CE
:10540000A00000F808E091F8AB00401C81F8AB0068
:10541000C0B20A28A4BF002081F8AB004FF0000CF6
:10542000A7F806C087F80CC06D1C10370A2D0BF1C9
:10543000030BFFF632AFBDE8F08F0000A867002431
:1054400000200258E0440258001802580008025890
:10545000001C025800040258101C02581008025880
:10546000907E000818B10168034A914201D00E20D5
:10547000704701F0EBBA00BF4452485400B581B008
:1054800001214FF4807000F0BEFC01214FF4007048
:1054900000F0B9FC01214FF4806000F0B4FC01B0D1
:1054A00001214FF400605DF804EB00F0ACBC012872
:1054B00010B509D14FF48074204600F0B1FC0028EB
:1054C00014BF002101210EE0022808BF4FF4007430
:1054D000F2D0032808BF4FF48064EDD0042807D130
:1054E0004FF40064E8E72046BDE8104000F08BBCB4
:1054F00010BD000008B584B00023039300290EBF3F
:1055000001930190491E0291009301A904AB074841
:1055100078441830FDF786F9019909B100220A7024
:10552000002858BF039805B000BD00BFBBE2FFFFD5
:1055300030B418B10268144B9A4202D01C2030BC1F
:105540007047124C61B12268EFF305831A4304D10E
:105550000F4A104D1368AB4202D1042030BC704793
:105560002268EFF305831A4308D02368EFF305821E
:105570001343B3F1F03F38BF132002D330BC01F026
:105580009FBA30BC704700BF4554554DE00400241D
:1055900058680024F46200240EB4C0B5024603A883
:1055A00000210190009101AB0121044878440C30A6
:1055B000FDF738F906BC5DF810FB00BF432A000078
:1055C00018B101680A4A914201D01C207047094B6A
:1055D0001968EFF30582114308D01A68EFF30581CB
:1055E0000A43B2F1F03F01D21320704701F0FABA3A
:1055F0004554554DE0040024002201F0DBBB0000BF
:1056000030B581B0DFF86442032004F1BC022061B0
:105610004FF4806160610FF25820A0610023E261C5
:1056200010222162E51DA3626362E362206604F238
:10563000BC406066A2662367E366636738A31868A8
:105640002860BFF35F8F07220FF230212046FEF75C
:105650004FF9BFF35F8F2023A371BFF35F8F01B0BA
:1056600030BD00002DE9F04381B005468846144660
:105670004FF00009EE682F69A8684146801BBE42C2
:1056800034BFBF1B3F187F1E874228BF0746A74273
:10569000686888BF27463A46E41B8019BE19FEF7A2
:1056A00027F9A968B944B8448E4208BF0026BFF361
:1056B0005F8F002CEE60DED1484601B0BDE8F0837C
:1056C0002DE9F04104461646E768A56860688846FB
:1056D000ED1BAE42384407D2FEF70AF9BFF35F8FE5
:1056E000F619E660BDE8F0812A46761BFEF700F960
:1056F0006068324608EB0501FEF7FAF8BFF35F8FEA
:10570000E660BDE8F08101460869CA68824204D3B8
:105710008968491E8A1A80187047801A401E70478F
:105720005254540070B50C461546DFF8401100EB9A
:10573000400201EBC20000F1180673691BB1022B95
:1057400014D006D31AE03046FFF7DDFFA84206D298
:1057500014E03046FFF7D7FFA84298BF05462A4617
:1057600021463046FFF7ACFF284670BD2A46214649
:105770003046FFF777FF0546284670BD00252846CE
:1057800070BDF0B50D4681B00446DFF8E010087832
:10579000164608B9FFF734FFEFF31187202181F394
:1057A0001188324629462046FFF7BCFF87F311884F
:1057B00001B0F0BD2DE9F0410446DFF8B08098F863
:1057C00000000D4616461F4608B9FFF719FF032CC7
:1057D00017D2EFF31181202080F3118804EB4402EB
:1057E00008EBC20218322CB1156000205660976099
:1057F0001061D0600698506181F311880020BDE8E7
:10580000F0814FF0FF30BDE8F08100002DE9F0415C
:105810000446DFF8588098F800000D4616461F46EB
:1058200008B9FFF7EDFE032C1BD2EFF31181202006
:1058300080F3118804EB440208EBC2026032002CB2
:1058400006D0156000205660002397601061D36079
:1058500006985061BFF35F8F81F311880020BDE887
:10586000F0814FF0FF30BDE8F0810000000000241F
:105870005465726D696E616C0000000053454747C6
:105880004552000006480022016841F08071016025
:1058900004484260036843F001030360704700005E
:1058A000FCED00E0001000E02DE9F041DFF8D80346
:1058B0004FF4806500F15801DFF8D043416000F5F6
:1058C0008B62D8B082600460002185810023C5818D
:1058D000DFF8BC63018200F6580241820127C382CF
:1058E000DFF8B083018341838382C161016280F864
:1058F000281000F658414362C66202630FF2152277
:1059000041630FF21D21058745878387C387A0F870
:105910004230A0F84430A0F84630A0F840300FF2F2
:105920000D2382640022C164036580F8542028A8F6
:105930002897DFF864734692FAF7AEFC39684FF4A3
:10594000007341F001013960386800F001000590F2
:1059500005993A6842F001023A60386800F00100A7
:1059600005900599386940F0100038613969404662
:1059700001F010010591059A022100930191012285
:1059800002920321039107220492694600F046FF28
:1059900007210095049169464046DFF8008300F036
:1059A0003DFF002204212520FCF7B3FE2520FCF753
:1059B000DDFE05A841468C22FDF7AAFF4FF4E13138
:1059C000002206910021079205A809920C22059455
:1059D00008910B910A920C910D910F91FEF72AFA02
:1059E00028B140F2263108F18C00FFF7D4F8206A84
:1059F000012340F040002062A16941F00801A1614B
:105A0000206840F0200020603A68DFF8944242F0BD
:105A100002023A60396801F00201059105983A687E
:105A200042F002023A60396801F0020105910598DE
:105A3000B968204641F48021B960BA6802F4802236
:105A400005920599022200950192032103910722F4
:105A500002936946049200F0E1FE4FF400610722D0
:105A6000009169460492204600F0D8FE03220421EA
:105A70002720FCF74EFE2720FCF778FE05A84146BC
:105A80008C22FDF745FF4FF41651002206910021AC
:105A9000079205A809920C22059608910B910A928B
:105AA0000C910D910F91FEF7C5F928B140F2263106
:105AB00008F18C00FFF76FF8306A40F04000306268
:105AC000B16941F00801B161306840F020003060F8
:105AD00000F003F858B0BDE8F08100B587B0DFF8FA
