:020000040800F2
:1000000030380124AD0200089F3E0008D5000108E9
:100010009D3E00089D0E0008815800080000000069
:10002000000000000000000000000000274A000857
:100030007D0F000800000000AD0300086303000806
:10004000C7020008C7020008C7020008C70200086C
:10005000C7020008C7020008C7020008C70200085C
:10006000C7020008C7020008C7020008C70200084C
:10007000C7020008C7020008C7020008C70200083C
:10008000C7020008C7020008C7020008C70200082C
:10009000C7020008C7020008C7020008C70200081C
:1000A000C7020008C7020008C7020008C70200080C
:1000B000C7020008C7020008C7020008C7020008FC
:1000C000C7020008C7020008C7020008C7020008EC
:1000D000C702000869570008C702000871570008E6
:1000E000C7020008C702000800000000C70200089D
:1000F000C7020008C7020008C7020008C7020008BC
:10010000C7020008C7020008C7020008C7020008AB
:10011000C7020008C7020008C7020008C70200089B
:10012000C7020008C7020008C7020008C70200088B
:10013000C702000869100008C7020008C7020008CB
:1001400000000000000000000000000000000000AF
:10015000C7020008C7020008C7020008C70200085B
:10016000C7020008C7020008C7020008C70200084B
:10017000C7020008C7020008C7020008000000000C
:10018000C7020008C7020008C7020008C70200082B
:10019000C7020008C7020008C7020008C70200081B
:1001A000913E0008C7020008C7020008C702000805
:1001B000C7020008C7020008C7020008C7020008FB
:1001C000C7020008C7020008C7020008C7020008EB
:1001D000C7020008C7020008C7020008C7020008DB
:1001E000C7020008C7020008C7020008C7020008CB
:1001F000C7020008C7020008C7020008C7020008BB
:10020000C7020008C7020008C7020008C7020008AA
:10021000C7020008C7020008C7020008C70200089A
:10022000C7020008C7020008C7020008000000005B
:10023000C7020008C702000800000000C70200084B
:10024000C7020008C7020008C7020008C70200086A
:10025000C7020008C7020008C7020008C70200085A
:10026000C7020008C7020008C7020008C70200084A
:10027000C7020008C7020008C7020008000000000B
:10028000C7020008C7020008C702000800000000FB
:1002900000000000C7020008DFF80CD000F0CEFB21
:1002A00000480047C5F90008303801240648804757
:1002B00006480047FEE7FEE7FEE7FEE7FEE7FEE74B
:1002C000FEE7FEE7FEE7FEE7994A0008990200080C
:1002D000407300243038012400000008C473002457
:1002E000001000E0FF5207000000FF4000BF00BF09
:1002F00072B65FF824005FF8241001F10401016078
:100300004FF0E0205FF83010C0F8081D5FF83400AF
:100310005FF83C10096801605FF83C00016841F03B
:10032000010101604FF0E0205FF8481041614FF09B
:10033000070101614FF00001C0F8181D4FF07F4127
:10034000C0F81C1D5FF86010C0F8201D7047FFF753
:10035000FEBFFFF7FEBFFFF7FEBF01B5BDE80140DE
:10036000704701B500F094F8BDE801407047FFF711
:10037000FEBFFFF7FEBF000000000000000000000D
:100380004FF000002B4A1060EFF3148020F00400BF
:1003900080F3148862B64FF080504FF0E021C1F82E
:1003A000040DBFF34F8FBFF36F8FFEE72248234A40
:1003B0004FF00003016891B10360EFF3098C2CE961
:1003C000F00F1EF0100F01D12CED108A1C4C4CF8D0
:1003D00004ED2568C1F808C00DB18D61236072B6C7
:1003E0001168B1B1016062B64F68154C8D6907F1B3
:1003F00001074F602560D1F808C05CF804EB1EF0DF
:10040000100F01D1BCEC108ABCE8F00F8CF3098806
:10041000704772B61168016009B962B6F9E74FF02A
:1004200000674FF0E028C8F8047D62B6DCE770474B
:1004300070470000B80300249C030024A00300249C
:10044000CC030024000000000000000000000000B9
:10045000026922F00702A2F144026FF00203136066
:100460004FF0000353609360D36013615361936155
:10047000D361136253629362D362136353634FF089
:10048000FF339363D1634FF08073136482607047CE
:100490002649086800F101000860254B1A68002A07
:1004A00008D0A2F101021A60002A03D1214B4FF0BB
:1004B00001001860204908680268002A04D01F4B18
:1004C0004FF001021A6008E000F104001C4B1A68AA
:1004D000904201D11B4B18680860164B1A68002A1D
:1004E00003D11649086800281CD02DE901401349A2
:1004F0000868002801D00EF019F90E4B1A68002A7E
:100500000ED00EF01BF81048016849B90F48016879
:100510000F4A13680F484FF08052994200D0026092
:10052000BDE80140BFF34F8F70470000C8030024AF
:10053000CC030024D0030024E0030024D4030024CF
:10054000E4030024DC030024B80300249C030024FB
:10055000A003002404ED00E02DE9F05F0546002033
:1005600092469B4688460646814640241BE0284624
:1005700041464746224600F098F853465A46C01A6C
:10058000914110D311461846224600F07FF82D1AEB
:1005900067EB01084F4622460120002100F076F863
:1005A00017EB00094E41201EA4F10104DFDC484690
:1005B00031462A464346BDE8F09F00000649074AF7
:1005C0000868504343F239021044086040087047FD
:1005D0000149086070470000000000246D4EC641CC
:1005E00010B5441A0346944209D28318114403E01B
:1005F00011F8014D03F8014D521EF9D210BD40EA29
:100600000104A40703D009E010C9121F10C3042A73
:10061000FAD203E011F8014B03F8014B521EF9D254
:1006200010BDD2B201E000F8012B491EFBD2704789
:100630000022F6E710B513460A4604461946FFF7AE
:10064000F0FF204610BD30B504460020034600E010
:100650005B1C934203D2E05CCD5C401BF8D030BD04
:1006600030B50B46014600202022012409E021FA82
:1006700002F59D4205D303FA02F5491B04FA02F57F
:100680002844151EA2F10102F1DC30BD202A04DB52
:10069000203A00FA02F1002070479140C2F1200395
:1006A00020FA03F3194390407047202A04DB203AD4
:1006B00021FA02F00021704721FA02F3D040C2F182
:1006C000200291400843194670472DE9FE4F8046AD
:1006D00081EA0300C00F0C46009021F0004123F096
:1006E0000045B8EB0200A94105D24046214690469C
:1006F0001C460B46024623F00040104347D0270D0E
:10070000C7F30A00C3F30A510290401A019040282F
:100710006BDAC3F3130040F4801B0098924620B1BB
:100720000023D2EB030A63EB0B0B01985946C0F18F
:1007300040025046FFF7AAFF06460D46504659466E
:10074000019A00F093F910EB08006141002487EA58
:10075000115284EAE7731A4340D0009A62B3019AB7
:10076000012A4FEA075215DC001B61EB02014FF032
:10077000004202EA0752CDE90042001C41F5801117
:1007800032462B4600F093F903B0BDE8F08F4046A7
:100790002146F9E7001B61EB0201001C41F58013C3
:1007A00000185B412018A2F5001747EB030140EA4F
:1007B000D570B6196D4111E06D084FEA360645EA6D
:1007C000C0754FEA0752001B61EB0201001C41F5A6
:1007D000801149084FEA30000019514132462B463A
:1007E00003B0BDE8F04F00F053B90098012240007B
:1007F0000023D0EB020263EBE073009821464FEA3E
:10080000E074B8EB000061EB0401E9E783F000431A
:100810005BE781F0004158E72DE9FE4F81EA0304D0
:1008200004F0004421F0004100944FF0000B23F04D
:10083000004350EA01045ED052EA03045BD0C3F3E4
:100840000A54C1F30A552C44A4F2F3340194A0FBDA
:100850000254C1F3130141F48011C3F3130343F4B1
:10086000801301FB024400FB034E840A970A44EA0A
:10087000815447EA8357A4FB076802958D0A05FB5C
:1008800007854FEA932C04FB0C542705029D4FEA81
:10089000065847EA1637B5EB08056EEB070C870ECE
:1008A000920E47EA811742EA8312A7FB0201B6EBD8
:1008B0000B0164EB00042B0D43EA0C335E1844EB90
:1008C0001C50DA465146E7FB0201C5F313044FEA18
:1008D0000B3343EA14534FEA0432019C43EA060304
:1008E000A4F10C040294009CCDE900B400F0DFF800
:1008F00003B0BDE8F08F00200146F9E72DE9F04D87
:1009000081EA030404F0004B21F0004514464FF047
:10091000000A23F0004150EA050220D054EA010207
:100920001DD0C5F30A570246C5F31303C1F31300E4
:10093000C1F30A5640F4801543F48013A7EB060870
:10094000101BD64608F2FD3873EB050002D308F100
:10095000010801E092185B41B8F1000F03DA0020B2
:100960000146BDE8F08D00204FF480110646844614
:100970000EE0171B73EB050705D3121B63EB050392
:1009800006434CEA010C49084FEA300092185B41DB
:1009900050EA0107EDD152EA030012D082EA0400C6
:1009A00083EA0501084305D0101BAB4106D20122A2
:1009B000002306E000224FF0004302E06FF0010246
:1009C00053101AEB06004CEB085110EB0A0041EBF8
:1009D0000B01BDE8F04D00F05BB8C1F30A52C1F362
:1009E000130140F2FF3341F480119A4202DA0020F1
:1009F0000146704740F233439A42A2F2334202DC8E
:100A00005242FFF752BEFFF741BE000030B5041E50
:100A100071F1000404DB4FF00044404264EB01013B
:100A2000141E73F1000405DB1C464FF000435242D4
:100A300063EB0403994208BF904230BD1CB50948DE
:100A40000090094801900546009C06E0E06840F0EF
:100A5000010394E8070098471034AC42F6D3FFF73F
:100A60001FFC0000000D0108200D0108202A06DBF4
:100A7000CB17203A41FA02F043EAE07306E041FA6C
:100A800002F3D040C2F1200291400843194670475A
:100A900010B5141E73F1000408DA401C41F1000186
:100AA00092185B411A4301D120F0010010BD2DE9DD
:100AB000F04D92469B4611B1B1FA81F202E0B0FAD4
:100AC00080F220329046FFF7E1FD04460F4640EAEF
:100AD0000A0041EA0B0153465A46084313D0114617
:100AE00053EA010019D0C8F140025046FFF7DDFD7E
:100AF00005460E46504659464246FFF7C7FD084395
:100B000005D0012004E020463946BDE8F08D0020E4
:100B1000054346EAE0762C4337430A986305E40A26
:100B2000A0EB08000022FD0A44EA47540A3002D52F
:100B300000200146E9E7010510196941DDE9084592
:100B400000196941BDE8F04DA2E7000003A000F0E4
:100B50007DF914200DF0C6F9FBE700BF4170705419
:100B600061736B475549C8CECEF1BFAACABCD6B493
:100B7000D0D00D0A00000000C648EFF3108172B615
:100B800042680132426081F31088F6E701200EF0DE
:100B900043FD4FF4FA700DF0A5F9F7E74FF47A70C2
:100BA0000DF0A0F903F07CF9FCE7000088B0DFF855
:100BB000B8800220002588F800500DF093F96420D9
:100BC000C8F804500DF08EF9D8F80400012688F812
:100BD0000060C8F80C0002F0BDFF0EF047FA0320D9
:100BE000CDE9020023A1264ADFF898900023B4241F
:100BF0004FF480570694CDE9045601971B480090A6
:100C00001B48C84704200390CDE9017020A1244A65
:100C100003F09AFA1C4800901C48C847052003902E
:100C2000CDE9017021A1254A03F08EFA1D480090FC
:100C30001D48C8471D200390CDE9017022A1264A16
:100C400003F082FA1E4800901E48C84708F11400BD
:100C500022A1002234230DF087FE03F0E5FE0120DF
:100C60000DF040F9F9E700BFF0000024081A002455
:100C7000082A0024417070204D73702050726F005C
:100C80008D0B00088DEB0008E8600024E87000245C
:100C9000417070205461736B205573657249460032
:100CA0004D0D000898040024981400244170702011
:100CB0005461736B20475549000000004D0B00083C
:100CC000C02A0024C03A0024417070204E45545878
:100CD0002050726F000000009D0B000841707050A2
:100CE00072696E746653656D70000000154C207853
:100CF00018B9C8200DF0F6F8F9E7E2686421B2FBF4
:100D0000F1F0632AE06001D80022A260414300258F
:100D10009FED0D8A6160616800EE100A64206560D5
:100D2000216101EE101AB8EE400AB8EE411A81EEC8
:100D3000000A38EE400A84ED020A0DF0D3F8E068AC
:100D4000E9E700BFF00000240000C84282B0DFF8ED
:100D50006C80DFF86C900FF2B00BDFF8E8A03A4D32
:100D60000EF072F9012825D14046C847154890ED8C
:100D7000020A1548B7EEC00A53EC102BC84740468C
:100D8000C84712A0C8475846C8475746D7F8A830A2
:100D9000D7E90462D7E90A01BC68F31ACDE900304B
:100DA0002846331B00F052F8D7F88870574518BF13
:100DB000002FEBD114200DF095F8D1E7B50A01080A
:100DC0004D0E0008F00000249C0A010820C8CECE79
:100DD000F1D3C5CFC8BCB620C8CECEF1D5BBB4F3D5
:100DE000D0A120B5B1C7B0CAB9D3C3D5BB2020D7D5
:100DF000EEB4F3D5BBCAB9D3C3202020C8CECEF100
:100E0000C3FB0D0A000000002020205072696F20F3
:100E100020202020537461636B53697A6520202061
:100E2000437572537461636B202020204D617853A9
:100E30007461636B2020205461736B6E616D650D6E
:100E40000A000000785B0024F70A010883B0B0B5FF
:100E5000B5B0044639A80DF10B050EC039ABC92158
:100E60002246019328460FF04FF90A484FF0FF3110
:100E700000F1140420460DF0D3FD07A029460FF021
:100E800033F920460DF0F8FD35B0BDE8B04003B0B1
:100E9000704700BFF000002425730000FEE70A68D9
:100EA000036893420CD14A684368934208D18A6828
:100EB0008368934204D1C968C068401A03F000BA3D
:100EC00000207047F8B516460C460546570905D070
:100ED000BA0028462146FFF7B6FB60B916F01F009E
:100EE0000BD055F8271054F82720C0F120005140AE
:100EF00031FA00F001D00020F8BD0120F8BD0168F2
:100F000019B9416809B9816809B100207047C06802
:100F100003F0D6B902680A6042684A6082688A6053
:100F2000C068C860704710B5029C5B1A241A101A7A
:100F3000634393FBF0F0084410BD0000082803D27F
:100F400006A151F82000704780B503484FF48E7118
:100F500000F0F4FA002080BD4B0B0108D4010024FE
:100F6000000000000002002400000000000000005B
:100F700000000000000000000000000070470000BA
:100F80002DE9F04385B035486C460225354F4FF0CA
:100F90000B0803F053F941F001010160016801F011
:100FA00001010091009903F049F941F00401016049
:100FB000016801F0040100910099016841F002010B
:100FC0000160016801F0020103F0F8FA016801F024
:100FD000400103F0F3FA0068214600F04000009061
:100FE00000980395CDF81080042000900020CDE9F2
:100FF00001501B488146B84709F500662146CDF8E7
:10100000108000953046B84748462146CDF81080FC
:101010000095B847802000902146CDF810804846C2
:10102000B847102003F076FA202003F073FA4FF44B
:10103000006000902146CDF8108009F58060B84727
:101040004FF4005009F5C05503F0C5F94FF4805036
:1010500003F0C1F905B0BDE8F08300BFE0440258D9
:101060000000025889260008014800F059BF00BF5F
:101070006C9B00242DE9FF4FD0F828C000F1180E1A
:1010800004465EF82C60F068002800F159810B6876
:101090000EEB8C098D6858074FEAC36A029007D49B
:1010A000BAF1000F3BD40120CDE90024039033E0D6
:1010B000F0684FF6FF77B8434F6A3843F060F06846
:1010C00040F48030F0602068076E47F480170766B0
:1010D0001F0717D5D1E90B8BB768C7EA0847B76078
:1010E000F76847F40037F760F76827F4402747EAC6
:1010F0000B07F760476E47F480174766076D47F0A8
:1011000080670765BAF1000F09D4012003900298A7
:10111000002811D4CDE90024E246012725E0B0687B
:1011200043F6FF77B8438F693843B060F06840F00A
:101130008060F06000200390F0680CF1010A40F03C
:101140008040F060BAF1030FF06840F00040F060BA
:1011500088BFACF1030A5EF82A60F068B0F1FF3F87
:1011600040F3E880CDE90024022795E801093060CA
:1011700043F6FF74744AB068A043BBF1000F40EA25
:101180000800B06007D0DBE900047060B068104070
:1011900040EA044004E000207060AB46B0681040B4
:1011A000B0606A4DF068039AAAB147F6FF74A04395
:1011B0004C682043F060D80705D04869F46824F4EF
:1011C00040342043F060980615D50869F46824F08F
:1011D000406420430EE0D1E9078420F4F00040EAA7
:1011E000C440F060F068284040EA0800F060F06811
:1011F00040F48020F0600298002805D5886AB46821
:1012000024F440442043B060F06840F00050F060A7
:10121000F06820F08040F060F06840F00040F0603E
:10122000980705D5C868F46824F060742043F0601E
:10123000D8070290DBF80800002869D0F46824F091
:101240008054F4600AF10104032C88BFAAF103045E
:101250005EF82460F26822F00052F260F268B2F1A7
:10126000FF3F52DD90E8040932602B4643F6FF75DC
:10127000B268AA43BBF1000F42EA0802B26008D08C
:10128000DBE900027060304DB068284040EA02425D
:1012900005E0002272602C4D8346B2682A40B2609D
:1012A0001D46F068039A6AB147F6FF7290434A6898
:1012B0001043F060029868B14869F26822F4403245
:1012C000104306E02840CA691043F060F06840F41B
:1012D0008020F060F0680137A24640F00040F060E6
:1012E000F06820F08040F060A4E7D9F80000C16801
:1012F00021F00041C1600CF10100032888BFACF16E
:1013000003000EEB80098446013F002FEDD117E06A
:10131000B068009920F00040002918BF00F100409B
:10132000B0600198C0F828A0F06840F08050F060EC
:10133000002006E0D9F80000C16821F00041C1603A
:10134000022004B0BDE8F08FFFFF00C00000FCFFEA
:1013500010B500684FF4805247F602048358A34347
:101360000C682343835000F580504DF201040A7944
:101370008B6843EA02320B7B42EAC3324368A343E1
:10138000134C1A4342604A7B0B6A43EA0242D0F88C
:10139000003123400F4C1A43C0F800210A7D0B692D
:1013A00043EA02124B7F42EA0332D0F80431234071
:1013B0001A43C0F80421084BD0F808211A400B7FCB
:1013C000896941EAC3711143C0F8081110BD00BF1B
:1013D00000C0FEFFEFEFC0FFFFFFC07FB0B58A681F
:1013E0000B681A430B7942EAC3620B7B42EAC35291
:1013F0004B7B42EA83528B7B42EA4352CB7B42EAED
:1014000003520B7C002B08BF42F400224B7C002BC4
:1014100008BF42F40032D1E905341A438B7C42EA1A
:1014200003420B7F2243434C42EA03324B7F42EAA2
:10143000C3228B7F002B08BF42F48062CB7F42EA3D
:1014400043224B6A1A4391F82030002B08BF42F424
:101450008072CB6A00681A4391F8283042EA03127E
:10146000036823401A43026091F83830CA6B91F840
:10147000314091F832501B0643EA426291F8303015
:1014800042EA83424B6B42EA44422B4C1A43002D02
:1014900008BF42F480324368234040F20F141A43DD
:1014A000426091F840204B6C43EA0222C368A34398
:1014B0004FF60D741A43C26091F854200B6D43EA45
:1014C000420291F84C30002B08BF42F080028B6C36
:1014D00042EA0342036F23401A430267D0F8902088
:1014E00091F8553091F8564022F0030244EA430344
:1014F0001A43C0F89020D0F8002D8B6D22F07202B4
:101500001A43C0F8002D91F86020CB6D002A08BF67
:1015100043F0400391F8612091F8621043EA02120F
:1015200042EAC101D0F8302D22F07B021143C0F80D
:10153000301DB0BD838004000080F8C001B1FEE71B
:1015400070472DE9F0410B680268C3B101F11C0539
:1015500022F4F8420E1D38CD1A4347F6FF7322439A
:101560002A43026042689A4378CE1A434B698969DC
:1015700022432A4332431A431143416017E00F1DAF
:1015800047F6FF73D1F8208022EA030CD1E9062E3A
:10159000496AF8CF43EA0C0323432B4333433B43CD
:1015A0001A4342EA0E0242EA080211430160002097
:1015B000BDE8F081426943F6FE739A4342EA410175
:1015C000416100207047B0B591E81C006FF01F0525
:1015D000C96805EB44141A43224342EA41210269D7
:1015E000114301610020B0BDF0B5836822B3234AE6
:1015F000234D4C696FF00F071A40CB6805EB03339E
:101600001A43204B03EB04531A438260C26891E8EB
:1016100038000E69896902F07042013B07EB04143F
:10162000013902F06BFF1A43174B03EB06431A43D1
:1016300042EA0161C1601EE091E874006FF00F079B
:1016400003F07043013A07EB041402F057FF0E4C0D
:101650001A430B4B03EB06331A430B6904EB0343AA
:10166000084C1A434B698969013904EB03531A4347
:1016700042EA016181600020F0BD00BFFF0F0FFF53
:1016800000F0FFFF0000F0FF0000FFFF6C480121A9
:10169000A0F80710704700BFE0B50DF10701A320C7
:1016A000012200F005F89DF80700654988718CBD9E
:1016B0002DE9F04190460C4606460EF04FF9F14FE9
:1016C0007020B847F04DA847F0B2B847A8470EF0D1
:1016D00045F97120B847A847A8F101050026F7B2DF
:1016E0000EF0F6F8BD42E05503DD0EF0B3F801361A
:1016F000F5E70EF0DDF8BDE8F0410EF03FB900BFB0
:101700002DE9F04389B0DFF8389199F807000028F7
:1017100000F08C8099F808000A28C0F08780002526
:1017200089F8085003F048FC00285BD00DF103084D
:101730000020212289F801504146FFF7B9FF4FF000
:10174000000C002189F809500A2D23D005EB450231
:1017500008EB02035A79EF2A1CD802F00F00DC785C
:101760001E799B7909EB0507013189F809101209E7
:10177000023543EA0020B882A30904F00F0046EACC
:101780000020788109EB0C000CF1010C80F823306B
:101790008277D9E799F806000A2810D055280ED18B
:1017A000B9F80A40B4F5877F88BF40F20F14B9F842
:1017B0001450B5F5EF7F88BF40F2DF150DE0B9F8A2
:1017C000144040F21F35B4F5EF7F88BF40F2DF14BC
:1017D000B9F80A00A84238BF054699F80000D0B110
:1017E00002201BE099F8000001281FD199F80100A0
:1017F000013089F80100C0B2032817D30020B9F8DE
:101800000420B9F80210A9F80000032009B0BDE8CF
:10181000F04303F0EFBB012089F80000294622467F
:1018200003F0E8FBA9F80440A9F8025009B0BDE8AC
:10183000F08300BF0248017A01310172704700BF96
:10184000AA0200241CB58E4C00200C496A22E071CB
:1018500040F2A26000F0F2F8207ABA2803D10948D9
:10186000019001A902E069460548009040F2DD6060
:10187000042200F0E3F80120E0801CBD8400002475
:1018800058020004E00120032DE9F84391460C467C
:1018900006460EF063F8DFF8E881D94F98F80800A3
:1018A000B847D84DA8470720B847A847F0B2B8476F
:1018B000A8470EF053F898F808000130C0B2B847B6
:1018C000A847A9F101050026F7B20EF001F8BD42C4
:1018D000E05503DD0DF0BEFF0136F5E70DF0E8FF42
:1018E000BDE8F8430EF04AB870B58CB0644EB079DC
:1018F000002800F09A80F0791428C0F0968000202B
:101900006C46F071012240F221702146FFF7BCFFC6
:101910009DF80000C0070DD13078012840F0858087
:101920000020B2887188307003200CB0BDE8704090
:1019300003F060BB611C40F222702122FFF7A4FF7C
:101940009DF80B109DF811209DF81830BDF800008F
:101950009DF81B50B175BDF80410A6F809009DF85C
:10196000060086F822503074BDF8020009BA0C0C4B
:10197000F481BDF8071000BA000CB08109BA090C57
:101980007182BDF8091009BA090CB182BDF80C10BA
:1019900009BA090C3183BDF80E1009BA090C71831C
:1019A0009DF8101031779DF8201086F8281043EA32
:1019B0000221F183BDF8191009BA090C3184BDF870
:1019C0001C1009BA090CB184BDF81E1009BA090C23
:1019D000F184317ABA290ED1B4F5487F40F2DF1193
:1019E00028BF4FF44874081A85B2B5F5F07F28BFB8
:1019F0004FF4F0750DE0B4F5806F40F2572128BF29
:101A00004FF48064081A85B2B5F5167F28BF4FF4ED
:101A10001675307808B1022001E0012030702146AF
:101A20002A4603F0E7FAB58074800CB070BD00BFA1
:101A30001348C1790131C171704700BF2DE9F041F0
:101A400014460D4680460DF089FF0D486C4F007A14
:101A5000B8476C4EB0470620B847B0475FFA88F0E9
:101A6000B847B0473CB115F8010B0DF04FFF0DF032
:101A700093FF013CF6E7BDE8F0410DF07FBF00BFEA
:101A8000D20200240DF9000899F9000810B5614C44
:101A90000020E07132200DF043F90120E08010BDFC
:101AA000E0B501A948F24010042200F013F80198B3
:101AB0008CBDBCB50C46054601A948F2480004227D
:101AC00000F008F8BDF804002880BDF8060020806A
:101AD000BCBD00002DE9F84391460C4606460DF0CA
:101AE0003DFFDFF83081464F98F80800B847454D74
:101AF000A847300AB847A847F0B2B847A8470DF042
:101B00002DFF98F808000130C0B2B847A847A9F1E6
:101B100001050026F7B20DF0DBFEBD42E05503DD06
:101B20000DF098FE0136F5E70DF0C2FEBDE8F84372
:101B30000DF024BF70B58CB0364EB07900285CD063
:101B4000F0790A2859D3694648F24E100122002440
:101B5000F471FFF7BFFF9DF8000098B3694648F2A3
:101B60004E1008227470FFF7B5FF0DF0F7FE307AC3
:101B7000234CA047234DA8478120A047A8474E20CB
:101B8000A047A8470020A047A8470DF0F7FEBDF8E2
:101B90000440BDF80000BDF8061040F21F35A6F85D
:101BA0000900BDF80200F4813182B4F5EF7FB08105
:101BB00088BF40F2DF14A84238BF05463078A0B194
:101BC000022014E03078012817D17078013070704D
:101BD000C0B2022811D30020B2887188308003205F
:101BE0000CB0BDE8704003F005BA01203070294602
:101BF000224603F0FFF9B48075800CB070BD00BFC1
:101C00000DF9000899F900080248C1790131C17144
:101C1000704700BFFC0200240DF082B8416CC9B3CC
:101C2000F0B5846C00F12C0C036C4FF08077002C25
:101C300018BF01314C1E5CF823600025A9421FD05B
:101C400032693260F76072692AB17269B260F26813
:101C500042F00072F260F26842F00042F260C26C40
:101C60001AB1F26842F08042F260A54206D25A1CD4
:101C7000032A88BFDA1E5CF8226013460135DDE7CF
:101C8000016841F228128E500021C0E91111BDE80F
:101C9000F04000E001210846704770470AB104296E
:101CA00002D30121C16514E000EB8100C06A02602B
:101CB0000261C16841F08071C1602BB183604361F2
:101CC000C16841F00071C160C16841F00041C1606C
:101CD000002108467047704702460120002900F0A5
:101CE000BF801268136803F00C03CB621368C3F360
:101CF000001381F82830136803F060034B62136807
:101D000003F4807380EA132381F820301368C3F34F
:101D10004023CB77136803F4806380EA93238B77A7
:101D20001368C3F3C0234B771368C3F300330B77F7
:101D3000136803F400538B61136803F480434B6111
:101D40001368C3F300438B74136803F4003380EA11
:101D500053434B74136803F4002380EAD3430B749A
:101D60001368C3F30053CB731368C3F340538B73EF
:101D70001368C3F380534B731368C3F3C0530B73DF
:101D8000136803F0E0638B601368C3F3C0630B71E7
:101D9000136803F0E0430B6053686FF39F334B63AA
:101DA000536803F4803380EA134381F83230536878
:101DB000C3F3404381F831305368C3F3804381F863
:101DC00030305368C3F3006381F838305368C3F38D
:101DD0004463CB63D368C3F3002381F84030D368F6
:101DE00003F00F034B64136FC3F3400381F85430C7
:101DF000136FDBB280EAD31381F84C30136F03F01A
:101E000070030B65136F1B0C8B64D2F8903003F0DA
:101E1000010381F85630D2F89030C3F3400381F8C3
:101E20005530D2F8003D03F072038B65D2F8303D97
:101E300003F02303CB65D2F8303DC3F3C00381F830
:101E40006230D2F8303DC3F3001381F86130D2F82C
:101E5000302D02F0400280EA921081F860000020EC
:101E60007047F8B50546B1B30C46696C21B92846F0
:101E700000F010FAA8B3696C05F12C0001392B6C45
:101E8000002650F82320A1B1166926606E696660AD
:101E900057691FB1A4686660566926605F1C032FEE
:101EA00088BFDF1EA468D6683B4601396FF3DF3672
:101EB000E7E7D068116921606FF3DF306969801B43
:101EC00088420BD9536963B16160401AA1684860C8
:101ED0005069086003E00120E865F8BD60600020FB
:101EE000F8BD0120F8BD70B50546D0E910600C467C
:101EF00020B9284600F0CEF978B1686C304405F17D
:101F00002C01421E032A88BF421F51F82200C068DC
:101F10006FF3DF302060002070BD012070BD000035
:101F2000B0B50446006841F234154119CA6A520638
:101F30000BD50968490608D5204600F07DFA2068CF
:101F40004FF48B5148F2400242504119CA6AD207FD
:101F50000BD00968C90708D0204600F057FB20685D
:101F60004FF48B5148F20102425041F234110144C6
:101F7000CA6A52041FD50A6852041CD5E06D40F0AD
:101F80000800E065CA6AC86AD20406D400F4CD40ED
:101F900020664FF4CD40C86209E041F202121040C1
:101FA0002066086820F440400860E0206065204614
:101FB000FFF773FE2068D0F8B01001F4C041B1F50E
:101FC000C04F0AD1D0F8B8006066E02060652046B6
:101FD00000F0D9F9002060662068D0F8B010C9067A
:101FE0000AD5D0F8C00000F06000A066204600F0DE
:101FF000F7F90020A0662068D0F8B010890609D54E
:10200000D0F8C00000F00F00E0662046FFF763FE46
:102010000020E06606480168490258BFB0BD4FF491
:10202000800101602046BDE8B04000F0FBBA00BF6F
:10203000A80000582DE9F041A2B080B30446406DDD
:1020400010B9204600F0A0F9232060658748016898
:1020500041F002010160006800F002000990099857
:10206000207A002818BF0120C00501F0D5FD2068A6
:102070004FF48056815941F00101815100F0E2FB9B
:10208000054620688159C9070BD000F0DBFB401BD7
:10209000B0F5FA7FF5D90420E065E0206065012500
:1020A000DFE0D0F8005201F067FA7149714B421835
:1020B00025F470619A4202D841F4007115E06E4A2D
:1020C0006E4B02449A4202D841F440710DE06C4AD2
:1020D0006C4B02449A4208D36B4A10446B4A9042BC
:1020E0008CBF41F4806141F480712068C0F8001217
:1020F00001F042FA6649002601254FF00208B0FBC4
:10210000F1F021680138C1F8DC0040F20110ADF8AF
:10211000320012968DF843608DF856508DF8285095
:102120008DF884508DF84C60ADF8856018968DF868
:102130005C608DF830601D96ADF84060ADF83550AC
:102140000B9614961B968DF87A608DF864608DF866
:102150004250ADF854608DF844508DF83160ADF8C0
:1021600078601A968DF870508DF83450CDF87C80D8
:102170004FF400500F904FF4C36016902020209031
:102180004FF0405009904FF480400E9009A920462E
:10219000FFF724F94FF400104FF4067108910690F0
:1021A000049002958DF804500096ADF80C608DF8FF
:1021B0001460ADF81C6069462046FFF7C9F827682F
:1021C0004FF4885160697A5868F394427A508107D5
:1021D00003D0E565E020606543E007F5885547F6E4
:1021E000FE72A9689143002241EA4000A86004F110
:1021F0001801E068602A07D08318865018325E60A4
:102200009E60DE6008C1F5E70321E9626861002293
:102210000021A162286204F12C002669602A09D0FD
:10222000B318B150183259609960C3E90411D960EC
:1022300008C0F3E704F13C001421FEF7F9F903208C
:102240002863EE6106F14800A86200256068818875
:10225000C7F800130068C7F80403E565102060653F
:10226000A065284622B0BDE8F08100BFF4440258C2
:1022700000D3CEFEBFE1E40040F1E9FD3F787D01EF
:1022800000796CFC005A6202001F0AFA7FF0FA0221
:1022900040420F00416C09B1002172E0F0B500F13D
:1022A0002C02C46B00250023002152F82460F7683B
:1022B000002F15D4032D13D8F768FF003DD4F6681E
:1022C00016F0005618BF21464FF0010608BF5E1CED
:1022D000631C032B88BFE31E1C4601353346E4E72D
:1022E000002B49D0C0E90F41A3F1010E00264FF0A9
:1022F000807C52F82150B3423AD0D5E904472C6093
:10230000C5F80CC027B1AF60EC6844F00074EC6015
:10231000EC6844F00044EC60C46C1CB1EC6844F020
:102320008044EC60764506D24C1C032C88BFCC1E42
:1023300052F8245021460136DDE7002B08BF214624
:10234000651C032D88BFE51E52F825405A1CE6681F
:10235000002E09D4E3685B0006D501238364022DB7
:1023600088BF6FF002031D44C0E90F51012105E051
:10237000016841F228128D50002200214264BDE81C
:10238000F040084670477047F8B51448016841F4BA
:1023900000410160016801F4004103910399016863
:1023A00041F480310160016801F4803102910299A9
:1023B000016841F400310160006800F400300190D0
:1023C0000198FEF7DDFD3D200021002200F034FBE6
:1023D0003D2004B0BDE8804000F01EBBD844025848
:1023E0007047000070B5054600681C46D0F8003202
:1023F000DB0718D14905D0F800329F4E334041EA3F
:10240000024119430D31C0F8001200F01BFA0646D4
:102410002868D0F80012C90707D000F013FA801B13
:10242000B0F57A7FF4D9012070BDD0F8040280B2F3
:102430002060002070BD00BF7948016941F00102B1
:10244000026101B17047006804F0CABC39B1826D05
:10245000102A04D180B5FEF77BFF002080BD01204B
:10246000704739B1826D102A04D180B5FEF7B6FFEE
:10247000002080BD0120704741B370B5CE780B7845
:102480000A794C788D7843EA460343EA82020B7A54
:1024900042EAC3024B7942EA03124B7A002B08BF8F
:1024A00042F02002CB79006842EA03228B79C968A6
:1024B00042EA4322064B42EA85221143826841EAFE
:1024C000C4711A4011438160002070BD0120704723
:1024D00000F8FF7F416D10290CD1232141650B21AC
:1024E0000F2909D050F821200131D36843F08043EF
:1024F000D360F5E7012070474DF808ED01F07DFE4F
:102500005DF808EB4DF241034A6842F001024A606F
:10251000CA6D42F48172CA650A6B1A430A631021BC
:1025200041650121C1642221816500207047416D10
:10253000B1B12321416541F2041201688B5823F0A7
:1025400001038B500A44536823F001035360734620
:1025500001F02AFF9E4610214165816500207047E9
:10256000012070472DE9F843044661B1606D1028E1
:102570000DD1154620460022FEF77CFD50B1E06DDE
:1025800040F0020002E0E06D40F00100E065012053
:10259000BDE8F883A16A04F1180220684B1C52F8C8
:1025A0002170032B88BFCB1EA36252F823104FF477
:1025B0008952815000F046F981464FF48B586E1CC9
:1025C000F868B0F1FF3F13DC206850F80810C90428
:1025D00011D4002EF4D000F035F9A0EB0900A84288
:1025E00001D8002DECD1E06D40F00400E0650AE078
:1025F0000020BDE8F883E16D00F58B5041F0080143
:10260000E16500682066E0206065C0E70448016974
:1026100041F00402026101B17047006804F0E0BBC0
:102620000002043070470000B0B504460068D0F8DE
:102630000052ED071AD10F4D9BB24905D0F80002A8
:1026400041EA02416B600C4B18400843053028609A
:1026500000F0F8F805462068D0F80002C00707D05F
:1026600000F0F0F8401BB0F57A7FF4D90120B0BD3E
:102670000020B0BD00820240F2FF00FC014801F0E2
:10268000A4BF00BF200400582DE9FC4F5F4A0A2474
:1026900000F1200E4FF0000A4FF0010C4FF000093E
:1026A00090425B4A08BF092402444FEAB223092B37
:1026B00038BF4FEAB224009400260F6837FA06F2BA
:1026C00000F0A2800CFA06F217EA020B00F08F80ED
:1026D000D1F80480B8F1120F00F28F800CFA08F3E1
:1026E00013F0061F00F0898003238568CC6803FA85
:1026F00009F304FA09F49D436FEA030C2C43846048
:102700004FEA18144568B44025EA020222434260A9
:102710007200C3688C6803EA0C0394402343C360CF
:1027200048F01003122B13D16FF003050AF01C03BD
:102730000F2405EA56059C405EF8057027EA04045C
:102740000F6907FA03F323434EF80530D1F80480EC
:10275000036808F0030403EA0C0304FA02F24FF0E2
:10276000010C1A4302605FEAC80240D52A4B2B4F86
:102770004FF0B0481A6842F002021A601A680F233C
:1027800002F002020192019C0AF00C0226F00304FE
:102790009340E55925EA0303009D05FA02F21A4326
:1027A000E2511C4FFA6F4C6842EA0B03E50358BF35
:1027B00022EA0B03FB67A503D7F8802042EA0B034C
:1027C00058BF22EA0B03C7F88030E502D8F8002092
:1027D00042EA0B0358BF22EA0B03C8F80030A402F8
:1027E0003A6842EA0B0358BF22EA0B033B600AF146
:1027F000040A09F1020901365FE7032202FA09F22D
:102800006FEA020C4A4684E7BDE8FC8F00240258B8
:102810000000FEA704000058F444025808040058C1
:1028200042690A408A4208BF090481617047002A50
:1028300008BF09048161704701480068000C7047B7
:102840000010005C0D480068B0B121480068800BA2
:1028500068B100BF013800BF00BF00BF00BF00BFAC
:1028600000BF00BF00BF00BF00BF00BFF0E70449CA
:1028700008680130086070470BF016BF7C00002428
:102880009C71002480B5032000F0FCF800F0AAFE43
:102890000E499A4B0A68C2F303229A5C096801F058
:1028A0000F0102F01F02595CD040094A01F01F01DC
:1028B0001060C840074908600F2000F00DF808B10B
:1028C000012080BD00F0A6F8002080BD1844025809
:1028D000100000241400002400207047704770B5D9
:1028E00004460068866B456B710711D569070FD5E3
:1028F000416B21F0040141630421C163D4F8A400B9
:1029000040F00100C4F8A40001F0C0FDFFF7E6FFAD
:10291000B00717D5A80715D52068416B21F0020133
:1029200041630221C163D4F8A40040F00200C4F85E
:10293000A400002084F8A000042084F8A100204610
:10294000FFF7CCFFF0070CD0E8070AD02068416BF6
:1029500021F0010141630121C16301F097FD00F005
:1029600017F8300701D5280700D470BD2068416BE7
:1029700021F0080141630821C163002084F8A00010
:10298000012084F8A1002046BDE8704000F001B8A5
:10299000704770470278114943780B60D2B14368A1
:1029A0004B60037B42EA0372C37A42EA0362837A92
:1029B00042EAC342437B42EA8342837B42EA434288
:1029C000C37B42EA0342437A007A42EA032242EAA4
:1029D000400001E0002048608860704798ED00E00A
:1029E0000B48BFF35F8F016821F480310160002143
:1029F00001677047064940F001000867086840F425
:102A000080300860BFF34F8FBFF36F8F704700BFF8
:102A100024ED00E070470000002809D400F01F01F9
:102A20000122C0F34A1002FA01F1024A42F82010D2
:102A3000704700BF00E100E0F0B5184B4FF0FF36E3
:102A40001C68C4F30224E51E84F0070438BF002587
:102A500006FA05F7BA43042C28BF042406FA04F446
:102A6000A14300F00F04A940043C1143044A23444D
:102A700009010244002848BF03F10C021170F0BDA7
:102A800000E400E005494FF6FF030A681A4060F3CE
:102A90000A22034810430860704700BF0CED00E0B5
:102AA0000000FA05B0B50F4D2A682968520705D411
:102AB00001F00701081A18BF0120B0BD21F007017D
:102AC000084301F080FC044655F8080C800406D445
:102AD000FFF7B8FE01F0A8FBF6D90120B0BD002039
:102AE000B0BD00BF0C48025880B500F045FD02495A
:102AF000024A01F0B6BC00BF20440258540A010843
:102B0000B0B51B498B6A8A6ACC6ACD6BC2F30532B9
:102B1000AAB1E40601F08EFC15D0BBB90B689B0688
:102B200051BF9FED161A0B68C3F3C103144C42BF8B
:102B300024FA03F301EE103AB8EE411A08E000213E
:102B4000C0E9001112E09FED0C1A01E09FED091A97
:102B50008B6B9FED0C3A01F065FD8A6B01F02BFB4E
:102B60008A6B01F00DFD896B01F0B9FC8160B0BD8D
:102B7000004402580024744A20BCBE4B0024744C0C
:102B80000090D00300000039B0B51B498B6A8A6AF7
:102B9000CC6A4D6CC2F30552AAB1E40501F04AFCBF
:102BA00015D0BBB90B689B0651BF9FED161A0B6879
:102BB000C3F3C103144C42BF24FA03F301EE103AED
:102BC000B8EE411A08E00021C0E9001112E09FEDC3
:102BD0000C1A01E09FED091A0B6C9FED0C3A01F005
:102BE00021FD0A6C01F0E7FA0A6C01F0C9FC096CDE
:102BF00001F075FC8160B0BD004402580024744AA5
:102C000020BCBE4B0024744C0090D003000000395F
:102C10002DE9F0470446C078A64F00071AD5606E2C
:102C20004FEA305103292CD8DFE801F002070A0FE0
:102C3000F96941F40031F96107E001F01AFC01E0A3
:102C400001F0EBFC064630B9606E396C21F440119E
:102C50000843386400266078BA46C00701D135467B
:102C600020E0606D042800F265803546DFE800F062
:102C7000030E0B111100F869354640F40030F8617D
:102C800007E00126E7E701F0E9FC01E001F0DDFCE7
:102C900005462F463DB9606D01F0DEFB21F00701CE
:102CA00001F04AFC3746607880071BD5A06D4FEADB
:102CB000B010042841D8DFE800F00309060C0C002E
:102CC00001F06AFB05E001F0C9FC01E001F0BDFC88
:102CD00005462E463DB9A06D01F0BEFB21F4E07122
:102CE00001F02AFC3E466078400702D4B0465746C1
:102CF00029E0D4F8A40057464FEA705004281FD8A2
:102D0000DFE800F00309060C0C0001F0C9FB05E048
:102D100001F0A4FC01E001F098FC0546A84695B935
:102D2000D4F8A400B96C0025B04621F46001084332
:102D3000B86408E001250127B5E701250126D2E79F
:102D400001254FF00108607800071ED5D4F8A800CF
:102D50004FEA3060042800F26C80DFE800F00309DD
:102D6000060C0C0001F09CFB05E001F077FC01E093
:102D700001F06BFC05462F4645B9D4F8A80001F0D8
:102D800066FB21F0E06101F078FB4746E0788007C0
:102D90001AD5A06C4FEA3010032826D8DFE800F0DF
:102DA0000802050801F0F8FA02E001F062FB0546AE
:102DB0002E4655B9A06CDAF83C100025524621F099
:102DC00030010843CAF83C003E466078C0061ED574
:102DD000E06D4FEA303004282ED8DFE800F0030C15
:102DE000090F0F0001F0D8FA08E001250126ECE7F1
:102DF00001F034FC01E001F028FC05462F463DB906
:102E0000E06D01F029FB21F4E04101F095FB37462C
:102E1000607880061FD5206E4FEA3040052800F20A
:102E20007282DFE800F00F030C0F0F0F01F0FEFAC3
:102E300007E001250127A9E701250127E8E701F0BF
:102E400008FC05462E463DB9206E01F005FB21F435
:102E5000E02101F071FB3E46607840061BD5D4F8B6
:102E6000AC004FEA3070052800F25082DFE800F035
:102E700009030609090901F0D9FA01E001F0E9FBAB
:102E800005462F4645B9D4F8AC0001F0E0FA21F030
:102E9000E04101F0F2FA37466078000618D5E06E9E
:102EA00068B1B0F1005F07D0B0F1805F22D101F0CE
:102EB00073FA04E01044025801F0B8FA05462E46B1
:102EC0003DB9E06E01F0C8FA21F0405101F034FB49
:102ED0003E46E078C00702D1B04657461EE0606C1F
:102EE0005746032817D8DFE800F00B02080B01F063
:102EF000D7FA05E001250126EBE701F0BAFA05460D
:102F0000A8465DB9606CF96B0025B04621F003015D
:102F10000843F86302E001254FF00108A07840065D
:102F200001D4474616E0D7F8F00340F48070C7F8A4
:102F3000F003FFF787FC0646D7F8F003C00507D477
:102F4000FFF780FC801B6428F6D90325032701E0E6
:102F50002F4685B12078C00744D0A06F4FEAF0001B
:102F6000052800F2D681DFE800F034033134343430
:102F700001F05CFA2CE0DAF86010D4F8B0005546A5
:102F8000414011F4407F0BD0296E2A6E42F480320A
:102F90002A6621F440712A6E22F480322A6629665C
:102FA000B0F5807F40F0CA81FFF74CFC064641F245
:102FB00088390327DAF86000800700F1BC81FFF749
:102FC00041FC801B03254845F4D9C3E701F041FBD0
:102FD00005462E463DB9A06F01F053FA21F03801A5
:102FE00001F09EFA3E462078800717D5606F0528CD
:102FF00000F29281DFE800F009030609090901F0F7
:1030000015FA01E001F025FB05462F463DB9606F3A
:1030100001F037FA21F0070101F082FA37462078F3
:10302000400719D5D4F89000052800F27881DFE830
:1030300000F009030609090901F0F8F901E001F0BF
:1030400008FB05462E4645B9D4F8900001F0FFF97B
:1030500021F0070101F011FA3E46207880061BD5C9
:10306000D4F88C004FEA3070052800F25B81DFE86D
:1030700000F009030609090901F0E7FA01E001F08F
:10308000CCFA05462F4645B9D4F88C0001F0F9F981
:1030900021F0E04101F044FA3746207840061BD584
:1030A000D4F898004FEAB020052800F23E81DFE80E
:1030B00000F009030609090901F0C7FA01E001F06F
:1030C000ACFA05462E4645B9D4F8980001F0BFF990
:1030D00021F4E05101F0D1F93E46207800061BD5DD
:1030E000D4F89C004FEA7030052800F22181DFE817
:1030F00000F009030609090901F0A7FA01E001F04F
:103100008CFA05462F4645B9D4F89C0001F09FF98A
:1031100021F4604101F0B1F937462068010713D569
:10312000D4F88000B0F5805F06D101F076FA00286F
:1031300018BF0127D4F88000DAF84410524621F471
:10314000405101F0EDF92068C10613D5D4F8940080
:10315000B0F5807F06D101F060FA002818BF012782
:10316000D4F89400DAF84810524621F4407101F086
:1031700084F9206800031AD5D4F8A000B0F5003F08
:103180000BD0B0F5803F05D0002840F0B68001F0AC
:103190005CFA01E001F041FA05462E4645B9D4F843
:1031A000A00001F054F921F4403101F066F93E46E7
:1031B000A07840071BD5D4F88400B0F5401F0CD090
:1031C000B0F5001F06D0B0F5801F40F0998001F0E7
:1031D000E3F802E001F03DFA05462F4645B9D4F880
:1031E000840001F04EF921F4401101F099F93746BD
:1031F000A078C00701D13E4619E0E06CB0F5803FF1
:1032000003D090B901F0C8F802E001F032F90546A8
:103210002E4665B9E06CDAF83C100025524621F4E0
:1032200080310843CAF83C00E5E701250126206803
:10323000810005D501F0F1F9002818BF01262068AA
:1032400081031BD5E16F6FF0010202EB3122022AEC
:103250000AD34FEA31223AB1012A06D1DAF81C200A
:1032600042F40032CAF81C200DB1012606E0DAF85B
:10327000442022F440721143CAF84410C10207D519
:10328000216FDAF8402022F000421143CAF84010C2
:10329000C10008D5D4F8B410DAF8002022F4804236
:1032A0001143CAF80010810207D5A16EDAF8402058
:1032B00022F080721143CAF8401041000CD5DAF8B0
:1032C000001021F40041CAF80010D4F8B810DAF860
:1032D00000201143CAF80010B0F1FF3F07DC206D59
:1032E000DAF83C1021F040510843CAF83C00002EA7
:1032F00018BF01263046BDE8F0870125012657E7B3
:103300000125012774E701250126A5E501250127EF
:10331000C2E50125012666E6012501277FE6012594
:1033200001269AE601250127B7E601250126D4E604
:1033300001250127F1E65546D4F8B0002A6809496D
:1033400000F4407322F47C5201EA1011B3F5407F7F
:103350006FF31F3008BF0A432A60296E08432866AE
:103360000025DEE5CFFFFF002DE9F843002800F03F
:10337000F9807E4D04468846286800F00F00884298
:103380000BD2286820F00F0040EA08002860286867
:1033900000F00F00404540F0E5802068744F410781
:1033A00009D52169BA6800F0F3FF04D9BA6822F0A0
:1033B00070021143B960010709D56169FA6800F02C
:1033C000E7FF04D9FA6822F070021143F960C106E0
:1033D0000AD5A169FA6802F4E062914204D9FA6858
:1033E00022F4E0621143F960810609D5E1693A6986
:1033F00000F0CEFF04D93A6922F07002114339611E
:1034000010F002010AD0E268BB6803F00F039A4291
:1034100004D9BB6823F00F031A43BA60C20738D03F
:10342000D4E90101BA6822F470621143B96057F817
:10343000101C012809D0032804D0022808D18903D0
:1034400009D48FE0890106D48CE0C90503D489E052
:10345000490740F187803968A94621F007010843F0
:103460003860FFF7EFF9064641F288356068396841
:1034700001F03801B1EBC00F07D0FFF7E3F9801B73
:10348000A842F3D90320BDE8F88320684D4600F038
:10349000020151B1E168BA6802F00F02914204D210
:1034A000BA6822F00F021143B960296801F00F01D8
:1034B00041450AD9296821F00F0141EA0801296034
:1034C000296801F00F0141454CD1410709D5216917
:1034D000BA6800F05DFF04D2BA6822F070021143AE
:1034E000B960010709D56169FA6800F051FF04D29B
:1034F000FA6822F070021143F960C1060AD5A16989
:10350000FA6802F4E062914204D2FA6822F4E062BE
:103510001143F96080060AD5E069396901F070014C
:10352000884204D2396921F070010843386100F003
:1035300059F8B9682A4A1D4BC1F30321515C01F0C7
:103540001F01C840B968186001F00F01515C01F01B
:103550001F01C8401649086006480068BDE8F843E6
:10356000FFF7BAB90120BDE8F88300BF0020005280
:10357000104402580C00002480B500F033F80A49CA
:10358000174B0A68C2F303229A5C096801F00F0125
:1035900002F01F02595CD040044A01F01F01106084
:1035A000C8400349086080BD184402581000002438
:1035B0001400002480B5FFF7DFFF0849084A0968B6
:1035C000C1F3021101F006B880B5FFF7D5FF03493A
:1035D000034A0968C1F3022100F0FCBF1C440258F1
:1035E000540A010810B535490869C0F3C200032820
:1035F0000FD0022804BF334810BD40B908688006C8
:1036000034485AD50968C1F3C101C84010BD2C48DF
:1036100010BD8A6A886ACC6A4B6BC0F3051000B390
:1036200004F0010402F00302644204EAD303022A14
:103630006FF35F3300EE103AB8EE400A13D0AAB928
:103640000A68920651BF9FED221A0A68C2F3C102AE
:10365000204B42BF23FA02F201EE102AB8EE411AC3
:1036600006E0002010BD9FED191A01E09FED161A2B
:103670000A6B9FED193A6FF35F2202EE102AB8EE43
:10368000422A00EE032AB7EE000A32EE000A02EEEA
:10369000100A086BC0F34620B8EE422A013081EED2
:1036A000021A21EE000A01EE100AB8EE411A80EE6D
:1036B000010ABCEEC00A10EE100A10BD0044025808
:1036C00000093D0040787D010024744A20BCBE4BB7
:1036D0000024744C0090D0030000003928B3F8B5E2
:1036E00004460078D64EC00721D12078800764D5E3
:1036F000306910F03801B06A40D0182901D1800734
:103700003CD03068E168002900F01C8120F01900ED
:10371000084300F04DFD05463068400735D4FFF7FB
:1037200091F8401B0228F7D959E101207047306910
:1037300000F03801B06A102905D018290AD100F02C
:103740000300022806D130688003CED560680028C7
:10375000CBD1D2E062683068002A20F4803100F0DA
:103760004081B2F5A02F00F02681B2F5803F00F035
:1037700026813160306820F4802022E130684007E3
:1037800003D5E068002800F0B880FFF755F841F253
:10379000030188420AD82069716821F47C314028ED
:1037A00014BF41EA003041F4003005E0206971683F
:1037B00021F0FE4141EA006070602078C0063ED5ED
:1037C000306900F03801B06A082905D018291CD1E9
:1037D00000F00300012818D13068C00503D5E06966
:1037E000802840F08A80FFF727F841F203018842E1
:1037F0001ED8206A716821F0F841202814BF41EAE0
:10380000806041F08040706019E03068E169002913
:1038100000F0C28040F0800000F0CAFC054630682D
:10382000C005E0D4FFF70EF8401B0228F7D9D6E018
:10383000206AF16821F07C5141EA0060F060207854
:10384000000736D42078800645D42078400756D427
:10385000676A67B3306900F03800182840F0D580F7
:10386000B16A306B012F48D0A26A01F00303934282
:1038700043D1E26AC1F3051191423ED10146226B68
:103880006FF35F21013A914237D1626BC0F3462159
:10389000013A914231D1A26BC0F30641013A914203
:1038A0002BD1E16BC0F306600139884225D100209D
:1038B000F8BD706F6169A9B340F001007067FEF751
:1038C000C1FF0546706F8007BCD4FEF7BBFF401BED
:1038D0000228F7D983E03068A16900294DD040F46F
:1038E000805000F065FC054630688004ADD4FEF7DA
:1038F000A9FF401B0228F7D971E00120F8BDD6F8D6
:10390000000440F48070C6F80004FEF79BFF0546F3
:10391000D6F80004C00524D4FEF794FF401B6428A9
:10392000F6D95CE020F001007067FEF78BFF0546DA
:10393000706F80077FF586AFFEF784FF401B02287B
:10394000F6D94CE020F0010000F032FC054630686A
:1039500040077FF532AFFEF775FF00F0BCFDF6D9EA
:10396000A6E7A168306F002900F08380052969D09F
:1039700001296BD000F0FDFD6AE020F4805000F0DA
:1039800017FC0546306880047FF55FAFFEF75AFFED
:1039900000F0A1FDF6D98BE720F0800000F008FCD4
:1039A00005463068C0057FF54AAFFEF74BFF00F0D3
:1039B00092FDF6D97CE740F480203060306840F416
:1039C000803000F0F5FB054641F28837306880030F
:1039D0003FF58BAEFEF736FF401BB842F6D9032009
:1039E000F8BD3160306820F4802000F0E1FB05462E
:1039F00041F28837306880037FF577AEFEF722FF0B
:103A0000411B0320B942F5D952E7306820F080709D
:103A100000F0CEFB0546022F08D1306880013BD56F
:103A2000FEF710FF00F057FDF7D941E7306880013D
:103A30007FF53DAFFEF706FF00F04DFDF6D937E705
:103A40000044025840F004003067306F40F001003D
:103A50003067FEF7F7FE054641F28837306F800782
:103A60003FF5F6AEFEF7EEFE411B0320B942F5D955
:103A70001EE700F07EFD3067FEF7E4FE054641F2EA
:103A80008837306F80077FF5E3AEFEF7DBFE411B22
:103A90000320B942F5D90BE704F12805B06A40F2DA
:103AA000F33188432ECD0843591E40EA0210B0621C
:103AB0006FF35F214FF4FE024FF47E4000EB452090
:103AC00080B20844A16B02EB01414FF0FE4201F4C9
:103AD000FE010844E16B02EB016101F0FE41084484
:103AE00030634FF6F871F06A20F00100F062706BFD
:103AF0008843A16C40EAC1007063206CF16A21F038
:103B00000C010843F062F06A616C20F00200084387
:103B1000F062F06A40F48030F062F06A40F4003005
:103B2000F062F06A40F48020F062F06A40F0010038
:103B3000F062306840F0807000F03AFB0446306874
:103B400080013FF5B4AEFEF77DFE011B0320022984
:103B5000F5D9ADE6364800F0B9BC00BF08B3B0B542
:103B6000044690F82C000D4628B9002084F82D005A
:103B7000204600F01BF8022084F82C00211D20684C
:103B8000FDF7DFFCD4E900022946FDF72DFD0648CC
:103B9000016841F000410160012084F82C00002000
:103BA000B0BD0120704700BF004000527047B0B563
:103BB000054600F0FAFC01D102240DE095F82C0036
:103BC0000124012808D1022085F82C002868FDF77F
:103BD000F1FC85F82C4000242046B0BDB0B5044669
:103BE00090F82C000D46052803D0022812D0012899
:103BF0000FD1022084F82C0029462068FDF7E3FC51
:103C0000286802280CBF0520012084F82C00002021
:103C1000B0BD0120B0BD000002490A6822F4600274
:103C200000F0C3BA04040058014800F0F1BC00BF22
:103C300010E000E010B540B10446D0F8800008B9AB
:103C400000F0ADFC00F0CEFA08B1012010BDA06A72
:103C500008B100F086FC00F07DFC21F02A018160B3
:103C600000F0EDFCBDE8104001F0C4BB704700005F
:103C7000244A9168B1F1FF3F3BDDB0B5224913689A
:103C800023A44B62137981F828305379CB625369AE
:103C90000B63D3888B8693688B63D368CB639269FD
:103CA0000A641A4B0022292A06D0A55CDD601D6833
:103CB0006D06FCD50132F6E700220A60BDE8B0408F
:103CC0000A68002AFCD002684A6042688A608268FA
:103CD000CA60C2680A6102694A6142698A6182698E
:103CE000CA61C06908620020086008680028FCD02A
:103CF0007047916841F000419160816902318161B2
:103D0000704700BF24ED00E0280300241C10014090
:103D10000D0A456E74657220486172644661756C67
:103D2000745F48616E646C65722C2053797374659E
:103D30006D2048616C742E0D0A0000000268B2F11B
:103D40007F4F18D312F57F0F05D012F57B0F32D0BD
:103D500012F57E0F48D1416821B9836813B9C36851
:103D6000012B30D012F57E0F18BF12F57F0F3BD11B
:103D700059B3012133E0234901F53E0102EA010371
:103D8000214913F1C07F14D013F1A07F2ED010B5BC
:103D9000D0E9013423431A43BDE8104026D1C0685E
:103DA000012808BF4FF08051002808BF4FF0005194
:103DB0001CE003391AE04168B1B9816829B9C168CA
:103DC000134B994201D1114910E0816831B9C168A2
:103DD000022903D10D4800F1100107E0002112F57E
:103DE0007E0F08BF002903D04FF08041084670477E
:103DF00081680129F8D1C07BFE28F5D9034800F17C
:103E00003001F3E7000002FF0400008010000040D2
:103E1000030001001CB50024019401AB00211F2206
:103E2000FEF7E0FA0199002818BF214608461CBD9C
:103E30007CB5044600200190002100224FF400438D
:103E40002046FEF7F1FB50B90F20FDF7E5FE2046B6
:103E5000002100224FF48053FEF7E6FB08B1012059
:103E60007CBD40F6FF70FDF7D7FE4FF4803601AD04
:103E70002046002101222B46FEF7B4FA013E05D070
:103E80009DF804008006F3D500207CBD03207CBD96
:103E90000148FEF724BD00BFDC9B0024FEE770470D
:103EA0008EB0804E80A100222023341D20460AF0CF
:103EB000FDFD05F05DF93C2047F6B041CDE900106D
:103EC00006F124054FF4C0627B487CA10F3020F03E
:103ED0000F03284608F0A4FD10B1306801303060AF
:103EE00040F6D86005907EA1824A6FF0FF031C2047
:103EF00004904FF480500390764802907648CDE9C4
:103F00000050764808F0A8FC10B1306801303060ED
:103F1000724D79494FF40072284608F051FC28464A
:103F200008F034FD10B13068013030606B4808F0A3
:103F300043FE10B1306801303060684809F062F823
:103F400010B1306801303060644808F063FC10B193
:103F50003068013030606948032100680CAD2A46A2
:103F60000AF0BEFE664806212A460AF0B9FE4FF462
:103F7000AC7000214FF487528023CDE90013CDE9C6
:103F80000221CDE9041055485E495FA2002308F0E4
:103F9000D9FE18B16148BA21FDF7D0FA6048009007
:103FA000584A40F2E93101234C4808F043FE0746E5
:103FB00018B15A48C521FDF7C1FA20464FF0FF312C
:103FC0000AF0C0FD60B94F484FF0FF3108F012FE13
:103FD00028B107465148D321FDF7B0FA00E0002789
:103FE000504C4FF000090DF1340A464D0AAE0FF265
:103FF000381BDFF8E88020464FF48051FCF718FBAF
:104000002846002100220023CDE90099CDE902993C
:10401000CDE904A9CDE9069908F030FF0D980528EF
:1040200004D02846642108F0E5FD0746002FE2D1C0
:10403000284631464FF0FF3208F05EFF78B1074660
:1040400028464FF0FF3108F0F3FE284608F054FEF2
:10405000404640F2E9312A4608F020FECBE70A98B4
:104060000BA909AA08F0F0FF0A98214608AA08F04F
:10407000CFFC0B9809990294C2B2CDE90021010E40
:10408000C0F30742C0F3072358460CF02DF828462A
:104090003146642208F05CFF0746304608F04AFDCE
:1040A000A9E700BF380100244170702053656D619D
:1040B00070686F72650000005CAB00244E65745838
:1040C000204D61696E205061636B657420506F6F85
:1040D0006C000000783B0024D5F90008849C002483
:1040E0004E65745820495020496E7374616E636543
:1040F00020300000F501A8C0FC780024FC03002457
:10410000C03A0024A07100245443502053657276B5
:10411000657220536F636B6574000000260B010805
:10412000F9FF0008FC7A00245B256C752E256C7560
:104130002E256C752E256C753A25755D202D3E203B
:1041400027257327200D0A0000230694CDE9045685
:1041500070470091D4F8181441F44041C4F8181481
:10416000D4F8181401F4404100917047608AD4E9F2
:104170000012105C8862608A01306082A18980B27E
:10418000884270474890489838687047BDF80410D6
:10419000BDF806202880704714460E4605460BF0F1
:1041A000DDBB4FF4001020602847104308607047C3
:1041B0003060FEF747BBC2F34622B8EE433A32EE18
:1041C000002A81EE031A21EE021A02EE102AB8EE3E
:1041D000422A32EE002A81EE022ABCEEC22A80ED8B
:1041E000002A70472420C4F880002068016821F06C
:1041F00001010160204601F029B901680A6842F016
:1042000002020A600A6842F001020A60D1F8002D39
:1042100042F00102C1F8002D41F204128B5843F024
:1042200001038B5011447047001BB0F57A7F704733
:104230002369D3F80130B3F1EF3F7047016841F0D3
:1042400001010160016801F001010091009901681C
:1042500041F004010160016801F00401009100993E
:10426000016870473FFA94F484EA3323704783EA85
:1042700033443FFA94F484EA3323704728462146B6
:104280005246334602F043B94FF480700390BC208D
:1042900060F3DF5204927047D7F84805D7F85815F5
:1042A000D7F86425013201310130C7F86425C7F819
:1042B0005815C7F8480570474FF0FF3009F012BE97
:1042C000B0FA80F040097047D5F8E830C5F8E00052
:1042D000D5F8DC20A96C5843013902FA00F0C5F882
:1042E000D8002846704750462146324605F094B91A
:1042F000204609F053BA0020C5F8E000A96CD5F8B3
:10430000DC00C5F8D800481CA864284605F065BD47
:104310002846414607F05EBA204609F03FBA3846C3
:104320004FF0FF3109F0FEB8DBF84810584605F0B1
:104330006BBCDBE90001002380EA30423FFA92F2D5
:1043400082EA302081EA31423FFA92F282EA312158
:10435000CBE9000128464FF08272214602F0D7B81F
:10436000BFF34F8FBFF36F8F7047386840F0010085
:104370003860386800F0010030903098704780460F
:1043800038464A460095FCF7CEBD102020602847ED
:1043900002F0700291427047DAF81C00514640F476
:1043A0000030CAF81C0070470A6822F001020A6057
:1043B000D1F8002D42F00102C1F8002D0A6822F068
:1043C00002020A6070472860FEF73CBAA268D4F87F
:1043D000A8108A42704700902146CDF810802846E8
:1043E000384740462B46CDF800902047D4F8581562
:1043F0000130C4F84805481C7047DBF80800007815
:1044000085F8A900A86C7047DBE90001002380EA69
:1044100030423FFA92F282EA302081EA31423FFA9A
:1044200092F282EA3121CBE900017047201D01217F
:1044300000F01AB9ED0803F0030305EAE474022B57
:104440006FF35F3400EE104AB8EE400A7047DAF8B6
:104450004810002552467047DAF8401000255246B1
:1044600070470968C1F30211515C01F01F01C84097
:1044700080BD201D022100F0F7B80843CAF84800AB
:104480007047DAF84410002552467047002084F83F
:10449000A00084F8A110204670473860FEF7D2B91A
:1044A000F86940F40030F86170478DF82F60CDF85E
:1044B0003080ADF82D507047386840F00200386009
:1044C000386800F00200009000987047016841F0E1
:1044D000020101607047411B032002297047C1F3AC
:1044E000066102EE101AB8EE422A32EE000A81EEA0
:1044F000000ABCEEC00A10EE101A70471A436FF0A3
:10450000FF03224303EB0523704751F8041CB1F16C
:10451000EF3F704700902146CDF810803046384775
:104520000843CAF84400704721F4D07101608168E3
:1045300021F00101816070470843CAF840007047CC
:1045400000222B46204601F0CDB81968C1F3C10105
:10455000C84070472068416821F4904141608168FB
:104560007047204600F0F2BEC4F8DC00D4F8DC004E
:10457000704720F001003067306F20F00400704772
:10458000C2F3064202EE102AB8EE422A32EE002AA8
:1045900081EE022ABCEEC22A80ED012A704700207B
:1045A00084F87C002046FFF761BB90F82C000228BD
:1045B0007047E2681368B3F1EF3F704700910099CC
:1045C000016841F0400101607047016841F001015C
:1045D00001607047515C01F01F01C84080BDB862A6
:1045E0006FF35F214FF47E4000EB42204FF0FE421C
:1045F00080B208444FF4FE0101EB034101F4FE01D7
:104600000844296902EB016101F0FE41084470474A
:10461000016821F002010160704704F124000221C9
:1046200000F082B86FF35F2302EE103AB8EE422A30
:1046300000EE032A03EE102AB7EE000A7047016865
:1046400041F00101016020467047201D002100F06B
:104650000BB804F12400012100F066B804F1240035
:10466000002100F061B80000F8B55F4F0546B86A58
:1046700000F00300032804BF0120F8BD38680C4691
:1046800020F08060FFF709FF06463868000105D575
:10469000FEF7D8F8801B0228F7D941E095E80F0013
:1046A000BE6A26F47C36013946EA0030FFF797FFF0
:1046B000B8636869F96A21F0C0010843F862A86923
:1046C000F96A21F020010843F8624FF6F871F86AA0
:1046D00020F01000F862F86B8843E969012C40EA89
:1046E000C100F863F86A40F01000F8624FF400105F
:1046F00008BF4FF48010002C08BF4FF40020F96A67
:104700000843F862386840F08060FFF7C6FE044650
:104710003868000106D4FEF795F8001B0328F7D38C
:104720000320F8BD0020F8BDF8B52F4F0546B86A44
:1047300000F00300032804BF0120F8BD38680C46D0
:1047400020F08050FFF7A9FE06463868800005D5A6
:10475000FEF778F8801B0228F7D941E095E80F00B2
:10476000BE6A26F07C76013946EA0050FFF737FF33
:1047700038646869F96A21F440610843F862A869FD
:10478000F96A21F400710843F8624FF6F871F86A8B
:1047900020F48070F862786C8843E969012C40EA63
:1047A000C1007864F86A40F48070F8624FF080705D
:1047B00008BF4FF40000002C08BF4FF48000F96AD6
:1047C0000843F862386840F08050FFF766FE044600
:1047D0003868800006D4FEF735F8001B0328F7D3AD
:1047E0000320F8BD0020F8BD00440258FEB50C4877
:1047F000016841F002010160006800F002000090D1
:1048000003200490002003900120029004200190D6
:10481000009801A90348FDF737FF06B080BD00BF2F
:10482000E044025800040258704700000448042184
:104830000160704702484FF480210160704700BF5B
:10484000180402580122826000224260034A02607A
:10485000C96841F07F41C160704700BF000002FF9E
:104860000021C0E90011C0E9021170470B20FF21AF
:1048700000F0CEB810B51D4C03200221A047142033
:104880000AF04EFA03200021A04704200021A0478F
:1048900020204821A04714200AF042FA21200121BB
:1048A000A04717200F21A04741209C21A0474A2064
:1048B0000121A0474B200121A0474B200021A04708
:1048C00056200121A04758200121A0474020032164
:1048D000A0470B20FF21A0470A200121A047092063
:1048E00001212246BDE81040104700BF114A0008D0
:1048F00070B5FFF751FC82200BF008F80BF04CF874
:1049000068B930460BF002F80BF046F838B90BF0F6
:1049100025F883200AF0FAFF0BF03EF880B100245E
:104920000BF02CF8204670BD0AF0D2FF012C287045
:1049300002D10AF0BDFF01E00AF08CFF0135013C15
:10494000002CF1D10124EBE780B51320002100F009
:104950005FF81220BDE8804000F00AB880B5FFF78C
:10496000F3FF062101EA500100F00100084480BD78
:10497000E0B501460DF107000122FFF7B9FF9DF8F0
:1049800007008CBDE0B54020FFF7F2FF40B2B0F168
:10499000FF3F02DD0020002112E00DF10500D721CC
:1049A0000322FFF7A5FF9DF806209DF805009DF85E
:1049B000071002F00F03000140EA121041EA032140
:1049C000034A11808CBD00BF01480088704700BFBA
:1049D0001C28012470B5FFF7DFFB82200AF096FF48
:1049E0000AF0DAFF20B100240AF0C8FF204670BDAB
:1049F00030460AF08BFF0AF0CFFF0028F3D12CB12C
:104A000015F8010B0AF082FF013CF4E70124EBE703
:104A1000E0B502468DF807100DF10700114601229E
:104A2000FFF7D8FF8CBD704710B51A4CA06828B1AD
:104A3000A0680138A06001D10120A07000200121F0
:104A400030280ED0221813694BB11369013B136152
:104A500005D15173137B012B01D1536913610C30C4
:104A6000EEE760686FF00041013060606068884286
:104A700001D1002060600AF0E8FD607801306070CC
:104A8000C0B20A2838BF10BD00206070BDE81040D9
:104A90000AF0DABD980100242448254BD0F8801094
:104AA00041F47001C0F88010196801F00F01062967
:104AB00004D81968072262F303011960B0B5B94937
:104AC0001C4D0A6842F001020A6000220A610C686B
:104AD0002C400C601C68240704D51C68072565F36E
:104AE00003041C60144B8A61CA610A628B62134B17
:104AF000CB62134B0B634A638B63CA630B644A64D8
:104B00000B6823F480230B600A660E490968B2EB38
:104B1000517F02D10C4901220A600C4943F2D202B2
:104B20000A604FF000610160B0BD00BF08ED00E019
:104B3000002000527FEDF6EA000202020000FF01B1
:104B4000800201010010005C088100510040005209
:104B50002DE9F0419CB0FDF743FF12208DF82C00A9
:104B6000032600258DF82F600C958A4F4FF01050CA
:104B70000A900120ADF824004FF48070ADF82D00AC
:104B800009AC2046B8470F208DF82C004FF08078F4
:104B9000FFF78BFC4FF0C0400A9040F20110ADF8D7
:104BA00024002046B84719208DF82C008DF82F607E
:104BB000ADF82D504FF050400A9040F20120ADF872
:104BC00024004FF480300C902046B8470E208DF81A
:104BD0002C00FFF76AFC70480A9040F20130ADF8F3
:104BE00024002046B8470420FDF704FF6B48016805
:104BF00089030BD4FFF7B4FBC0F83C52FFF7B0FBBE
:104C0000016841F400310160FFF7AAFB0168C903A4
:104C100025D40021016743F6E075BFF34F8FC46EC2
:104C2000E308C4F34E32C4F3C9049B0751010134B5
:104C300001EA050627461E44C0F84C6206F14046CC
:104C4000013FF9D12039561E002A3246F0D1BFF378
:104C50004F8F016841F480310160FFF781FBFDF760
:104C600011FE09A84C21FBF7E3FC01A82021FBF76A
:104C7000DFFC0220FDF716FF00200090494C484859
:104C8000016821F001010160016801F00101FFF7F5
:104C900060FA0099D4F818148904FBD5D4F8F410FC
:104CA00041F00201C4F8F410D4F8F41001F002014C
:104CB000009100990021FFF74CFA016841F00101D1
:104CC0000160006800F0010000900098D4F818041A
:104CD0008004FBD502201890CDE91600CDE9120022
:104CE000C021002508261591CDE91A5519964FF4D3
:104CF00080300A90052114910120099009A8FEF73F
:104D0000EDFC00B1FEE740200890CDE905004FF42E
:104D100080610791CDE903560320029004213F20D2
:104D2000019001A8FEF720FB00B1FEE7206840F0EB
:104D300080002060D4F8F40040F00200C4F8F400D1
:104D4000D4F8F40000F0020000900098FDF796FC03
:104D5000D4F8DC0040F00050FFF706FC00F00050F3
:104D600000900098D4F8DC0040F08040FFF7FCFB96
:104D700000F0804000900098D4F8DC0040F0004043
:104D8000FFF7F2FB00F00040009000981CB0BDE877
:104D9000F08100BF952900080000043014ED00E008
:104DA0002C0400580044025809480078012801D119
:104DB000FCF79ABD07484078012801D1FCF7A0BC58
:104DC00005480078012818BF7047FCF7B3BE00BF44
:104DD000D8020024B002002402030024B0B5002150
:104DE000002209290BD000EB410430F8113065880E
:104DF000AB4202D90122258063800131F1E7002115
:104E0000002A4FF00002ECD10630032904D030F81C
:104E1000113001311A44F8E70320B2FBF0F080B200
:104E2000B0BD0000B0B586B000F06CF82548002594
:104E3000016841F040010160006800F0400000900E
:104E4000CDE902550320049008200190009801A9A3
:104E50001D48FDF719FC09F07FFF1C4CA5711C4D86
:104E6000287804282BD8DFE800F003251D1F060052
:104E7000FCF70CFC23E040F6FF7020804FF47F51DC
:104E8000242205F10A000AF05DFCE87A052803D324
:104E90000020E87200F01EF90120A0710020A4F8A3
:104EA0006C000CE00FA000E00AA00BF0BBFDFCF7CB
:104EB000EDFD04E00FA00BF0B5FDFCF7C3FC06B060
:104EC000B0BD00BFE044025800180258FE9A00240A
:104ED0002C020024B3F5CABCBBAF47543931343778
:104EE0000D000000B3F5CABCBBAF47543931310DDA
:104EF00000000000B3F5CABCBBAF47543831310DD8
:104F0000000000002DE9F04387B018484FF0000979
:104F10000827174C0DF10808016841F040010160B5
:104F20000068414600F040000190CDF810900297D3
:104F3000032005900120039001982046FDF7A4FB73
:104F40000C4EC8204FF40025A561B0474FF4FA601D
:104F5000A761B047C820A561B04720464146CDE9CA
:104F60000399FDF791FB07B0BDE8F083E0440258D8
:104F7000001802582DED0008C91A48BF4942801A8E
:104F800048BF404202040020B2F5C81F06DA0904F7
:104F9000B1F5C81F02DA0120002107E005490978B0
:104FA0000131CAB2022A84BF01200021014A1170D6
:104FB000704700BFF87200248F480121006800F09C
:104FC000080081EAD0007047032801D20020704712
:104FD00002460020032900D27047864B1B88023B03
:104FE0008B424FF00001C8BF01219342C8BF01208E
:104FF00008407047F8B57F4F14460E4697F86D206D
:10500000B9793A440129D0710AD13046214600F0DD
:10501000F5F805463046214600F040F9044600E028
:105020003546C949C87A03282FD8DFE800F0021EA8
:105030000B142E480178032937D82846DFE801F001
:10504000371E282E2948017803292ED82846DFE864
:1050500001F01F252E1525480078032825D8DFE804
:1050600000F0171D0D02284621E020480178032991
:105070001BD82846DFE801F0021B120C1349E0435D
:1050800009880C181249E84305E00020C8720DE0B9
:105090000F49E0432C460988084408E00B49E843DF
:1050A0000988014420460C4601E00020002497F8BE
:1050B0006D1007EB41029083481CA2F84440C1B236
:1050C000132988BF002087F86D00F8BD80000024F8
:1050D0008200002405489C4924220078C87201F10E
:1050E0000A004FF47F510AF062BB00BFFC8A002423
:1050F0003D480078012801D1FCF79ABC3B48007874
:10510000012801D1FCF780BD39484078012801D140
:10511000FCF790BBF8B5374FB879002852D08A4ECB
:10512000707901307071C0B201284BD800207071C5
:1051300031480068000745D4FFF724FC0446FFF718
:1051400043FC054620462946FFF73EFFF17830B381
:105150000F2938D3B07806EB40010130B070C0B2EF
:105160000A28CC85A1F856502CD30020B07006F147
:105170002E00FFF733FE0446788006F15600FFF755
:105180002DFE0346B880307900B33189F08822467D
:10519000FFF7F2FE28B3BA88798802201AE079B1C5
:1051A000481EF07000060BD13289F1880320FFF70A
:1051B00021FF0020A6F80300C7F80200FFF756FB06
:1051C0000020B070F8BD481CF070F8BD01202146E9
:1051D0001A463071FFF70EFFD7F80200C6F8060036
:1051E000F8BD00207880F8BDD80200240203002416
:1051F000B0020024FE9A0024101802582DE9F8434A
:10520000514E0D460446B17A307B022908D1E0B1F7
:10521000002D3ED006F1140106F110002C4619E0D5
:10522000F0B1B6F81290F789338B318A0094384682
:105230004A46FBF778FEB38AB18B804638464A4629
:105240000094FBF770FE2C4618E014B306F112012F
:1052500006F10E000A88738CF18B0088009415E02B
:10526000B6F81490378AF38AF189009538464A4691
:10527000FBF759FE738A718BFFF781F84CB10094EC
:10528000738CF18B1FFA88F482B22046FBF74BFE39
:1052900000E0002000B2BDE8F88300BF2DE9FC4724
:1052A000294E0C460546B17A307B02290AD1F0B16D
:1052B000002D44D006F1120006F1100106F10E0790
:1052C0002C461BE000B3B78AB6F810A0738BF189A7
:1052D000009450463A46FBF726FE738AF18A8046D0
:1052E00050463A460094FBF71EFE2C461CE034B3B1
:1052F00006F1140006F1200106F110070288B38CB4
:1053000009883888009417E0B6F81290B6F810A013
:10531000F789B38B0095384651464A46FBF703FEA2
:10532000B38A318BFFF72BF84CB1B38C1FFA88F19D
:1053300082B2009408465146FBF7F5FD00E00020DC
:1053400000B2BDE8FC8700BF2C02002410B5816AC2
:10535000CA0706D00268C36A546824F400342343A1
:1053600053608A0706D50268036B546824F48034BE
:10537000234353604A0706D50268436B546824F4FC
:105380008024234353600A0706D50268836B546860
:1053900024F4004423435360CA0606D50268C36B55
:1053A000946824F48054234393608A0606D50268E7
:1053B000036C946824F40054234393604A060FD589
:1053C0000268436C546824F480141C435460B3F5A1
:1053D000801F05D1836C546824F4C00423435360B8
:1053E000090606D50168C06C4A6822F40022104301
:1053F000486010BDBCB504460020C4F88800FDF725
:1054000021FA054620680168090708D56FF07E403B
:1054100000904FF40011FFF793F858B92068006826
:10542000400709D56FF07E4000904FF48001FFF7F0
:1054300087F808B10320BCBD00202021C4F88010EB
:1054400084F87C00C4F88410BCBD0000FEB504469E
:10545000016880688F4ED4E903230D6835401843F6
:105460006669636E30438C4E18438C4B2843E56964
:1054700028430860486820F4405010434860A06901
:10548000B1421CBF226A10438A681A40844B104301
:105490008860626AC86A20F00F001043C8628148C1
:1054A00081421CBF804881420BD0804881421CBF92
:1054B0007F48814205D07F4881421CBF7E4881429F
:1054C00008D1586D00F00700062819D27F4F3844E4
:1054D000077816E0B1420CD07848814202D0784873
:1054E00081420DD1586DC0F3C200062808D2784F12
:1054F000EDE7986D00F00700062801D271A7E6E7F6
:1055000080277448B1420FD00121B5F5004F1BD15F
:10551000082F25D8DFE807F00569A8A877A8A8A86C
:105520006F00FEF747F872E0402F40D0042F36D0CE
:10553000082F29D0102F2BD0202F3AD0022F40F047
:105540009280FDF7D1FA2EE0082F13D8DFE807F09C
:1055500005508C8C748C8C8C5700FEF72BF86FE008
:10556000102F00F08980202F53D0402F7CD14FF492
:1055700000404EE0102F00F08680202F62D0402F98
:1055800072D14FF400405DE06846FDF7FDFA09E096
:105590001868800650480CD5FEF7D7FF09E068462A
:1055A000FDF7AEFA019800285BD0626A01E04FF483
:1055B00000404A4931F812106268B0FBF1F002EB8A
:1055C000420188424FD3B0EB023F4CD8010E00029B
:1055D00010EB520041F100010023FAF7BDFFA0F5E6
:1055E00040713F4A91423AD33DE0FDF7EDFF0EE0B6
:1055F000FDF7EAFF24E06846FDF7C6FA06E06846D4
:10560000FDF7C2FA1BE06846FDF77AFA019840B34D
:10561000626A324931F81210B0FBF1F061684A0851
:1056200002EB4000B0FBF1F04FF6F07101401AD0F0
:10563000C0F34200084312E06846FDF761FA0198A2
:1056400078B1626A254931F81210B0FBF1F0616857
:1056500000EB5100B0FBF1F080B2102803D32168B9
:10566000C860002100E0012100204FF00112C4E9D0
:105670001A2020670846FEBD186880061648C8D55F
:10568000FEF763FFC5E7186880061348DAD5FEF712
:105690005CFFD7E7F369FFCF000C0058FFF4FF1160
:1056A000004402580044004000480040004C0040C4
:1056B0000050004000780040007C00400014014091
:1056C0000010014002040810204000004E0A0108AA
:1056D000480A010800093D000090D003640A01084F
:1056E00000FD0F002DE9F843DDF8209004469846B0
:1056F00016460F46006809F10105C1693940C91B0A
:10570000B1FA81F14909B1421DD1002DF5D0FDF763
:1057100099F8A0EB0802206801684A4516D8B9F14B
:10572000000F13D04907E8D5C1690905E5D54FF445
:10573000006101620168FEF7F7FE2020C4F88000D6
:105740008820842106E00020BDE8F883FEF7ECFE07
:1057500084208021202262502250002084F87C0086
:105760000320BDE8F8830000034800F007B800BF3D
:1057700001482C3000F002B8D401002470B5044672
:105780000068C66905688168B10616D5406AA168D7
:10579000E28A8854E18A4A1CE282E18992B28A4212
:1057A00001D30022E282628B8A4202D2618B0131F4
:1057B0006183616A09B1C0B28847300618D52806EE
:1057C00016D5A08A58B1012084F82800FEF7CEFC37
:1057D00001D300206082A08A0138A08208E02068FE
:1057E000016821F080010160016841F04001016021
:1057F000700617D5680615D5A08A40B1FEF7B6FC2D
:1058000001D300206082A08A0138A0820AE02168CA
:10581000206A0A6822F040020A6000B18047002036
:1058200084F828002068016A41F001010162016AE0
:1058300041F002010162016A41F004010162016A62
:1058400041F008010162016A41F010010162016A40
:1058500041F040010162016A41F480710162016A14
:1058600041F400710162016A41F400310162016A90
:1058700041F480110162016A41F02001016270BDB2
:10588000FEE770B50446C86940B3EFF3108272B604
:105890004869CB69884208D01D688D4201D11860E3
:1058A00048698B698361586101E000201860002518
:1058B000086BCD610D63D4F8F01B0139C4F8F01BFF
:1058C00082F3108850B1D4F85815C669C56101310A
:1058D000C4F8581503F000FC3046F3E7002070BD13
:1058E00070B505460C46084611461646FAF7A0FE66
:1058F000342004F13403B6FBF0F1481E024606469C
:1059000026B143F8283C013E3433F9E743F8284CEC
:10591000243B2AB1A3F1440643F83469013AF8E77D
:10592000C5F8141C0021C5F8E81B0C4A0C4B0D4EA1
:10593000C5F8104CC5F8EC4BC5F8FC6BC5F8003C3D
:10594000C5F8042C0449C5F8081C342100FB0140AB
:105950002061002070BD00BF415D0008FD5E0008B1
:10596000215E0008695900082DE9F0410546D0F88C
:10597000EC0BB8B106690F462846904605F6EC34A4
:105980003146FFF77EFFEFF3108072B63968F7619A
:1059900059B1396871618969B1614E61396801F144
:1059A000180704E01720BDE8F081C6E90566B8F1E4
:1059B000010F3E6006D1F1688E4214D032690A614F
:1059C000D16012E021688E422DD0D6E90323136105
:1059D000DA60F16009693161CE60F16801F11002AD
:1059E0004FF43F6113E000212160D5F8E84B002C13
:1059F00003BF05F6E834F66006F11002F4601EBF3E
:105A000054F8101F316101F10C024FF4B1611660BE
:105A100026606A58C6F8008001326A5080F3108808
:105A20000020BDE8F0814FF43F61F2E7EFF3108210
:105A300072B6D0F8043C63B1D0F8F43B9BB1D0F817
:105A4000F83BC0F8F81B0020D961C86182F31088C8
:105A50007047D0F884350133C0F88435084682F3A6
:105A6000108803F0D9BA0023C0F8F41BC0F8F81B63
:105A7000CB6100F5EA60102182F31088002207F064
:105A8000BFBB2DE9F04F8BB08046486A8B461B2880
:105A900032D9DBF80800041D1ECC81EA31463FFAFA
:105AA00096F686EA312182EA324641603FFA96F65E
:105AB00086EA322683EA334286603FFA92F282EA2D
:105AC000332784EA34424369C7603FFA92F282EA9C
:105AD000342283EA33440261FEF7C4FB43618369E5
