:020000040800F2
:10000000C0790024B1020008273B0008410B00081A
:10001000233B0008510E0008294F00080000000093
:10002000000000000000000000000000C302000803
:100030000D0F0008000000008103000825030008E0
:10004000CB020008CB020008CB020008CB0200085C
:10005000CB020008CB020008CB020008CB0200084C
:10006000CB020008CB020008CB020008CB0200083C
:10007000CB020008CB020008CB020008CB0200082C
:10008000CB020008CB020008CB020008CB0200081C
:10009000CB020008CB020008CB020008CB0200080C
:1000A000CB020008CB020008CB020008CB020008FC
:1000B000B1430008CB020008CB020008CB020008C5
:1000C000CB020008CB020008CB020008CB020008DC
:1000D000CB020008F94C0008CB020008094D0008CB
:1000E000CB020008CB02000800000000CB02000891
:1000F000CB020008CB020008CB020008CB020008AC
:10010000CB020008CB020008CB020008CB0200089B
:10011000CB020008CB020008CB020008CB0200088B
:10012000CB020008CB020008CB020008CB0200087B
:10013000CB020008CB020008CB020008CB0200086B
:1001400000000000000000000000000000000000AF
:10015000CB020008CB020008CB020008CB0200084B
:10016000CB020008CB020008CB020008CB0200083B
:10017000CB020008CB020008CB0200080000000000
:10018000CB020008CB020008CB020008CB0200081B
:10019000CB020008CB020008CB020008CB0200080B
:1001A000CB020008CB020008CB020008CB020008FB
:1001B000CB020008CB020008CB020008CB020008EB
:1001C000CB020008CB020008CB020008CB020008DB
:1001D000CB020008CB020008CB020008CB020008CB
:1001E000CB020008CB020008CB020008CB020008BB
:1001F000CB020008CB020008CB020008CB020008AB
:10020000CB020008CB020008CB020008CB0200089A
:10021000CB020008CB020008CB020008CB0200088A
:10022000CB020008CB020008CB020008000000004F
:10023000CB020008CB02000800000000CB0200083F
:10024000CB020008CB020008CB020008CB0200085A
:10025000CB020008CB020008CB020008CB0200084A
:10026000CB020008CB020008CB020008CB0200083A
:10027000CB020008CB020008CB02000800000000FF
:10028000CB020008CB020008CB02000800000000EF
:1002900000000000CB020008DFF810D000F0A4FB43
:1002A00000480047977E0008AFF30080C079002423
:1002B0000648804706480047FEE7FEE7FEE7FEE700
:1002C000FEE7FEE7FEE7FEE7FEE7FEE76D42000819
:1002D0009902000872B61748174901F1040101603C
:1002E0004FF0E0201549C0F8081D1548134909686A
:1002F00001604FF0E020134941614FF007010161B7
:100300004FF00001C0F8181D4FF07F41C0F81C1DD0
:100310000D49C0F8201D7047FEE7FEE701B5BDE8B6
:100320000140704701B500F09FF8BDE801407047FB
:10033000FEE7FEE784000024C079002400000008E6
:10034000EC0000247F1A06000000FF407047000008
:10035000704700004FF00000324A1060EFF3148045
:1003600020F0040080F3148862B64FF080504FF004
:10037000E021C1F8040DBFF34F8FBFF36F8FFEE78D
:1003800040F2F000C2F2004040F2F402C2F2004239
:100390004FF000030168A9B10360EFF3098C2CE969
:1003A000F00F1EF0100F01D12CED108A40F2501406
:1003B000C2F200444CF804ED2568C1F808C00DB144
:1003C0008D61236072B61168C9B1016062B64F6871
:1003D00040F25014C2F200448D6907F101074F60EA
:1003E0002560D1F808C05CF804EB1EF0100F01D1B5
:1003F000BCEC108ABCE8F00F8CF30988704772B629
:100400001168016009B962B6F9E74FF000674FF073
:10041000E028C8F8047D62B6D9E770477047B0EEAF
:10042000400A704710010024026922F00702A2F17D
:1004300044026FF0020313604FF0000353609360B7
:10044000D360136153619361D3611362536293620A
:10045000D362136353634FF0FF339363D1634FF061
:10046000807313648260704740F22011C2F2004131
:10047000086800F10100086040F25013C2F2004326
:100480001A6852B1A2F101021A6032B940F2241383
:10049000C2F200434FF00100186040F23011C2F286
:1004A0000041086802683AB140F23413C2F20043D6
:1004B0004FF001021A600EE000F1040040F22C132C
:1004C000C2F200431A68904204D140F22813C2F2EB
:1004D00000431868086040F22413C2F200431A680F
:1004E0002AB940F23411C2F20041086868B301B57C
:1004F00040F23411C2F20041086808B106F05AFE19
:1005000040F22413C2F200431A68E2B106F064FD1F
:1005100040F21010C2F200400168A1B940F2F000B0
:10052000C2F20040016840F2F402C2F200421368D5
:100530004EF60450CEF2000040F20002C1F200027A
:10054000994200D00260BDE80140BFF34F8F704771
:100550002DE9F05F0546002092469B4688460646F8
:10056000814640241BE0284641464746224600F08B
:1005700072F853465A46C01A914110D31146184694
:10058000224600F059F82D1A67EB01084F46224623
:100590000120002100F050F817EB00094E41201E09
:1005A000A4F10104DFDC484631462A464346BDE853
:1005B000F09F40EA01039B0703D009E008C9121F1E
:1005C00008C0042AFAD203E011F8013B00F8013B0D
:1005D000521EF9D27047D2B201E000F8012B491E39
:1005E000FBD270470022F6E710B513460A460446D0
:1005F0001946FFF7F0FF204610BD034611F8012B06
:1006000000F8012B002AF9D11846704730B50B4687
:10061000014600202022012409E021FA02F59D4232
:1006200005D303FA02F5491B04FA02F52844151E06
:10063000A2F10102F1DC30BD202A04DB203A00FAED
:1006400002F1002070479140C2F1200320FA03F329
:10065000194390407047202A04DB203A21FA02F027
:100660000021704721FA02F3D040C2F120029140EC
:100670000843194670472DE9FE4F804681EA030082
:10068000C00F0C46009021F0004123F00045B8EB6C
:100690000200A94105D24046214690461C460B4621
:1006A000024623F00040104347D0270DC7F30A004D
:1006B000C3F30A510290401A019040286BDAC3F349
:1006C000130040F4801B0098924620B10023D2EB27
:1006D000030A63EB0B0B01985946C0F140025046E8
:1006E000FFF7AAFF06460D4650465946019A00F00C
:1006F0008DF910EB08006141002487EA115284EA69
:10070000E7731A4340D0009A62B3019A012A4FEA74
:10071000075215DC001B61EB02014FF0004202EAB8
:100720000752CDE90042001C41F5801132462B46AC
:1007300000F08DF903B0BDE8F08F40462146F9E79F
:10074000001B61EB0201001C41F5801300185B41A6
:100750002018A2F5001747EB030140EAD570B6193F
:100760006D4111E06D084FEA360645EAC0754FEA63
:100770000752001B61EB0201001C41F58011490882
:100780004FEA30000019514132462B4603B0BDE814
:10079000F04F00F04DB90098012240000023D0EB4B
:1007A000020263EBE073009821464FEAE074B8EB75
:1007B000000061EB0401E9E783F000435BE781F0AF
:1007C000004158E72DE9FE4F81EA030404F000449C
:1007D00021F0004100944FF0000B23F0004350EA59
:1007E00001045ED052EA03045BD0C3F30A54C1F3A0
:1007F0000A552C44A4F2F3340194A0FB0254C1F333
:10080000130141F48011C3F3130343F4801301FB7C
:10081000024400FB034E840A970A44EA815447EAE3
:100820008357A4FB076802958D0A05FB07854FEAED
:10083000932C04FB0C542705029D4FEA065847EA07
:100840001637B5EB08056EEB070C870E920E47EADC
:10085000811742EA8312A7FB0201B6EB0B0164EB9E
:1008600000042B0D43EA0C335E1844EB1C50DA46AF
:100870005146E7FB0201C5F313044FEA0B3343EA89
:1008800014534FEA0432019C43EA0603A4F10C041A
:100890000294009CCDE900B400F0D9F803B0BDE8A3
:1008A000F08F00200146F9E72DE9F04D81EA0304BD
:1008B00004F0004B21F0004514464FF0000A23F0ED
:1008C000004150EA050220D054EA01021DD0C5F3D0
:1008D0000A570246C5F31303C1F31300C1F30A56C6
:1008E00040F4801543F48013A7EB0608101BD6468E
:1008F00008F2FD3873EB050002D308F1010801E0AE
:1009000092185B41B8F1000F03DA00200146BDE800
:10091000F08D00204FF48011064684460EE0171B30
:1009200073EB050705D3121B63EB050306434CEA83
:10093000010C49084FEA300092185B4150EA010768
:10094000EDD152EA030012D082EA040083EA0501E5
:10095000084305D0101BAB4106D20122002306E05C
:1009600000224FF0004302E06FF0010253101AEB37
:1009700006004CEB085110EB0A0041EB0B01BDE8FF
:10098000F04D00F055B8C1F30A52C1F3130140F223
:10099000FF3341F480119A4202DA00200146704789
:1009A00040F233439A42A2F2334202DC5242FFF752
:1009B00052BEFFF741BE000030B5041E71F10004C5
:1009C00004DB4FF00044404264EB0101141E73F15C
:1009D000000405DB1C464FF00043524263EB040366
:1009E000994208BF904230BD064C074D06E0E068D2
:1009F00040F0010394E8070098471034AC42F6D366
:100A0000FFF74EFC2480000844800008202A06DB03
:100A1000CB17203A41FA02F043EAE07306E041FACC
:100A200002F3D040C2F120029140084319467047BA
:100A300010B5141E73F1000408DA401C41F10001E6
:100A400092185B411A4301D120F0010010BD2DE93D
:100A5000F04D92469B4611B1B1FA81F202E0B0FA34
:100A600080F220329046FFF7E7FD04460F4640EA49
:100A70000A0041EA0B0153465A46084313D0114677
:100A800053EA010019D0C8F140025046FFF7E3FDD8
:100A900005460E46504659464246FFF7CDFD0843EF
:100AA00005D0012004E020463946BDE8F08D002045
:100AB000054346EAE0762C4337430A986305E40A87
:100AC000A0EB08000022FD0A44EA47540A3002D590
:100AD00000200146E9E7010510196941DDE90845F3
:100AE00000196941BDE8F04DA2E770B58C1810F807
:100AF000015B15F0070301D110F8013B2A1106D163
:100B000010F8012B03E010F8016B01F8016B5B1E7C
:100B1000F9D12B0705D40023521E0DD401F8013B57
:100B2000FAE710F8013BCB1A921C03E013F8015BC3
:100B300001F8015B521EF9D5A142D8D3002070BD47
:100B40001EF0040F0CBFEFF30880EFF3098002F0F2
:100B5000E5BD000010B53423002202A1054806F0CF
:100B6000ABFC10BD4170705072696E746653656D58
:100B700070000000A84D002405A000F049F905E030
:100B8000022007F0F2F8642005F0C8FCF8E7000046
:100B90004170705461736B436F6DC8CECEF1BFAAC4
:100BA000CABCD6B4D0D00D0A0000000000B587B092
:100BB000B420012100220323CDE90332CDE9051041
:100BC0000903194ACDE9011300920023174A18A11D
:100BD0001A4806F05BFDB420012100220423CDE970
:100BE0000332CDE905100903154ACDE9011300923E
:100BF0000023144A14A1184806F048FDB42001212E
:100C000000220523CDE90332CDE905100903134A7B
:100C1000CDE9011300920023114A12A1154806F0F4
:100C200035FD07B000BD0000C8120024990C000873
:100C3000417070204D73702050726F0010120024AC
:100C4000383400245D0D0008417070205461736BCE
:100C500020557365724946008033002480230024A8
:100C6000790B0008417070205461736B20434F4D25
:100C700000000000C82200240BE0EFF3108101F017
:100C8000010072B603490968491C024A116000B9A3
:100C900062B6F2E70400002403E04FF4FA7005F0B6
:100CA0003DFCFAE702F040FF02F05AFB06F0A4FE1A
:100CB000FFF77CFFFFF74EFF04E003F0C1F90120CE
:100CC00005F02CFCF9E7000002E0C82005F026FC46
:100CD0001B4800780028F8D01A4800686421B0FB4F
:100CE000F1F0184908600846006820B99FED160A1F
:100CF000164880ED000A13480068642148431449EF
:100D0000086000BF124800681249086000201049BE
:100D10000860104890ED000AF8EE400A094890ED8E
:100D2000000AB8EE400A80EE801A9FED0B0A30EE02
:100D3000410A064880ED000A642005F0EFFBE1E778
:100D4000000000240C000024000000000800002423
:100D500004000024100000240000C84230E006F027
:100D600031FE0446002C28D0012C06D0042C07D0DC
:100D7000072C0CD0162C1ED110E000F0C9F81BE097
:100D800010A000F045F8154806F084FD14E014A00A
:100D900000F03EF8114806F069FD0DE016A000F0E5
:100DA00037F80E4806F08AFD0C4806F035FD0B4872
:100DB00006F05CFD00E000BF00BF142005F0AEFBB4
:100DC000CDE700004170705461736B434F4DC8CE46
:100DD000CEF1B9D2C6F00D0A00000000C8220024EE
:100DE0004170705461736B434F4DC8CECEF1BBD68A
:100DF000B8B40D0A000000004170705461736B4379
:100E00004F4DC8CECEF1B8B4CEBB0D0A00000000E5
:100E10000FB400B5B5B037A80190C92102A8019B55
:100E2000369A04F041F900200190411E064806F070
:100E3000BFFB02A905A004F027F9034806F0FCFB5C
:100E400035B05DF814FB0000A84D002425730000A8
:100E500000BFFEE710B500BF2A48006800F400306C
:100E600000B115E0BFF34F8FBFF36F8F002026490D
:100E70000860BFF34F8FBFF36F8F2248006840F4C4
:100E8000003020490860BFF34F8FBFF36F8F00BF62
:100E900000BF1C4B1B6803F4803303B130E0002318
:100EA000184C70342360BFF34F8F231F1868C0F3B2
:100EB0004E3100BFC0F3C90200BF43F6E07303EA3E
:100EC00041134FF0404404EA827423430E4C103423
:100ED000236000BF00BF131EA2F10102EDD10B1E63
:100EE000A1F10101E6D1BFF34F8F064B1B6843F41C
:100EF0008033044C2360BFF34F8FBFF36F8F00BF6D
:100F000010BD000014ED00E050EF00E0704700005D
:100F10007CB5184C1848FFF77BFF184890ED000A85
:100F2000B7EEC00A53EC102B15A0FFF771FF124863
:100F3000FFF76EFF19A0FFF76BFF27A0FFF768FF11
:100F400014E0D4F8A8202169891AA06ACDE900101C
:100F5000A5682069431B2FA06269E16AFFF758FF6B
:100F6000D4F888400348844200D101E0002CE8D145
:100F700000BF7CBD58010024E07F00080800002469
:100F80004F5320435055205573616765203D202500
:100F9000352E326625250D0A0000000020C8CECE71
:100FA000F1D3C5CFC8BCB620C8CECEF1D5BBB4F303
:100FB000D0A120B5B1C7B0CAB9D3C3D5BB2020D703
:100FC000EEB4F3D5BBCAB9D3C3202020C8CECEF12E
:100FD000C3FB0D0A000000002020205072696F2022
:100FE00020202020537461636B53697A6520202090
:100FF000437572537461636B202020204D617853D8
:101000007461636B2020205461736B6E616D650D9C
:101010000A000000202020253264202020202020EB
:101020002020253564202020202020253564202004
:1010300020202020202535642020202020202573FA
:101040000D0A000001B9704700BFFEE770B5044605
:10105000B3F5804F13D1D1E9000540EA05108D6842
:1010600040EA05208D6928438D8940EA054054F8FF
:101070002250064E3540284344F8220003E06FF02A
:10108000704044F82200002070BD00000000F0CF46
:1010900070B50246086852F8200020F001000E6882
:1010A00042F826008868082801D1402500E0002584
:1010B000486828438E683043CE6830430E69304319
:1010C0004E6930438E693043CE6930430E6A3043F7
:1010D0004E6A30438E6A3043CE6A40EA0603086B9C
:1010E0000343486B0343886B0343114C44F480145F
:1010F00044F4001444F4E024086852F82000A043AB
:1011000018430E6842F82600086BB0F5801F07D11F
:10111000086828B1106820F480100E6B304310600E
:10112000086818B110684E6B30431060002070BD25
:101130007FFB080030B50346D1E9000540EA051001
:101140008D6840EA05208D8940EA0545088A401EE1
:1011500045EA0055087D801E45EA00608D692843F8
:10116000551C53F8255005F040452843551C43F8BD
:101170002500186800F48010B0F5801F0BD1586866
:1011800020F47004088A401E44EA0054586820F491
:10119000700020435860002030BD00000348006804
:1011A00040F0010001490860704700002004005829
:1011B000F8B502460023734DDEE001279F400E681C
:1011C00006EA0704002C71D04E68012E08D04E6844
:1011D000022E05D04E68112E02D04E68122E13D169
:1011E00090685F000326BE40B0435F00CE68BE40FB
:1011F00030439060506801269E40B0430E79C6F39C
:1012000000169E4030435060D0685F000326BE4009
:10121000B0435F008E68BE403043D0604E68022EFF
:1012200002D04E68122E13D1DF0802F1200656F8C4
:1012300027005E07F70E0F26BE40B0435F07FF0E84
:101240000E69BE403043DF0802F1200646F8270051
:1012500010685F000326BE40B0430E7906F0030617
:101260005F00BE40304310604E6806F08056B6F115
:10127000805F1BD100BF444E366846F00206424FE5
:101280003E603E46366806F00206009600BF00BF8C
:101290003E4E9F0856F827009E07370F0F26BE4088
:1012A000B0433B4EB24202D100262EE063E0394EFD
:1012B000B24201D1012628E0374EB24201D10226C6
:1012C00023E0364EB24201D103261EE0344EB24234
:1012D00001D1042619E0334EB24201D1052614E0B3
:1012E000314EB24201D106260FE0304EB24201D15A
:1012F00007260AE02E4EB24201D1082605E02D4E07
:10130000B24201D1092600E00A269F073F0FBE40E6
:1013100030431E4E9F0846F827002868A0434E68B9
:1013200006F48036B6F5803F00D120432860686817
:10133000A0434E6806F40036B6F5003F00D12043C6
:1013400068604FF0B0463068A0434E6806F48016DF
:10135000B6F5801F00D120434FF0B0463060706872
:10136000A0434E6806F40016B6F5001F00D12043D6
:101370004FF0B04670605B1C0E68DE40002E7FF4BC
:101380001CAFF8BD80000058F4440258080400580F
:10139000000002580004025800080258000C0258CD
:1013A000001002580014025800180258001C02587D
:1013B000002002580024025801480068000C7047C1
:1013C0000010005C10B50F48006810B905F0E6FE8B
:1013D00010BD0D480068840B0CE000BF00BF00BFCB
:1013E00000BF00BF00BF00BF00BF00BF00BF00BF05
:1013F00000BF641E002CF0D104480068401C034963
:101400000860E5E7000100244800002438000024BB
:1014100010B5032000F0D4F801F0A2FA10490968D1
:10142000C1F303210F4A515C01F01F0120FA01F4BE
:101430000B48006800F00F001146085C00F01F0028
:1014400024FA00F008490860084804600F2000F002
:101450000FF808B1012010BD00F060F80020FAE795
:1014600018440258D07F00084C0000244800002493
:1014700001460020704700004178154A116001784C
:10148000F9B1121D41681160017B0907C27A41EA76
:101490000261827A41EAC241427B41EA8241827B17
:1014A00041EA4241C27B41EA0241427A41EA0221D9
:1014B000027A41EA420102781143054A083211607A
:1014C00005E00021024A121D1160121D11607047D3
:1014D00098ED00E0BFF35F8F0548006820F480308E
:1014E000034908600020024970310860704700001D
:1014F00024ED00E040F00101074A1160064970390F
:10150000096841F48031044A703A1160BFF34F8F8B
:10151000BFF36F8F7047000094ED00E07047014605
:10152000084600280DDB00BF00BF00F01F030122AA
:101530009A4043099B0003F1E023C3F8002100BF58
:1015400000BF00BF70472DE9F05F80460D4616468C
:1015500003F0C4FD074639462A46334601F007002A
:10156000C0F1070ABAF1040F02D94FF0040A01E0F2
:10157000C0F1070AD14600F1040ABAF1070F02D2FE
:101580004FF0000A01E0A0F1030AD4464FF0010A2F
:101590000AFA09FAAAF1010A0AEA020A0AFA0CFA94
:1015A0004FF0010B0BFA0CFBABF1010B0BEA030B39
:1015B0004AEA0B042146404603F098FDBDE8F09F3F
:1015C00000BF00F00702064B19684FF6FF031940F1
:1015D000044B0B4343EA0221014B196000BF7047E3
:1015E0000CED00E00000FA0510B501F06FF90549B7
:1015F0000968C1F30211044A515C01F01F01C8409F
:1016000010BD000020440258D07F000870B501468C
:10161000844D2D6805F00303824D2D68C5F3053018
:10162000804D2D1D2D68C5F300147E4D14352D6899
:10163000C5F3CC0515FB04F501EE105AB8EE411ABE
:10164000F0EE410A00286FD023B1012B4ED0022BBF
:101650006BD16BE0734D283D2D68C5F340153DB34C
:10166000704D283D2D68C5F3C1066F4D25FA06F271
:1016700001EE102AF8EE411A01EE100AB8EE411AF6
:1016800081EE812A9FED691AC0EE811A654D1035F1
:101690002D68C5F3080501EE105AB8EE411A31EE77
:1016A000811AF7EE001A31EE211A22EE010A1CE02F
:1016B00001EE100AB8EE411ADFED5D1A81EE812AC3
:1016C0009FED5A1AC0EE811A564D10352D68C5F39C
:1016D000080501EE105AB8EE411A31EE811AF7EE04
:1016E000001A31EE211A22EE010A5BE001EE100A27
:1016F000B8EE411ADFED4F1A81EE812A9FED4B1AA9
:10170000C0EE811A474D10352D68C5F3080501EE6E
:10171000105AB8EE411A31EE811AF7EE001A31EE86
:10172000211A22EE010A3DE077E01DE001EE100AE9
:10173000B8EE411A9FED402AC2EE011A9FED3B1A06
:1017400080EE812A374D10352D68C5F3080501EE6E
:10175000105AB8EE411A32EE011AB7EE002A31EEF5
:10176000021A21EE810A1DE001EE100AB8EE411ABC
:10177000DFED301A81EE812A9FED2C1AC0EE811A1E
:10178000284D10352D68C5F3080501EE105AB8EE46
:10179000411A31EE811AF7EE001A31EE211A22EECB
:1017A000010A00BF00BF1F4D10352D68C5F3462547
:1017B00001EE105AB8EE411AF7EE001A31EE211A76
:1017C000C0EE011ABCEEE11A81ED001A154D10357C
:1017D0002D68C5F3064501EE105AB8EE411AF7EE32
:1017E000001A31EE211AC0EE011ABCEEE11A81EDA9
:1017F000011A0C4D10352D68C5F3066501EE105A1F
:10180000B8EE411AF7EE001A31EE211AC0EE011AB5
:10181000BCEEE11A81ED021A03E000250D604D6077
:101820008D6070BD284402580090D003000000462F
:101830000024744C0024744A20BCBE4B70B5014691
:10184000844D2D6805F00303824D2D68C5F30550C6
:10185000804D2D1D2D68C5F300247E4D1C352D684F
:10186000C5F3CC0515FB04F501EE105AB8EE411A8C
:10187000F0EE410A00286FD023B1012B4ED0022B8D
:101880006BD16BE0734D283D2D68C5F340153DB31A
:10189000704D283D2D68C5F3C1066F4D25FA06F23F
:1018A00001EE102AF8EE411A01EE100AB8EE411AC4
:1018B00081EE812A9FED691AC0EE811A654D1835B7
:1018C0002D68C5F3080501EE105AB8EE411A31EE45
:1018D000811AF7EE001A31EE211A22EE010A1CE0FD
:1018E00001EE100AB8EE411ADFED5D1A81EE812A91
:1018F0009FED5A1AC0EE811A564D18352D68C5F362
:10190000080501EE105AB8EE411A31EE811AF7EED1
:10191000001A31EE211A22EE010A5BE001EE100AF4
:10192000B8EE411ADFED4F1A81EE812A9FED4B1A76
:10193000C0EE811A474D18352D68C5F3080501EE34
:10194000105AB8EE411A31EE811AF7EE001A31EE54
:10195000211A22EE010A3DE077E01DE001EE100AB7
:10196000B8EE411A9FED402AC2EE011A9FED3B1AD4
:1019700080EE812A374D18352D68C5F3080501EE34
:10198000105AB8EE411A32EE011AB7EE002A31EEC3
:10199000021A21EE810A1DE001EE100AB8EE411A8A
:1019A000DFED301A81EE812A9FED2C1AC0EE811AEC
:1019B000284D18352D68C5F3080501EE105AB8EE0C
:1019C000411A31EE811AF7EE001A31EE211A22EE99
:1019D000010A00BF00BF1F4D18352D68C5F346250D
:1019E00001EE105AB8EE411AF7EE001A31EE211A44
:1019F000C0EE011ABCEEE11A81ED001A154D183542
:101A00002D68C5F3064501EE105AB8EE411AF7EEFF
:101A1000001A31EE211AC0EE011ABCEEE11A81ED76
:101A2000011A0C4D18352D68C5F3066501EE105AE4
:101A3000B8EE411AF7EE001A31EE211AC0EE011A83
:101A4000BCEEE11A81ED021A03E000250D604D6045
:101A50008D6070BD284402580090D00300000046FD
:101A60000024744C0024744A20BCBE4B2DE9F04184
:101A700004460025A846206800F00060B0F1006F21
:101A800030D1606E48B1B0F5801F0DD0B0F5001FA9
:101A900010D0B0F5401F15D113E0F948006840F4AC
:101AA0000030F74908600FE00221201D02F058F8CD
:101AB000054609E0022104F1240002F003F905467D
:101AC00002E001E0012500BF00BF55B9EC48243019
:101AD000006820F44010616E0843E9492431086031
:101AE00000E0A846208800F48070B0F5807F2DD1FA
:101AF000606D05281AD2DFE800F0030A10171800FD
:101B0000DF48006840F40030DD49086010E0002143
:101B1000201D02F025F805460AE0002104F124000A
:101B200002F0D0F8054603E002E001E0012500BF25
:101B300000BF55B9D2482430006820F00700616D1D
:101B40000843CF492431086000E0A846208800F40B
:101B50000070B0F5007F33D1A06D802817D003DC72
:101B600040B140281CD10CE0C02817D0B0F5807FD0
:101B700016D114E0C248006840F40030C049086043
:101B800010E00021201D01F0EBFF05460AE00021D6
:101B900004F1240002F096F8054603E002E001E0BB
:101BA000012500BF00BF55B9B5482430006820F4B6
:101BB000E070A16D0843B2492431086000E0A846F6
:101BC000208800F48060B0F5806F38D1D4F8A4008C
:101BD000B0F5800F19D004DC50B1B0F5001F1DD155
:101BE0000DE0B0F5C00F17D0B0F5000F16D114E01E
:101BF000A348006840F40030A149086010E00021CB
:101C0000201D01F0ADFF05460AE0002104F124008B
:101C100002F058F8054603E002E001E0012500BFAC
:101C200000BF5DB996482C30006820F46000D4F8FD
:101C3000A410084392492C31086000E0A84620888F
:101C400000F40060B0F5006F38D1D4F8A800B0F10E
:101C5000007F19D004DC50B1B0F1807F1DD10DE0C0
:101C6000B0F1407F17D0B0F1806F16D114E08448F6
:101C7000006840F400308249086010E00021201D17
:101C800001F06EFF05460AE0002104F1240002F095
:101C900019F8054603E002E001E0012500BF00BF9E
:101CA0005DB977482C30006820F0E060D4F8A810C7
:101CB000084373492C31086000E0A846206800F012
:101CC0000070B0F1007F27D1A06CA0B1102804D023
:101CD000202809D030280FD10CE06948006840F472
:101CE00000306749086009E00221201D01F038FF3B
:101CF000054603E002E001E0012500BF00BF55B941
:101D00005F482030006820F03000A16C08435C4937
:101D10002031086000E0A846208800F48050B0F52B
:101D2000805F36D1E06DB0F5005F19D004DC50B1B2
:101D3000B0F5805F1DD10DE0B0F5405F17D0B0F574
:101D4000804F16D114E04E48006840F400304C49F2
:101D5000086010E00021201D01F002FF05460AE0A6
:101D6000002104F1240001F0ADFF054603E002E08C
:101D700001E0012500BF00BF55B94148243000688B
:101D800020F4E040E16D08433D492431086000E063
:101D9000A846208800F40050B0F5005F34D1206ED2
:101DA000B0F5403F1DD007DC68B1B0F5803F0BD0E7
:101DB000B0F5003F18D10DE0B0F5802F12D0B0F58E
:101DC000A02F11D10FE011E00121201D01F0C8FE6C
:101DD00005460BE0012104F1240001F073FF0546E4
:101DE00004E003E002E001E0012500BF00BF55B9B7
:101DF00023482430006820F4E020216E0843204965
:101E00002431086000E0A846208800F48040B0F546
:101E1000804F38D1D4F8AC00B0F1405F1DD007DC62
:101E200068B1B0F1805F0BD0B0F1005F18D10DE068
:101E3000B0F1804F12D0B0F1A04F11D10FE011E0FE
:101E40000121201D01F08CFE05460BE0012104F16B
:101E5000240001F037FF054604E003E002E001E062
:101E6000012500BF00BF6DB905482C30006820F087
:101E7000E040D4F8AC10084301492C31086002E07E
:101E80002C440258A846208800F40040B0F5004FCA
:101E900026D1E06E98B1B0F1805F03D0B0F1005F61
:101EA0000ED106E0F948006840F40030F7490860B8
:101EB00008E00121201D01F053FE054602E001E08B
:101EC000012500BF00BF55B9F0482430006820F05C
:101ED0004050E16E0843ED492431086000E0A84617
:101EE000206800F08070B0F1807F27D1606CA0B1D5
:101EF000012804D0022809D003280FD10CE0E348C0
:101F0000006840F40030E149086009E00221201D2A
:101F100001F026FE054603E002E001E0012500BFD6
:101F200000BF55B9D9482030006820F00300616C2B
:101F30000843D6492031086000E0A846206800F434
:101F40008000B0F5800F7DD1D148006840F48070EA
:101F5000CF490860FFF736FA064606E0FFF732FA87
:101F6000801B642801D9032505E0C948006800F4F6
:101F700080700028F2D000BF85BBC44844300068A0
:101F800000F44070B4F8B01001F44071884213D0EE
:101F9000BE484430006820F44077BC4844300068B4
:101FA00040F48030B949443108600846006820F4A4
:101FB0008030086008460760D4F8B000B0F5807F34
:101FC00015D1FFF7FFF9064609E0FFF7FBF9801B83
:101FD00041F28831884202D9032507E038E0AB4856
:101FE00044300068C0F340000028EED000BF55BB6D
:101FF00000BFB4F8B00000F44070B0F5407F0ED1DF
:10200000A2481C38006820F47C51A24AD4F8B000E1
:10201000104041EA10109D491C39086007E09B48B8
:102020001C38006820F47C5098491C390860974897
:1020300044300068B4F8B010C1F30B010843934971
:10204000443101E005E001E0086002E0A84600E05C
:10205000A846207800F0010068B3A06F182819D0B6
:1020600005DC48B1082808D0102816D10BE020283C
:1020700011D0282811D10FE011E00121201D01F01D
:102080006FFD05460BE0012104F1240001F01AFE6A
:10209000054604E003E002E001E0012500BF00BFC7
:1020A00055B97A482830006820F03800A16F0843FD
:1020B00076492831086000E0A846207800F0020048
:1020C000022828D1606F062815D2DFE800F003044B
:1020D0000A11121311E00121201D01F041FD0546F6
:1020E0000BE0012104F1240001F0ECFD054604E0C1
:1020F00003E002E001E0012500BF00BF55B96348DD
:102100002830006820F00700616F08435F492831DC
:10211000086000E0A846207800F0040004282AD1D6
:10212000D4F89000062815D2DFE800F003040A1165
:10213000121311E00121201D01F012FD05460BE0F4
:10214000012104F1240001F0BDFD054604E003E097
:1021500002E001E0012500BF00BF5DB94B482C3013
:10216000006820F00700D4F89010084347492C314C
:10217000086000E0A846207800F02000202836D132
:10218000D4F88C00B0F1405F1DD007DC68B1B0F12D
:10219000805F0BD0B0F1005F18D10DE0B0F1804F3F
:1021A00012D0B0F1A04F11D10FE011E00021201D9D
:1021B00001F0D6FC05460BE0022104F1240001F0F9
:1021C00081FD054604E003E002E001E0012500BFD7
:1021D00000BF5DB92D482830006820F0E040D4F8F9
:1021E0008C10084329492831086000E0A84620786F
:1021F00000F04000402836D1D4F89800B0F5406F88
:102200001DD007DC68B1B0F5806F0BD0B0F5006F62
:1022100018D10DE0B0F5805F12D0B0F5A05F11D1FC
:102220000FE011E00021201D01F09AFC05460BE0B3
:10223000022104F1240001F045FD054604E003E01D
:1022400002E001E0012500BF00BF5DB90F482C305E
:10225000006820F4E050D4F8981008430B492C3162
:10226000086000E0A846207800F0800080283AD17D
:10227000D4F89C00B0F5C04F23D00DDC98B1B0F578
:10228000005F11D0B0F5804F1ED113E02C440258EE
:1022900000480258FFFCFF0FB0F5004F12D0B0F518
:1022A000204F11D10FE011E00021201D01F058FC5A
:1022B00005460BE0022104F1240001F003FD054670
:1022C00004E003E002E001E0012500BF00BF4DB9DA
:1022D000B548006820F46040D4F89C100843B24927
:1022E000086000E0A846207800F00800082817D110
:1022F000D4F88000B0F5805F07D1022104F12400FA
:1023000001F0E0FC08B14FF00108A748001F006889
:1023100020F44050D4F880100843A349091F0860F6
:10232000207800F01000102815D1D4F89400B0F5F2
:10233000807F07D1022104F1240001F0C3FC08B121
:102340004FF001089848006820F44070D4F89410C9
:10235000084395490860206800F40020B0F5002F7C
:1023600026D1D4F8A00030B1B0F5803F09D0B0F547
:10237000003F0ED10CE00021201D01F0F1FB0546CD
:1023800009E0022104F1240001F09CFC054602E072
:1023900001E0012500BF00BF4DB98348006820F46B
:1023A0004030D4F8A01008437F49086000E0A846F8
:1023B000206800F48020B0F5802F2DD1D4F884005F
:1023C000B0F5801F06D0B0F5001F0CD0B0F5401F4F
:1023D00011D10FE074482C38006840F40030724985
:1023E0002C39086009E0012104F1240001F06AFCA5
:1023F000054602E001E0012500BF00BF5DB96A4863
:10240000001F006820F44010D4F884100843664987
:10241000091F086000E0A846206800F48030B0F58D
:10242000803F24D1E06C18B1B0F5803F0FD108E0B7
:102430005D482C38006840F400305B492C39086056
:1024400007E00221201D01F08BFB054601E001257C
:1024500000BF00BF55B954480C38006820F48030E4
:10246000E16C084350490C39086000E0A846206838
:1024700000F00050B0F1005F07D1022104F1240008
:1024800001F020FC08B14FF00108206800F4003092
:10249000B0F5003F27D1E06FA0B1B0F5807F06D046
:1024A000B0F5007F0CD0B0F5407F0CD109E03E487C
:1024B0002C38006840F400303B492C39086004E0B7
:1024C00003E002E001E0012500BF00BF55B9364836
:1024D000001F006820F44070E16F08433249091F73
:1024E000086000E0A846206800F48010B0F5801F66
:1024F00009D12D480838006820F00040216F0843BA
:10250000294908390860206800F08050B0F1805FE8
:102510000AD125484838006820F48040D4F8B41027
:102520000843214948390860206800F40010B0F5DC
:10253000001F09D11C480838006820F08070A16E87
:102540000843194908390860206800F08040B0F15C
:10255000804F11D100BF14484838006820F4004073
:1025600011494839086008460068D4F8B810084393
:102570000D494839086000BF206800F00040B0F104
:10258000004F09D108480C38006820F04050216DF8
:10259000084305490C390860B8F1000F02D100204A
:1025A000BDE8F0810120FBE7584402582DE9F041D5
:1025B00004460D4614B90120BDE8F081BD4800680D
:1025C00000F00F00A8420ED2BA48006820F00F00B9
:1025D0002843B84908600846006800F00F00A84288
:1025E00001D00120E8E7207800F0040004280ED193
:1025F000B1492069096801F07001884207D9AE48E5
:10260000006820F0700021690843AB490860207819
:1026100000F00800082811D1A749091D6069096860
:1026200001F07001884209D9A348001D006820F01C
:10263000700061690843A049091D0860207800F016
:102640001000102811D19C49091DA069096801F4E6
:10265000E061884209D99848001D006820F4E060D4
:10266000A16908439449091D0860207800F0200002
:10267000202811D190490831E069096801F0700102
:10268000884209D98C480830006820F07000E16960
:102690000843894908310860207800F002000228C8
:1026A0000ED18549E068096801F00F01884207D919
:1026B0008148006820F00F00E16808437E49086007
:1026C000207800F00100002850D07B48006820F4FA
:1026D0007060A1680843784908606068022807D1E3
:1026E000754818380068C0F34040F8B9012063E726
:1026F0006068032807D1704818380068C0F340604C
:10270000A0B9012058E76068012807D16A48183845
:102710000068C0F3002048B901204DE7664818382A
:102720000068C0F3800008B9012045E76248083816
:10273000006820F00700616808435F4908390860B5
:10274000FEF740FE064608E0FEF73CFE801B41F225
:102750008831884201D903202EE75748083800689D
:1027600000F038006168B0EBC10FEDD1207800F0C7
:10277000020002280ED15049E068096801F00F01FB
:10278000884207D24C48006820F00F00E1680843F7
:10279000494908604748006800F00F00A8420ED978
:1027A0004448006820F00F0028434249086008466A
:1027B000006800F00F00A84201D00120FCE620785C
:1027C00000F0040004280ED13B492069096801F09B
:1027D0007001884207D23848006820F070002169F3
:1027E000084335490860207800F00800082811D116
:1027F0003149091D6069096801F07001884209D2F8
:102800002D48001D006820F07000616908432A49C6
:10281000091D0860207800F01000102811D1264909
:10282000091DA069096801F4E061884209D22248C3
:10283000001D006820F4E060A16908431E49091DDD
:102840000860207800F02000202811D11A490831B2
:10285000E069096801F07001884209D21648083021
:10286000006820F07000E1690843134908310860EE
:1028700000F076F810490968C1F303210F4A515C52
:1028800001F01F0120FA01F70B48006800F00F006B
:102890001146085C00F01F0027FA00F008490860A4
:1028A0000848076008480068FEF7E2FD8046404699
:1028B00082E600000020005218440258D07F000831
:1028C0004C000024480000244000002410B500F013
:1028D00047F80D490968C1F303210C4A515C01F026
:1028E0001F0120FA01F40848006800F00F001146AB
:1028F000085C00F01F0024FA00F005490860054854
:1029000004600846006810BD18440258D07F0008D3
:102910004C0000244800002400B5FFF7D7FF05490C
:102920000968C1F30211044A515C01F01F01C8405B
:1029300000BD00001C440258D07F000800B5FFF71E
:10294000C5FF05490968C1F30221044A515C01F041
:102950001F01C84000BD00001C440258D07F000881
:10296000F0B5824E366806F0380636B1082E15D01E
:10297000102E15D0182E7DD114E07C4E103E3668F6
:10298000C6F3401646B1794E103E3668C6F3C1070D
:10299000774E26FA07F000E07548E5E07548E3E079
:1029A0007548E1E0714E1836366806F003046F4E44
:1029B00018363668C6F305116C4E1C36366806F0BC
:1029C00001056A4E24363668C6F3CC0616FB05F6BA
:1029D00001EE106AB8EE410A002971D024B1012C31
:1029E00050D0022C6DD16DE0604E103E3668C6F3BB
:1029F00040163EB35D4E103E3668C6F3C1075C4ECE
:102A000026FA07F301EE103AF8EE411A01EE101A19
:102A1000B8EE411A81EE812A9FED581AC0EE011AD4
:102A2000524E20363668C6F3080601EE106AB8EE3C
:102A3000411A31EE811AF7EE001A31EE211A62EED8
:102A4000010A1EE001EE101AB8EE411ADFED4C1A31
:102A500081EE812A9FED491AC0EE011A434E2036BD
:102A60003668C6F3080601EE106AB8EE411A31EE78
:102A7000811A00E076E0F7EE001A31EE211A62EEDC
:102A8000010A5BE001EE101AB8EE411A9FED3D2AF3
:102A9000C2EE011A9FED391A80EE012A334E20361C
:102AA0003668C6F3080601EE106AB8EE411A32EE37
:102AB000011AB7EE002A31EE021A61EE810A3DE0FA
:102AC0004EE01DE001EE101AB8EE411ADFED2E1AAD
:102AD00081EE812A9FED291AC0EE011A234E20367D
:102AE0003668C6F3080601EE106AB8EE411A31EEF8
:102AF000811AF7EE001A31EE211A62EE010A1DE08A
:102B000001EE101AB8EE411A9FED1E2AC2EE011A0C
:102B10009FED1A1A80EE012A144E20363668C6F34D
:102B2000080601EE106AB8EE411A32EE011AB7EE4D
:102B3000002A31EE021A61EE810A00BF00BF0B4E7F
:102B400020363668C6F34626721C01EE102AB8EE0F
:102B5000411AC0EE811ABCEEE11A11EE100A00E033
:102B6000002001E0034800BF00BFF0BD1044025840
:102B70000090D00300093D0040787D010000004630
:102B80000024744C0024744A20BCBE4B2DE9F0474D
:102B9000044614B90120BDE8F087207800F0010058
:102BA000002872D0F748006800F03808F54818305F
:102BB000D0F80090B8F1100F06D0B8F1180F0FD16F
:102BC00009F0030002280BD1EE4810380068C0F36A
:102BD000404000286ED0606800286BD10120DAE701
:102BE00000BF6068B0F5803F08D1E6481038006843
:102BF00040F48030E349103908602EE0606868B91D
:102C0000E0481038006820F48030DE491039086050
:102C10000846006820F4802008601EE06068B0F577
:102C2000A02F0DD1D7481038006840F48020D54936
:102C3000103908600846006840F4803008600CE0F5
:102C4000D0481038006820F48030CE491039086030
:102C50000846006820F48020086000BF6068A8B1C2
:102C6000FEF7B0FB054608E0FEF7ACFB401B41F267
:102C70008831884201D903208DE7C24810380068A6
:102C8000C0F340400028EFD014E014E0FEF79AFBB8
:102C9000054608E0FEF796FB401B41F2883188426A
:102CA00001D9032077E7B74810380068C0F34040E7
:102CB0000028EFD100BF207800F0020002287BD16D
:102CC000B048006800F03808AE481830D0F80090DE
:102CD000B8F1000F05D0B8F1180F3AD109F0030090
:102CE000B0BBA84810380068C0F3800018B1E06895
:102CF00008B901204FE700BFFEF75EFB41F2030178
:102D0000884219D8206940280AD19E480C380068AA
:102D100020F47C3040F400309A490C39086016E009
:102D200098480C38006820F47C30216940EA013072
:102D300094490C3908600AE092480C38006820F089
:102D4000FE40217C40EA01608E490C39086067E052
:102D5000FFE7E06888B38B481038006820F019005E
:102D6000E1680843874910390860FEF72BFB0546E8
:102D700006E0FEF727FB401B022801D903200AE7E3
:102D8000804810380068C0F380000028F1D000BFF0
:102D9000FEF712FB41F2030188421BD8206940284C
:102DA0000CD178480C38006820F47C3040F40030B6
:102DB00074490C39086018E033E017E071480C38AA
:102DC000006820F47C30216940EA01306D490C39FB
:102DD00008600AE06B480C38006820F0FE40217C57
:102DE00040EA016067490C39086019E0654810380D
:102DF000006820F00100634910390860FEF7E2FA2C
:102E0000054606E0FEF7DEFA401B022801D9032042
:102E1000C1E65C4810380068C0F380000028F1D19A
:102E200000BF207800F0100010287CD155480068C1
:102E300000F0380853481830D0F80090B8F1080F67
:102E400006D0B8F1180F3DD109F00300012839D19F
:102E50004C4810380068C0F3002020B1E069802899
:102E600001D0012097E600BFFEF7A6FA41F2030168
:102E700088421AD8206A20280AD142480C380068B3
:102E800020F0F84040F080403E490C39086018E0DE
:102E90003C480C38006820F0F84094F8201040EAD4
:102EA000816038490C3908600BE03648001F006823
:102EB00020F07C5094F8201040EA01603149091F4D
:102EC000086067E0E06978B32E481038006840F089
:102ED00080002C4910390860FEF774FA054606E0B8
:102EE000FEF770FA401B022801D9032053E625485B
:102EF00010380068C0F300200028F1D000BFFEF7B2
:102F00005BFA41F2030188421CD8206A20280CD1C8
:102F10001C480C38006820F0F84040F08040194907
:102F20000C3908601AE036E019E016480C380068E1
:102F300020F0F84094F8201040EA816011490C39E3
:102F400008600BE00F48001F006820F07C5094F8E8
:102F5000201040EA01600B49091F08601AE0094887
:102F60001038006820F08000064910390860FEF72C
:102F700029FA054608E0FEF725FA401B022803D986
:102F8000032008E610440258F3480068C0F300200C
:102F90000028F0D100BF207800F00800082836D1C2
:102FA0006069D0B1EC487430006840F00100EA4933
:102FB00074310860FEF706FA054606E0FEF702FAED
:102FC000401B022801D90320E5E5E348743000687E
:102FD000C0F340000028F1D019E0DF4874300068E9
:102FE00020F00100DC4974310860FEF7EBF905467A
:102FF00006E0FEF7E7F9401B022801D90320CAE5E5
:10300000D54874300068C0F340000028F1D1207822
:1030100000F02000202830D1A069B8B1CE48006867
:1030200040F48050CC490860FEF7CCF9054606E034
:10303000FEF7C8F9401B022801D90320ABE5C648BA
:103040000068C0F340300028F2D016E0C2480068A3
:1030500020F48050C0490860FEF7B4F9054606E048
:10306000FEF7B0F9401B022801D9032093E5BA48C6
:103070000068C0F340300028F2D1207800F004004E
:1030800004287DD1B548006840F48070B3490860D9
:10309000FEF798F9054606E0FEF794F9401B642810
:1030A00001D9032077E5AD48006800F4807000285E
:1030B000F2D000BFA068012808D1A748703000688E
:1030C00040F00100A449703108602DE0A06868B9A3
:1030D000A1487030006820F001009F4970310860FD
:1030E0000846006820F0040008601DE0A06805287C
:1030F0000DD199487030006840F004009649703155
:1031000008600846006840F0010008600CE0924842
:103110007030006820F001008F4970310860084667
:10312000006820F00400086000BFA068A0B1FEF7AE
:1031300049F9054608E0FEF745F9401B41F28831A0
:10314000884201D9032026E5834870300068C0F327
:1031500040000028EFD013E0FEF734F9054608E000
:10316000FEF730F9401B41F28831884201D9032033
:1031700011E5794870300068C0F340000028EFD1B5
:10318000606A00287DD074481030006800F0380074
:10319000182877D0606A022875D16F48006820F03F
:1031A00080706D490860FEF70DF9054606E0FEF7F0
:1031B00009F9401B022801D90320ECE466480068A5
:1031C000C0F340600028F2D100BFD4E90A1041EA00
:1031D000001061492831096840F2F33291430843F5
:1031E0005D4928310860208E401EC0F30800616BE5
:1031F000491E4FF47E4202EA41210843218F491EB5
:10320000D20102EA014108433C21095D491E120234
:1032100002EA0161084350493031086000BF081FCD
:10322000006820F00100091F08604B483430006836
:103230004FF6F8718843A16C40EAC1004649343129
:10324000086045482C30006820F00C00216C0843D1
:1032500041492C3108600846006820F00200616C8A
:1032600008433D492C3108600846006840F480302E
:1032700008600846006840F40030086008460068AE
:1032800002E066E038E01FE040F480200860084675
:10329000006840F0010008602F48006840F080702E
:1032A0002D490860FEF78EF8054606E0FEF78AF81D
:1032B000401B022801D903206DE427480068C0F3B1
:1032C00040600028F2D044E02348006820F080707D
:1032D00021490860FEF776F8054606E0FEF772F829
:1032E000401B022801D9032055E41B480068C0F3A5
:1032F00040600028F2D12CE01748283007681648B3
:1033000030300668606A012821D007F00301A06A06
:1033100081421CD1C7F30511E06A884217D1C6F378
:103320000801206B401E814211D1606B401EC6F324
:10333000462188420BD1A06B401EC6F3064188424D
:1033400005D1E06B401EC6F30661884201D0012022
:1033500021E400201FE40000004402580048025805
:103360004FF0E020006940F002004FF0E0210861DA
:103370007047000070B504460E4615460CB9012092
:1033800070BD94F8450028B9002084F84400204618
:1033900000F028F804F108012068FDF779FE3146B5
:1033A000A2682068FDF7C6FE2946E36AD4E9010257
:1033B000FDF74CFEA168206850F8210040F00100A4
:1033C000A268216841F822000548006840F00040EA
:1033D00003490860012084F845000020D0E7000080
:1033E0000040005270474FF0E020006920F00200DA
:1033F0004FF0E0210861704710B504460CB9012078
:1034000010BD94F83D0028B9002084F83C00204607
:1034100000F029F8022084F83D00211D206801F009
:1034200021F8012084F8480000BF84F83E00012103
:103430003F200155402001554120015542200155B2
:103440004320015500BF00BF012084F844004520FF
:103450000155462001554720015500BF012084F841
:103460003D000020CCE77047014691F83D0001285F
:1034700001D001207047022081F83D000868806873
:10348000074B00EA0302062A08D0B2F5803F05D0B8
:103490000868006840F001000B6818600020E9E748
:1034A0000700010010B504460CB9012010BDA06949
:1034B00000B100E000BFD4F8800028B9002084F8F3
:1034C0007C00204600F02AF82420C4F88000206800
:1034D000006820F0010021680860204601F0DEF855
:1034E000012800D1E2E7A06A10B1204601F020F8DF
:1034F0002068406820F49040216848602068806817
:1035000020F02A00216888602068006840F00100EF
:1035100021680860204601F087F8C7E7704700007F
:1035200000B59BB04C2108A8FDF75CF81C2101A850
:10353000FDF758F8184808901848099005200190A0
:103540000220029003900120049002200590069032
:10355000002007900A9000210B910C9120210D91E1
:1035600000210E910F9110914FF480511191002183
:1035700012911391149115911691179101AA01A915
:1035800008A8FFF7F7FE20B14FF4927104A0FDF7F1
:1035900059FD1BB000BD0000004000520441005224
:1035A0002E2E5C2E2E5C557365725C6273705C739C
:1035B00072635C6273705F666D635F696F2E630038
:1035C00000B587B000BF3E48006840F008003C49A5
:1035D00008600846006800F00800019000BF00BFC6
:1035E00000BF0846006840F0100008600846006808
:1035F00000F01000019000BF00BF00BF0846006847
:1036000040F0400008600846006800F0400001906B
:1036100000BF00BF00BF0846006840F0800008609F
:103620000846006800F08000019000BF00BF00BFA6
:103630000846006840F4807008600846006800F49E
:103640008070019000BF00BF00BF1D480C380068AB
:1036500040F480501A490C3908600846006800F4AC
:103660008050019000BF00BF022003900120049011
:10367000032005900C2006904CF2B370029002A932
:103680001048FDF795FD4FF68070029002A90E4894
:10369000FDF78EFD0320029002A90C48FDF788FD7E
:1036A0004FF47F40029002A90948FDF781FD40F2E6
:1036B000CF60029002A90748FDF77AFD07B000BD70
:1036C000E0440258000C025800100258001802583A
:1036D000001C0258002002580146044800680840B7
:1036E00008B1012070470020FCE7000034000024EE
:1036F00029B9084A12688243064B1A6004E0054A59
:1037000012680243034B1A60024A1268024B1A60A5
:1037100070470000340000240010006010B53249EA
:10372000096801F0004149B12F49096841F00041A1
:103730002D4A11608169891C816110BD2A490839AF
:1037400009682A4A11622849091F097882F8241059
:103750002549C91E0978916223490C310968D16253
:103760002149891E098811861F49096851631E492C
:10377000091D096891631C4910310968D1631CA2B5
:1037800000210BE0535C254CA36200BF234BDB6997
:1037900003F04003002BF9D04B1CD9B22929F1D3F7
:1037A00000211F4A116000BF1D4909680029FBD094
:1037B0000E4A016811604168516081689160C1687A
:1037C000D160016911614169516181699161C1698A
:1037D000D1610021124A116000BF11490968002916
:1037E000FBD000BFA9E700002CED00E0145F00242F
:1037F0000D0A456E74657220486172644661756C8D
:10380000745F48616E646C65722C205379737465C3
:103810006D2048616C742E0D0A00000000100140FC
:103820005000002400B5B5B00120019000201F9089
:1038300001A8FEF71BF900BF6548006840F00100D1
:10384000634908600846006800F00100009000BF6E
:1038500000BF00BF0846006840F00100086008464D
:10386000006800F00100009000BF00BF00BF584892
:103870001030006840F010005549103108600846CB
:10388000006800F01000009000BF00BF4FF400700F
:103890003090022031900120329003203390072095
:1038A000349030A94B48FDF783FC4FF48060309092
:1038B0000720349030A94748FDF77AFC0022042104
:1038C0002520FDF740FE2520FDF729FE0C230022D0
:1038D0004FF4E131404804F093FA3F48006A40F069
:1038E00040003D4908620846806940F00800886150
:1038F0000846006840F02000086000BF34480068B7
:1039000040F00200324908600846006800F00200FA
:10391000009000BF00BF00BF0846006840F00200F2
:1039200008600846006800F00200009000BF00BF79
:1039300000BF27480830006840F48020244908313F
:1039400008600846006800F48020009000BF00BFB7
:103950004FF480603090022031900120329003209B
:1039600033900720349030A91C48FDF721FC4FF418
:10397000006030900720349030A91848FDF718FCFB
:10398000032204212720FDF7DEFD2720FDF7C7FDD8
:103990000C2300224FF41651114804F031FA10485C
:1039A0002030006840F040000D49203108600C488C
:1039B0001830006840F008000949183108600848CC
:1039C000006840F020000649086035B000BD0000E6
:1039D000E044025800000258001001400004025860
:1039E000004800402DE9F0410446082C17DA002673
:1039F000FF27002508E0284600F030F810B1701CC1
:103A0000C6B22F46681CC5B2082DF4DB012E04D1C6
:103A1000A74202D10120BDE8F0810020FBE7082C7D
:103A20000BD1002000F01AF828B1012000F016F8A0
:103A300008B10120EFE70020EDE7092C0BD10120B0
:103A400000F00CF828B1022000F008F808B10120BD
:103A5000E1E70020DFE70020DDE7000001460B483A
:103A600050F831000069094B03EBC1039B881840F3
:103A700008B9002200E00122044800EBC10080796F
:103A8000904201D1012070470020FCE7787F0008B8
:103A90001FB5FDF71FFD01208DF800004FF01050FD
:103AA000019012208DF8080003208DF80B000120F2
:103AB0008DF80F008DF80E0000208DF80D008DF8A8
:103AC000010001208DF80A0000208DF809008DF812
:103AD0000C006846FDF7D0FC01208DF800004FF087
:103AE000C04001900F208DF8080003208DF80B00D6
:103AF00001208DF80F0000208DF80E008DF80D00CC
:103B000001208DF8010000208DF80A008DF80900D1
:103B10008DF80C006846FDF7AFFC0420FDF7EAFCC9
:103B20001FBD00BFFEE7704710B5002009490870AF
:103B3000022002F0F3FC002007490860642002F034
:103B4000EDFC05480068054908600120014908703E
:103B500010BD000000000024040000240C0000241C
:103B60002DE9F04104460E4600275548006800F054
:103B70000300032802D10120BDE8F0815048283815
:103B8000006820F080604E4928390860FDF71AFC73
:103B9000054606E0FDF716FC401B022801D903206C
:103BA000EAE7474828380068C0F3C0600028F1D130
:103BB00000BF4348006820F47C30216840EA0130AF
:103BC0003F490860A088401EC0F30800A168491E54
:103BD0004FF47E4202EA41210843A189491ED201E5
:103BE00002EA01410843217C491E120202EA0161F6
:103BF000084333491031086000BF3148001D006898
:103C000020F0C000616908432D49091D086008467D
:103C1000006820F02000A16908432949091D0860B7
:103C20000846006820F0100008602548143000683D
:103C30004FF6F8718843E16940EAC1002049143128
:103C400008601F48001D006840F010001C49091D55
:103C500008602EB90846006840F40020086012E0B1
:103C6000012E08D11648001D006840F48010144948
:103C7000091D086007E01248001D006840F40010AC
:103C80000F49091D08600E482838006840F0806020
:103C90000B4928390860FDF795FB054606E0FDF75E
:103CA00091FB401B022801D9032065E7044828380E
:103CB0000068C0F3C0600028F1D038465CE700001F
:103CC000284402582DE9F04104460E460027554885
:103CD000006800F00300032802D10120BDE8F08154
:103CE00050482838006820F080504E492839086034
:103CF000FDF768FB054606E0FDF764FB401B022864
:103D000001D90320EAE7474828380068C0F340702B
:103D10000028F1D100BF4348006820F07C70218862
:103D200040EA01503F490860A088401EC0F30800E7
:103D3000A168491E4FF47E4202EA41210843A1894D
:103D4000491ED20102EA01410843217C491E1202A8
:103D500002EA0161084333491831086000BF314865
:103D6000001D006820F44060616908432D49091D69
:103D700008600846006820F40070A16908432949DA
:103D8000091D08600846006820F480700860254816
:103D90001C3000684FF6F8718843E16940EAC100C1
:103DA00020491C3108601F48001D006840F48070E5
:103DB0001C49091D08602EB90846006840F48000BF
:103DC000086012E0012E08D11648001D006840F47A
:103DD00000001449091D086007E01248001D006832
:103DE00040F080700F49091D08600E4828380068AF
:103DF00040F080500B4928390860FDF7E3FA05468A
:103E000006E0FDF7DFFA401B022801D9032065E731
:103E1000044828380068C0F340700028F1D03846C4
:103E20005CE700002844025800B587B000BF0D4889
:103E3000006840F002000B4908600846006800F086
:103E40000200019000BF00BF0120039000200490F9
:103E5000032005900420029002A90348FDF7A8F969
:103E600007B000BDE044025800040258704700004B
:103E70000420014908607047180402584FF480205C
:103E80000149086070470000180402582DE9F05FEE
:103E900005460F4690469946DFF860B000BF9BF894
:103EA000000008B901F042F800BFDFF850A0032D70
:103EB0001FD2EFF311810846202181F3118800BF42
:103EC00000BF05EB45020AF1600101EBC2043DB100
:103ED0002760C4F80480C4F8089000212161E160E3
:103EE0000A996161C1B281F3118800BF00BF002649
:103EF00001E04FF0FF363046BDE8F09F545F0024EC
:103F00002DE9F05F05460F4690469946DFF860B010
:103F100000BF9BF8000008B901F008F800BFDFF807
:103F200050A0032D1FD2EFF311810846202181F309
:103F3000118800BF00BF05EB45020AF1180101EB33
:103F4000C2043DB12760C4F80480C4F80890002181
:103F50002161E1600A996161C1B281F3118800BFFA
:103F600000BF002601E04FF0FF363046BDE8F09F6D
:103F7000545F00242DE9F04104460D4616460E4FCD
:103F800000BF387808B900F0D1FF00BFEFF311800F
:103F90000746202080F3118800BF00BF3246294623
:103FA000204600F00BF88046F8B280F3118800BF7D
:103FB00000BF4046BDE8F081545F00242DE9F04782
:103FC000074688461646C24607EB47011B4800EBEA
:103FD000C109D9F8140020B1012811D0022826D136
:103FE0001EE0484600F0DAFF0546B54201D2002443
:103FF00005E0344632465146484601F018F818E0CC
:10400000484600F0CBFF0546B54201D2284600E005
:104010003046044622465146484601F008F808E07A
:1040200032465146484600F0C7FF044601E00024EE
:1040300000BF00BF2046BDE8F08700006C5F002491
:1040400010B51B48006840B119480068401E184967
:10405000086010B9012017490870002408E004EB3B
:104060004401154A02EB810003F0FEFE601CC4B25D
:10407000042CF4DB11480068401C10490860084615
:1040800000686FF00041884202D100200B490860AF
:1040900003F0A2FE0A480078401CC0B2084908702C
:1040A0000A2803DB0020087003F092FE10BD000018
:1040B00024000024280000248C4E00242C0000241E
:1040C0003100002410B59CB0202114A8FCF78AFA16
:1040D0004C2101A8FCF786FA00245B48006820F018
:1040E00004005949086000BF00200090574800684C
:1040F00020F00100554908600846006800F0010002
:10410000009051480C30006840F440404E490C315A
:1041100008600846006800F44040009000BF00BFFF
:1041200000BF49480C30006800F40050B0F5005F53
:10413000F7D1012001900004029000200490089023
:1041400002200A9002210B9105210C91A0210D91D2
:1041500002210E91109104210F910021129108214A
:10416000119101A8FEF712FD04461CB1A02138A050
:10417000FCF768FF3F201490032015900020169054
:104180000820179040201890199000011A904020A4
:104190001B90042114A8FEF709FA04461CB1BB21A8
:1041A0002BA0FCF74FFF3048006840F080002E49FC
:1041B000086000BF2C48F430006840F002002A4933
:1041C000F43108600846006800F00200009000BF6B
:1041D00000BFFCF7E3FF00BF2348DC30006840F07D
:1041E00000502149DC3108600846006800F00050AA
:1041F000009000BF00BF00BF0846006840F080404C
:1042000008600846006800F08040009000BF00BFD2
:1042100000BF0846006840F000400860084600689B
:1042200000F00040009000BF00BF0F48A8300068B9
:1042300040F080500C49A83108600846006840F002
:10424000005008601CB010BD0C4802582C040058E7
:104250002E2E5C2E2E5C557365725C6273705C62F0
:1042600073702E6300000000004402583648006856
:1042700040F47000344908603448006800F00F00D2
:10428000072806D23148006820F00F00C01D2F49D2
:1042900008602F48006840F001002D4908600020A8
:1042A0002B49103108602A4800682A4908402849EB
:1042B00008602648006800F00F00072806D9234848
:1042C000006820F00F00C01D204908600020204930
:1042D00018310860091D0860091D08601E481C4946
:1042E000283108601D48091D08601D48091D086027
:1042F0000020091D08601A48091D08600020091DDA
:1043000008601748091D08600020091D0860104852
:10431000006820F480200E49086000200C496031BC
:104320000860104800686FF30F00B0F1005F02D220
:1043300001200D49086043F2D2000C49086048038F
:10434000014980390860704788ED00E00020005284
:10435000004402587FEDF6EA000202020000FF016D
:10436000800201010010005C0881005100400052F1
:1043700008B5FFF78DFBFCF76DFDFDF749F8FFF77A
:10438000A1FE00200346024605A10090FFF7B8FDFC
:1043900000200346024604A10090FFF777FD08BD08
:1043A0005254545550000000525454444F574E003C
:1043B00070B5002500264FF08044206900F002050A
:1043C000E06800F002065DB156B14FF6FD70206165
:1043D000E0684FF6FD710840E0601E4800688047C5
:1043E000206900F00405E06800F004065DB156B1F4
:1043F0004FF6FB702061E0684FF6FB710840E0600B
:10440000154800688047206900F00805E06800F062
:1044100008065DB156B14FF6F7702061E0684FF6BF
:10442000F7710840E0600D4800688047206900F09F
:104430001005E06800F010065DB156B14FF6EF7060
:104440002061E0684FF6EF710840E06004480068C2
:10445000804770BD14000024180000241C000024B4
:104460002000002410B50268294B98420ED0B0F10C
:10447000804F0BD0274B984208D0274B984205D04D
:10448000264B984202D0264B984203D122F070026C
:104490004B681A431E4B984217D0B0F1804F14D08E
:1044A0001C4B984211D01C4B98420ED01B4B98428B
:1044B0000BD01B4B984208D01A4B984205D01A4B90
:1044C000984202D0194B984203D122F44072CB6833
:1044D0001A4322F080034C6943EA040202608B68AD
:1044E000C3620B6883620A4B98420BD00C4B984214
:1044F00008D00C4B984205D00B4B984202D00B4B86
:10450000984201D10B6903630123436110BD000090
:10451000000001400004004000080040000C004082
:1045200000040140004001400044014000480140B7
:1045300090F8281001F0010139B10168496821F4AF
:104540000031C26A11430268516090F8281001F0EE
:104550000201022907D10168496821F48031026B08
:1045600011430268516090F8281001F004010429F9
:1045700007D10168496821F48021426B1143026828
:10458000516090F8281001F00801082907D101684E
:10459000496821F40041826B11430268516090F830
:1045A000281001F01001102907D10168896821F451
:1045B0008051C26B11430268916090F8281001F09D
:1045C0002001202907D10168896821F40051026C7B
:1045D00011430268916090F8281001F040014029D1
:1045E00013D10168496821F48011426C11430268BB
:1045F0005160416CB1F5801F07D10168496821F411
:10460000C001826C11430268516090F8281001F0DB
:104610008001802907D10168496821F40021C26C1A
:10462000114302685160704738B504460020C4F851
:104630008800FCF7C7FE05462068006800F0080007
:1046400008280CD16FF07E402B4600224FF4001159
:104650000090204600F0F0FA08B1032038BD206831
:10466000006800F0040004280CD16FF07E402B4657
:1046700000224FF480010090204600F0DDFA08B1DE
:104680000320EBE72020C4F88000C4F8840000BFBA
:10469000002084F87C0000BF00BFDFE72DE9F04F69
:1046A0008BB0054600200890F9492868884200D15F
:1046B00000E000BF2969A868084369690843E969FF
:1046C00040EA0108686E40EA080828680068F14975
:1046D000084040EA0800296808602868406820F41B
:1046E0004050E968084329684860D5F81880E849CF
:1046F0002868884202D0286A40EA0808286880684A
:10470000E549084040EA0800296888602868C06ACE
:1047100020F00F00696A08432968C86200BFDF49BA
:104720002868884220D1DE48006800F03800182848
:1047300011D005DC48B1082809D0102811D108E0B3
:1047400020280AD028280CD109E001240BE00424F9
:1047500009E0082407E0102405E0202403E04024B9
:1047600001E0802400BFF8E0CE492868884219D1D2
:10477000CB48006800F00700062810D2DFE800F000
:10478000030507090B0D00240BE0042409E00824AD
:1047900007E0102405E0202403E0402401E0802409
:1047A00000BFDAE0C0492868884219D1BC480068D7
:1047B00000F00700062810D2DFE800F00305070923
:1047C0000B0D00240BE0042409E0082407E010246A
:1047D00005E0202403E0402401E0802400BFBCE089
:1047E000B2492868884219D1AD48006800F0070036
:1047F000062810D2DFE800F0030507090B0D00249E
:104800000BE0042409E0082407E0102405E020243C
:1048100003E0402401E0802400BF9EE0A449286812
:10482000884219D19E48006800F00700062810D27F
:10483000DFE800F0030507090B0D00240BE004245A
:1048400009E0082407E0102405E0202403E04024C8
:1048500001E0802400BF80E096492868884220D18A
:104860008F48006800F03800182811D005DC48B1E6
:10487000082809D0102811D108E020280AD02828BB
:104880000CD109E001240BE0042409E0082407E02E
:10489000102405E0202403E0402401E0802400BF30
:1048A0005BE085492868884219D17D48006800F09E
:1048B0000700062810D2DFE800F0030507090B0DFA
:1048C00000240BE0042409E0082407E0102405E09C
:1048D000202403E0402401E0802400BF3DE077492C
:1048E0002868884219D16E48006800F00700062841
:1048F00010D2DFE800F0030507090B0D00240BE0E0
:10490000042409E0082407E0102405E0202403E043
:10491000402401E0802400BF1FE05D4928688842F0
:104920001AD15F48001D006800F00700062810D269
:10493000DFE800F0030507090B0D02240BE0042457
:1049400009E0082407E0102405E0202403E04024C7
:1049500001E0802400BF00E0802400BF4C492868AB
:1049600088427DD1102C1AD006DC022C09D0042CF0
:104970000BD0082C29D10DE0202C21D0402C24D1A3
:1049800020E0FCF731FE064623E005A8FCF73EFEDA
:10499000069E1EE002A8FCF751FF039E19E0404866
:1049A00054380068C0F3401040B13D4854380068A6
:1049B000C0F3C101424820FA01F600E0404E08E091
:1049C000404E06E04FF4004603E000260120089028
:1049D00000BF00BF002E10D03B49686A31F81000BC
:1049E000B6FBF0F9686800EB4000484503D86868FA
:1049F0000003484502D20120089009E13249686A63
:104A000031F810C06246002330461946FBF7A0FD7E
:104A10004FF480730022A0FB03AC01FB03C100FB39
:104A2000021B02220023D5F804C060461946FBF79A
:104A30008FFD1AEB00004BF1000BCDE9000BD5F810
:104A400004C0624600235946FBF782FD0746B7F5CE
:104A5000407F06D3B7F5801F03D22868C760D7E030
:104A600002E001200890D3E0E869B0F5004F7DD165
:104A7000082C39D005DC4CB3012C2CD0042C4CD1A3
:104A80002DE0102C35D0202C42D0402C45D141E0D7
:104A9000000C0058F369FFCFFFF4FF110010014034
:104AA000544402580044004000480040004C00407C
:104AB000005000400014014000780040007C00409D
:104AC0000090D00300093D00B87F0008FFE7FDF724
:104AD00023FF064625E0FDF731FF064621E005A845
:104AE000FCF794FD069E1CE002A8FCF7A7FE039EBF
:104AF00017E04D480068C0F3401038B14A480068DC
:104B0000C0F3C101494820FA01F600E0474E08E031
:104B1000474E06E04FF4004603E0002601200890CF
:104B200000BF00BF0EB34349686A31F81000B6FBFE
:104B3000F0F04000696800EB5100B0FBF1F087B283
:104B4000102F10D3B7F5803F0DD24FF6F0703840DC
:104B50000990C7F342010998084309900998296808
:104B6000C86055E002E00120089051E0082C1AD0FE
:104B700005DC5CB1012C0DD0042C2DD10EE0102CE5
:104B800016D0202C23D0402C26D122E0FDF7C4FEE5
:104B9000064625E0FDF7D2FE064621E005A8FCF713
:104BA00035FD069E1CE002A8FCF748FE039E17E0B8
:104BB0001D480068C0F3401038B11B480068C0F3BE
:104BC000C1011A4820FA01F600E0184E08E0184E1C
:104BD00006E04FF4004603E000260120089000BFE5
:104BE00000BFAEB11349686A31F81000B6FBF0F0AF
:104BF000696800EB5100B0FBF1F087B2102F05D3CC
:104C0000B7F5803F02D22868C76001E00120089014
:104C10000120A5F86A00A5F868000020E86628676A
:104C200008980BB0BDE8F08F004402580090D00304
:104C300000093D00B87F00082DE9F04104460D460B
:104C400017469846069E4AE0701C002847D0FCF79D
:104C5000B9FBA0EB0800B04200D8C6B920680068D4
:104C600020F4D070216808602068806820F001007E
:104C7000216888602020C4F88000C4F8840000BF48
:104C8000002084F87C0000BF0320BDE8F08120688C
:104C9000006800F0040010B32068C069C0F3C020B1
:104CA000E8B14FF40060216808622068006820F4D1
:104CB000D070216808602068806820F001002168B9
:104CC00088602020C4F88000C4F88400C4F88800FC
:104CD00000BF002084F87C0000BF0320D5E72068D7
:104CE000C0692840A84201D1012000E00020B8425C
:104CF000AAD00020C9E7000010B5024800F00CF867
:104D000010BD0000BC4E002410B5024800F004F8AD
:104D100010BD0000E85600242DE9F041044620684B
:104D2000C569206806682068D0F8088005F0200072
:104D3000D8B12068406AC7B2E18AA0684754E08AC7
:104D4000401C80B2E082E189884201DB0020E082E1
:104D5000608BE189884202DA608B401C6083606A64
:104D600010B13846616A884700BF05F0800028B35B
:104D700006F0800010B3A08A60B92068006820F0B7
:104D80008000216808602068006840F040002168C9
:104D9000086013E0012084F82800618A6068405CA4
:104DA00021688862608A401C80B26082A189884242
:104DB00001DB00206082A08A401EA08205F0400036
:104DC00018B306F0400000B3A08A68B920680068F4
:104DD00020F0400021680860206A08B1206A8047FE
:104DE000002084F8280010E0618A6068405C216837
:104DF0008862608A401C80B26082A189884201DB9F
:104E000000206082A08A401EA0822068006A40F0D4
:104E10000100216808622068006A40F002002168F1
:104E200008622068006A40F0040021680862206877
:104E3000006A40F00800216808622068006A40F0BB
:104E40001000216808622068006A40F04000216874
:104E500008622068006A40F4807021680862206857
:104E6000006A40F40070216808622068006A40F41B
:104E70000030216808622068006A40F480102168D0
:104E800008622068006A40F0200021680862BDE8DE
:104E9000F081000019481A4908601A4848601A4809
:104EA00088604FF480608881C88100200882488231
:104EB000C882088348838882C8610862486281F892
:104EC0002800124812490860124848601248886059
:104ED0004FF480608881C881002008824882C8829F
:104EE0000883488388820D48C8610D4808620D48D0
:104EF0004862002081F8280070470000001001403F
:104F0000BC4E0024E84E0024E85200240048004033
:104F1000E856002414570024145B0024713E000856
:104F20007D3E00086D3E000800BFFEE710B5124C44
:104F300003202061606111A0A0611349E1614FF479
:104F4000806121620021A1626162E1620BA02066A2
:104F50000E4961661021A16600212167E166616743
:104F60000BA1E01DFBF749FB0AA12046FBF745FB1F
:104F70002020A07110BD0000545F00245465726DA4
:104F8000696E616C00000000FC5F0024FC6300247B
:104F900052545400534547474552000010B501464E
:104FA0000A69CB689A4204D88C68641EE41AA01877
:104FB00001E0D41A601E10BD2DE9F05F0446894659
:104FC00017464FF0000AE56800BFD4F81080A845E6
:104FD00003D9A8EB0500461E04E0A5EB0800401C21
:104FE000A1680E1AA068401BB04201D9304601E00A
:104FF000A068401B0646BE4201D2304600E038465B
:105000000646606800EB050B324649465846FBF7FA
:10501000D0FAB244B144BF1B3544A068A84200D1C5
:105020000025E560002FD0D15046BDE8F09F2DE966
:10503000F047044689461546E668A068871BAF42DC
:105040000AD9606800EB060A2A4649465046FBF733
:10505000B0FA7019E06014E0B846606800EB060A28
:10506000424649465046FBF7A4FAA5EB0708D4F898
:1050700004A009EB070142465046FBF79AFAC4F830
:105080000C80BDE8F08700000FB4054B10B503A9F4
:10509000044A029800F010F910BC5DF814FB0000FF
:1050A000857E0008540100247CB50C001D46164680
:1050B000014601D0601E00E00020CDE90010064B43
:1050C0006A462946304600F0F7F8002C02D0009AD4
:1050D000002111707CBD0000BF5900080248006823
:1050E000C0F30220704700000CED00E010B500286E
:1050F00004DB0A07130E054A135406E00A07140ED0
:10510000034A00F00F031B1FD45410BD00E400E05D
:1051100018ED00E002E008C8121F08C1002AFAD109
:1051200070477047002001E001C1121F002AFBD127
:10513000704700002DE9FF5F82B00021DDE90430F7
:10514000020DDDF840B0034318D044F61050A2F22F
:10515000FF3242431514119801281FD0A5EB0B0014
:10516000401C5FEA000A4FF000064E4FDFF838910E
:10517000B046504615D5CAF1000413E01198012439
:105180004AA3012801D16FEA0B010298119AC0E9E4
:105190000031C0E9024206B0BDE8F09FCBF100004B
:1051A000DFE704460021404A491842EB0450CDE9AC
:1051B000001012E0E00707D032463B464046494621
:1051C000FBF700FB8046894632463B4610461946AF
:1051D000FBF7F8FA06460F466410002CEAD1DDE929
:1051E0000401DDE90023BAF1000F06DAFBF7EAFA61
:1051F00042464B46FBF7E6FA05E0FBF755FB424615
:105200004B46FBF751FB04460E460022284BFBF7AA
:10521000D3FB03D84FF0FF30014607E00022254BB7
:1052200020463146FBF727FAFBF7ADFB102409E0D7
:10523000002C0ADB0A220023FBF78AF9039B303299
:105240001A55641E50EA0102F2D1641C039AC4F19B
:1052500011031444119A012A03D0012208430DD1ED
:105260000AE0084304D000204FF0110B119072E7C0
:10527000A3EB0B056D1E0DE05B4504DD4FF0000256
:1052800005F1010504E003DA4FF00002A5F1010584
:10529000002AECD002981199C0E90231C0E900451A
:1052A00079E70000000014400000F03F30000000EB
:1052B0000000F0430000E03F2DE9FF4F95B09A4613
:1052C000884606460025EEE1252877D100242746AA
:1052D000F94A0121039400E0044316F8013F203B02
:1052E00001FA03F01042F7D130782A2811D06FF07C
:1052F0002F033078A0F13002092A16D8039A44F01F
:10530000020402EB820203EB42021044761C03907B
:10531000EFE758F8042B0392002A03DA504244F4D2
:105320000054039044F00204761C30782E2816D1E5
:1053300016F8010F44F004042A280DD06FF02F0254
:105340003078A0F13003092B09D807EB870302EB73
:105350004303C718761CF3E758F8047B761C3078B3
:105360006C280FD006DC4C2817D068280DD06A288E
:1053700014D104E0742810D07A280FD10DE044F441
:1053800000140AE044F4801401E044F440147278FC
:10539000824202D104F58014761C761C307866288F
:1053A0000BD013DC582877D009DC002875D04528AD
:1053B000F6D04628F4D047281AD193E118E06328A4
:1053C00035D0642879D0652812D18BE1702873D04C
:1053D00008DC6728F1D069286FD06E280DD06F28BF
:1053E00006D1ACE073282CD0752874D0782853D01F
:1053F0005246179990476D1C54E1C4F3025002289D
:1054000009D003280DD0D8F8001004280DD00D6065
:1054100008F1040846E1D8F80010EA17C1E9005283
:10542000F6E7D8F800100D80F2E70D70F0E718F8F5
:10543000041B8DF8001000208DF80100EB460120C0
:1054400003E058F804BB4FF0FF3061074FF0000154
:1054500002D40DE009F101018946B9420FDA814514
:10546000F8DB1BF809100029F4D108E009F101016B
:1054700089468142FADB1BF809100029F6D103980E
:105480005346A0EB090721463846179A00F080FAE8
:10549000284400EB090507E044E008E10DE01BF8B3
:1054A000010B524617999047B9F10109F7D25346BB
:1054B00021463846179AF2E039E00A21C4F3025235
:1054C0004FF0000B0091022A06D058F8040BC117C8
:1054D000032A09D00AE023E008F1070020F00702C0
:1054E000F2E80201904605E000B2C117042A01D19A
:1054F00040B2C117002906DA0A460021404261EB9A
:1055000002012D2202E0220504D52B228DF8042071
:10551000012203E0E20701D02022F7E7914657E09D
:105520000A2100E010214FF0000B00910BE0102148
:105530004FF0000B44F004040827009103E008201A
:105540004FF0000B0090C4F30252022A05D058F825
:10555000040B0021032A08D008E008F1070020F01E
:105560000702F2E80201904603E080B2042A00D16B
:10557000C0B24FF0000922072AD53278702A07D02E
:10558000DDF800C08CF0100C5CEA0B0C05D00EE0CE
:1055900040228DF80420012208E050EA010306D0E1
:1055A00030238DF804308DF8052002229146009BAF
:1055B00083F0080353EA0B030AD150EA010201D138
:1055C000620705D530228DF804204FF001097F1EB7
:1055D0003278582A04D039A20C920CAA02920BE01D
:1055E0003BA2F9E75B46009AFAF7B2FF0C9B9B5C83
:1055F000029A521E0292137050EA0102F2D10298EE
:1056000004A9081A00F1200B600702D524F48034A5
:1056100000E001275F4502DDA7EB0B0000E0002062
:1056200000EB0B01009003984944401A0390E003FB
:1056300006D453462146179A039800F0A9F9054469
:10564000002706E001A85246C05D179990476D1CDF
:105650007F1C4F45F6DBE0030CD553462146179AD5
:10566000039800F095F9054404E03020524617995C
:1056700090476D1C0099481E00900029F5DC08E059
:105680000298029952460078491C02911799904756
:105690006D1CBBF10001ABF1010BF1DC5BE100F033
:1056A00065F90544761C307800287FF40DAE19B0FA
:1056B0002846BDE8F08F0000092801003031323360
:1056C000343536373839616263646566000000003E
:1056D0003031323334353637383941424344454628
:1056E00000000000600700D4062708F1070020F042
:1056F0000700F0E80223804603F0004C5FEA0C004C
:1057000001D097A009E0200501D596A005E0E007AB
:1057100001D095A001E0AFF24C001390307823F057
:10572000004365280CD006DC452809D046281DD04A
:1057300047287FD13BE0662818D067287AD136E029
:105740000021112F01DB112000E0781CCDE90001C0
:1057500004A90CA8FFF7EEFCDDE90D010C9A4FF04F
:10576000000B07F10109109200914EE04FF000404C
:105770000097CDE9011004A90CA8FFF7DBFCDDE9D7
:105780000D020C9B0F994FF0000B91461093009265
:1057900011B9791C00EB0109B7EB090003D4C0F182
:1057A000FF3B07F10109A9EB0700019042E0012F3F
:1057B00000DA01270021112F01DD112000E0384619
:1057C000CDE9000104A90CA8FFF7B4FCDDE90D0147
:1057D0000C9A00914FF0000BB946109221070FD49C
:1057E000009A4A4503DA914601E0A9F10109B9F1AD
:1057F000010F05DD109AA9F10101515C3029F4D0A7
:10580000B84202DA10F1040F03DA0121CDE90110E8
:1058100010E0002803DC8344A9EB000102E0411CF6
:10582000494500DD8946A0EB0B00401C01904FF07C
:1058300000400290200705D40198484502DB4FF054
:10584000FF30019000208DF84B0002980DF14B07BE
:10585000B0F1004F25D002200C902B200D90029823
:1058600000280CDA404202902D200D9007E00A211A
:105870000298FAF7CBFE3031029007F8011D0C991F
:10588000481E0C900029F2DC02980028EFD1791E06
:105890000D980870307800F0200040F0450007F8BF
:1058A000020D11A8C01BC01D02901398007800B112
:1058B000012000EB0901019801EBE071029801441D
:1058C0000398401A401E0390E00306D45346214635
:1058D000179A039800F05CF805441398007818B103
:1058E0005246179990476D1CE00323D55346214635
:1058F000179A039800F04CF805441BE0BBF1000F29
:1059000007DB0098584504DD1098179910F80B0034
:1059100001E0179930205246904701980BF1010B96
:10592000401E05F10105019004D12E205246179921
:1059300090476D1CB9F10001A9F10109DEDC05E019
:1059400017F8010B5246179990476D1C0299481E93
:1059500002900029F4DC53462146179A03989EE6EC
:105960002D0000002B000000200000002DE9F04178
:10597000044600251E461746880404D405E039462F
:105980002020B0476D1C641EF9D52846BDE8F08183
:105990002DE9F041044600251E469046C80301D576
:1059A000302700E02027880404D505E0414638462A
:1059B000B0476D1C641EF9D52846BDE8F0814A68E1
:1059C000002A06D00A68531C0B6010704868401EFD
:1059D0004860704710B500F0ADFC01F001FC0020FC
:1059E0000C4908600C4908600C4908600C490860C3
:1059F0000C4908600C4908600C4908600C490860B3
:105A00000C4908600C4908600C4908600C490860A2
:105A100010BD000054000024580000245C00002445
:105A20006000002464000024680000247400002446
:105A3000780000247C000024800000246C000024F6
:105A40007000002410B51048006810F10F3F0CD012
:105A50004FF0F0300C490860FAF73CFCFFF7BAFF52
:105A60000A480068401C094908604FF0F0300649B8
:105A700008600748006802F017FA00200249086031
:105A8000FAF768FC10BD000000010024100100249A
:105A9000840000242DE9F04704468846EFF3108087
:105AA00000F0010972B6AFF21301A06E884237D13F
:105AB000D4F8B000404533D1E56E8DB31B4928685A
:105AC00088422DD1E86958B30020A066E869401EDD
:105AD000E861D5F81CA0BAF1000F02D10020A8613E
