:020000040800F2
:10000000507E002469040008F34E000875DF0008E4
:10001000F14E0008F1240008396B000800000000D0
:10002000000000000000000000000000135600085F
:1000300049250008000000006D05000823050008A0
:100040008304000883040008830400088304000874
:100050008304000883040008830400088304000864
:100060008304000883040008830400088304000854
:100070008304000883040008830400088304000844
:100080008304000883040008830400088304000834
:100090008304000883040008830400088304000824
:1000A0008304000883040008830400088304000814
:1000B0008304000883040008830400088304000804
:1000C00083040008830400088304000883040008F4
:1000D0008304000871620008830400087962000844
:1000E0008304000883040008000000008304000863
:1000F00083040008830400088304000883040008C4
:1001000083040008830400088304000883040008B3
:1001100083040008830400088304000883040008A3
:100120008304000883040008830400088304000893
:100130008304000883040008830400088304000883
:1001400000000000000000000000000000000000AF
:100150008304000883040008830400088304000863
:100160008304000883040008830400088304000853
:1001700083040008F54E0008830400080000000016
:100180008304000883040008830400088304000833
:100190008304000883040008830400088304000823
:1001A000014D00088304000883040008830400084C
:1001B0008304000883040008830400088304000803
:1001C00083040008830400088304000883040008F3
:1001D00083040008830400088304000883040008E3
:1001E00083040008830400088304000883040008D3
:1001F00083040008830400088304000883040008C3
:1002000083040008830400088304000883040008B2
:1002100083040008830400088304000883040008A2
:100220008304000883040008830400080000000021
:100230008304000883040008000000008304000811
:100240008304000883040008830400088304000872
:100250008304000883040008830400088304000862
:100260008304000883040008830400088304000852
:1002700083040008830400088304000800000000D1
:1002800083040008830400088304000800000000C1
:10029000000000008304000800F002F800F0D4F829
:1002A00014A696E8000CB244B344DA4501D100F03C
:1002B000CBF8BAE80F000FA696E83000A5EB0405CE
:1002C00004EB0607AAEB0704A7F101074FEA15158F
:1002D0004FEA3414A4F10104AC4201D300F0B4F8A5
:1002E00013F0010F18BFFB1A43F0010300F001F8EF
:1002F000DBE7184718E0000048E000000A444FF030
:10030000000C10F8013B13F0070408BF10F8014B74
:100310001D1108BF10F8015B641E05D010F8016BB9
:10032000641E01F8016BF9D113F0080F1EBF10F81D
:10033000014BAD1C0C1B09D16D1E58BF01F801CB40
:10034000FAD505E014F8016B01F8016B6D1EF9D5C3
:100350009142D6D37047000070470000002300246C
:1003600000250026103A28BF78C1FBD8520728BFC5
:1003700030C148BF0B6070476E2900F0DF847029E0
:1003800000F0118366290DF0568665290DF053861D
:1003900067290DF0508661290DF04F8603681B0A0E
:1003A00028BF41F08001692900F08282642900F0B1
:1003B0007F82752900F07C826F2900F0D985782929
:1003C00000F0DD82E92900F07385E42900F07085F2
:1003D000F52900F06D85EF2900F0D685F82900F0A9
:1003E000DC820368DB0928BF41F08001632900F04B
:1003F000E384732900F0E884E32901F0CD81F32937
:1004000001F0D281002070471FB50DF007FE0A48A9
:100410000A4901F099FC01F097FA0400002000213C
:100420000DF0E6FD401C6060002000210DF0CAFDCB
:10043000E06001F0C1F91FBD505E0024506E002441
:1004400010B501F022FA10BDDFF80CD0FFF7DCFF89
:100450000CF0F6FF01F018FC507E002403B4FFF707
:10046000EFFF03BC01F02EFE064880470648004718
:10047000FEE7FEE7FEE7FEE7FEE7FEE7FEE7FEE754
:10048000FEE7FEE78556000899020008000000001C
:1004900014420024507E00240000000898420024EA
:1004A000001000E0FF5207000000FF4000BF00BF47
:1004B00072B65FF824005FF8241001F104010160B6
:1004C0004FF0E0205FF83010C0F8081D5FF83400EE
:1004D0005FF83C10096801605FF83C00016841F07A
:1004E000010101604FF0E0205FF8481041614FF0DA
:1004F000070101614FF00001C0F8181D4FF07F4166
:10050000C0F81C1D5FF86010C0F8201D7047FFF791
:10051000FEBFFFF7FEBFFFF7FEBF01B5BDE801401C
:10052000704701B500F094F8BDE801407047FFF74F
:10053000FEBFFFF7FEBF000000000000000000004B
:100540004FF000002B4A1060EFF3148020F00400FD
:1005500080F3148862B64FF080504FF0E021C1F86C
:10056000040DBFF34F8FBFF36F8FFEE72248234A7E
:100570004FF00003016891B10360EFF3098C2CE99F
:10058000F00F1EF0100F01D12CED108A1C4C4CF80E
:1005900004ED2568C1F808C00DB18D61236072B605
:1005A0001168B1B1016062B64F68154C8D6907F1F1
:1005B00001074F602560D1F808C05CF804EB1EF01D
:1005C000100F01D1BCEC108ABCE8F00F8CF3098845
:1005D000704772B61168016009B962B6F9E74FF069
:1005E00000674FF0E028C8F8047D62B6DCE770478A
:1005F000704700003006002414060024180600246A
:10060000440600240000000000000000000000007C
:10061000026922F00702A2F144026FF002031360A4
:100620004FF0000353609360D36013615361936193
:10063000D361136253629362D362136353634FF0C7
:10064000FF339363D1634FF080731364826070470C
:100650002649086800F101000860254B1A68002A45
:1006600008D0A2F101021A60002A03D1214B4FF0F9
:1006700001001860204908680268002A04D01F4B56
:100680004FF001021A6008E000F104001C4B1A68E8
:10069000904201D11B4B18680860164B1A68002A5B
:1006A00003D11649086800281CD02DE901401349E0
:1006B0000868002801D007F061FE0E4B1A68002A76
:1006C0000ED007F09BFD1048016849B90F4801683A
:1006D0000F4A13680F484FF08052994200D00260D1
:1006E000BDE80140BFF34F8F704700004006002473
:1006F0004406002448060024580600244C06002422
:100700005C0600245406002430060024140600244D
:100710001806002404ED00E053EA020C00F06980A2
:100720002DE9F04B4FF00006002B1FBFB3FA83F505
:1007300003FA05F424FA05F65E4012BF1643B2FA36
:1007400082F502FA05F4C5F120051EBF22FA05FC68
:1007500044EA0C04203556EA044C4FEA144418BF0E
:10076000641C4FF000084FF00009904271EB030C3D
:1007700039D3002919BFB1FA81F701FA07F6B0FAA7
:1007800080F700FA07F6C7F120071EBF20FA07FC22
:1007900046EA0C062037B6FBF4FCA7EB0507103F32
:1007A00007F01F0BCBF120062CFA06F60CFA0BFB18
:1007B00044BFB3460026202FA4BF5E464FF0000B77
:1007C0005BEA060C08BF4FF0010B19EB0B0948EB75
:1007D0000608ABFB027C06FB02CC0BFB03CCC01B68
:1007E00071EB0C01C1E70B46024641464846BDE8A5
:1007F000F08B13B5084318BF4FF0FF300146AFF33D
:100800000080BDE81C4070477CB51D4616460C00B4
:10081000009007D04142A14202D32044401E01E093
:100820004FF0FF30064B7B442A4669460190304624
:1008300000F09DFA002C02D0009A002111707CBDBE
:100840006B0500000FB4044910B503AA029800F02C
:10085000BFFA10BC5DF814FB6402002470B50C46AE
:100860000546012A05D02878800600D5EA690023CC
:1008700002E0012305E05B1C934202D2E05C002809
:10088000F9D1A869E618C01AA861286A1844286234
:10089000284600F0C1F904E0D5E9012114F8010B64
:1008A0009047B442F8D3284600F0CCF970BD000060
:1008B0002DE9F0410646002410687529314616A539
:1008C00010D000F0D0F9002802DA404213A507E06A
:1008D00031688A0701D512A502E0490704D511A5A0
:1008E000012401E000F0C8F900210A2206F12407E2
:1008F00009E0B0FBF2FCB0FBF2F302FB1C0030306D
:1009000078541846491C0028F3D123462A4630461D
:10091000BDE8F04100F0B9B9000000002D00000072
:100920002B00000020000000F0B40D4601880905EE
:1009300002D5214C7C4402E01F4C7C440E34002143
:1009400000F1240608E002F00F071209E75D42EA11
:1009500003721B097754491C52EA0307F3D102784A
:100960000023120704D5702D06D009B102231134DB
:100970002246F0BC00F089B901231034F8E770B5C5
:1009800004460D462146106800F076F902462946D5
:100990002046BDE870400023C6E7D21D22F00703C1
:1009A000D3E90023C0E70368126843F02003036023
:1009B0000823C3610023B7E706D700002DE9F05FE5
:1009C000894604464FF0000ADFF874B1FB44C0F8D2
:1009D00020A02046E1688847002874D0252806D04A
:1009E000D4E901219047206A401C2062F1E70026EB
:1009F0005F462046E16888472028054607DB312D01
:100A000005D2781910F8200C08B10643F1E7B007B9
:100A100001D526F00406C4F81CA00027C4F818A0CD
:100A20002A2D09D028460DF0C6FA38B304EB870802
:100A3000303DC8F8185019E059F8041B204604EB63
:100A400087029161E1688847012F054618D1E06966
:100A5000002820DA26F020061DE0D8F8180000EB68
:100A6000800005EB40003038C8F818002046E168E7
:100A7000884705460DF09FFA0028EED1012F0AD0D5
:100A80002E2D08D12046E16888477F1C0546022F9D
:100A900046F02006C4DBA069002803DA404246F095
:100AA0000106A061F00701D026F010066C2D0BD0D6
:100AB000682D09D04C2D39D06A2D35D0742D35D004
:100AC0007A2D33D016E038E0E1682F46204688477B
:100AD000B842054609D16C2F26D04FF48060E168FA
:100AE000064320468847054604E06C2F1AD04FF491
:100AF000807006430DB3A5F14100192802D82035B6
:100B000046F400664A462946204626604E46FFF7D0
:100B100033FC80B101280BD0F61D26F0070000F150
:100B2000080956E74020E4E78020D8E70020D6E710
:100B300006F104094DE7284652E7206ABDE8F09F18
:100B400096D6000001490CF001BB000064020024AD
:100B500010B5044603E00CF0F9FA401C09D014F873
:100B6000010B05490028F6D1BDE810400A200CF021
:100B7000EDBA4FF0FF3010BD6402002410B5431CE5
:100B800002E010F8011B71B18107FAD14FF0013278
:100B900002C88C1A8C4314EAC211F9D0C01A0A0692
:100BA00003D0C01E10BDC01A10BD0A0401D0801EA3
:100BB00010BD0902FCD0401E10BD02F0FF0343EA45
:100BC000032242EA024200F0EBB94FF0000200B506
:100BD000134694469646203922BFA0E80C50A0E860
:100BE0000C50B1F12001BFF4F7AF090728BFA0E80E
:100BF0000C5048BF0CC05DF804EB890028BF40F8DA
:100C0000042B08BF704748BF20F8022B11F0804F1B
:100C100018BF00F8012B704770B50446856900685D
:100C2000C10601D5302600E02026C00707D070BDE0
:100C3000D4E9012130469047206A401C20626D1E95
:100C4000F6D570BD70B5044685690078C00707D138
:100C500070BDD4E9012120209047206A401C206209
:100C60006D1EF6D570BD09684A0501D540B27047C2
:100C7000C905FCD500B2704709684A0501D5C0B264
:100C80007047C905FCD580B270472DE9F0470D4685
:100C900099469246044600F124080168880604D566
:100CA000E06921F01001216000E00120A84201DD8F
:100CB000471B00E00027A1697A1902EB0900081A16
:100CC000A0612078C00602D42046FFF7A5FF0026C9
:100CD00008E0D4E901211AF806009047206A401C78
:100CE000761C20624E45F4DB2078C0060AD52046EB
:100CF000FFF792FF06E0D4E9012130209047206AF7
:100D0000401C2062381EA7F10107F4DC07E0D4E99B
:100D1000012118F805009047206A401C2062281E17
:100D2000A5F10105F3DC2046FFF78CFF20780006D3
:100D300002D50220BDE8F0870120FBE711680268B8
:100D4000006A530501D508700AE0D30501D5088073
:100D500006E0130603D5C217C1E9000200E00860EF
:100D60000120704701694A1C02610878704700B58C
:100D70008FB0CDE901310021059105497944CDE9D4
:100D8000031011466846FFF719FE0FB000BD0000C2
:100D9000E5FFFFFFD1E900239A4202D2531C0B600A
:100DA0001070704710B5436913B1AFF3008001E0D4
:100DB000FFF754FD012010BD127800F124010A70E4
:100DC00000224A700122EDE711684FF0FF32E9E797
:100DD000074B70B50D467B44FFF7C9FF0446284614
:100DE00000F0E6FC10B14FF0FF3070BD204670BD42
:100DF00073C300002DE9FF5F15468A460446DFF8FD
:100E0000AC80F8440027D8E900103E46CDE9001038
:100E100010E03AF816106A4602A800F069FD411C7D
:100E200007D02178890603D5E269391891420DD897
:100E30000744761C2078800602D5E069B84205DDBB
:100E4000AE42E6DB3AF816000028E2D1A069C01BEA
:100E5000A0612046FFF7E0FED8E90010CDE90010C0
:100E6000002017E03AF818106A4602A800F040FD8A
:100E7000B0F1FF3F81460BD000250DF1080B05E0D6
:100E8000D4E901211BF8050090476D1C4D45F7D3AF
:100E900008F10100B0428046E4DB206A3844206259
:100EA0002046FFF7CFFEBDE8FF9F000072D2000092
:100EB0002DE9F0418046D21D22F007020025D2E93B
:100EC0000002F52915A614D0011E72F1000106DA00
:100ED0000023D0EB030063EB020211A608E0D8F870
:100EE00000108B0701D50FA602E0490701D50EA619
:100EF00001251146002408F1240704E000F070F8F1
:100F000030323A55641C50EA0102F7D12B46324682
:100F100021464046BDE8F041FFF7B7BE00000000A3
:100F20002D0000002B0000002000000030B4002144
:100F300000F1240408E002F00705D208303542EA47
:100F40004372DB086554491C52EA0305F3D1046877
:100F5000002310A2250708D504F020040C4304D078
:100F6000C46901230CA2641EC46130BCFFF78DBEAE
:100F700010B5044621461068FFF77EFE0246204663
:100F8000BDE810400023D1E7D21D22F00701D1E9CE
:100F90000023CBE700000000300000004FF000020B
:100FA0000429C0F0128010F0030C3FF410AECCF115
:100FB000040CBCF1020F18BF00F8012BA8BF20F8E9
:100FC000022BA1EB0C01FFF702BE5FEAC17C24BF3C
:100FD00000F8012B00F8012B48BF00F8012B7047E7
:100FE00030B5B0F10A0271F100034FEA900E4EEAFB
:100FF000817EB0EB0E0061EB91014FEA101E4EEACC
:10100000017E10EB0E0041EB11114FEA102E4EEA5B
:10101000016E10EB0E0041EB11214FEA104E4EEA2B
:10102000014E10EB0E0041EB1141401841F100015F
:101030004FEAD00040EA41704FEAD1014FEA810403
:1010400044EA907410EB800544EB01046D1944EB05
:101050000404521BA3414FF0000348BF0A3200D5DD
:1010600030BD401C41F1000130BD2DE9FF4F0C4661
:101070001E464FF0FF378BB0D2E90001DDF86080EB
:101080000A908A46C1F30A5505B93D460021084633
:101090004FF00000BAF1000F00F4400005DA00EB59
:1010A00080004FF4400101EA50004FEA9059B9F135
:1010B000010F00DDB9460A9850EA4A000ED044F606
:1010C0001050A5F2FF3545432F14B8F1000F1ED084
:1010D0007542291E1EDDC9F100021CE0B8F1010FA6
:1010E0004FF0000001D0302103E0F24305E021542D
:1010F000401CB042FBDB30460022002121540B99FA
:10110000C1F80880C1E900200FB0BDE8F08FBD1B19
:101110006D1CDEE74A4600DA694206A800F080FC52
:1011200006AB93E8070003AB83E8070050460A9933
:101130000CF058FB8DE80700A0F500501F38009018
:101140000398002D0ADD42F21F014A46084400239D
:1011500003A9039068460CF0C1FD09E0A0F500501A
:101160004A461F38002303A9039068460CF0CBFDC4
:101170008DE807000004000C03D04FF0FF30410859
:1011800000E01046B8F1000F03D00022009215468F
:101190001EE0751E05D4FFF723FF303262556D1E29
:1011A000F9D5B3460122084302D000227F1C04E097
:1011B0002078302801D100227F1E002A099784D090
:1011C0001DE0112D07DAFFF70BFF303262556D1C61
:1011D00050EA0102F5D1084302D00098C8B10EE0F0
:1011E0000021681E05E0235C625C63542254401EAB
:1011F000491C8142F7DBAB46A81B401E099000202A
:1012000004F80B000B98099AC0F80880C0E9002B7D
:101210007AE711264FF0000857E72DE9F04F88468E
:101220000446D21D22F0070191B0D1E90001CDE9B9
:101230000A010CF0A8FE02460B98C00F01D02D2029
:1012400007E02068810701D52B2002E0202101EA78
:10125000C000032A099001D0072A05DB0346414656
:10126000204600F09DFB0BE12078800601D5E06967
:1012700000E00620B8F1650F814606D0B8F1660F90
:1012800018D0B8F1670F70D131E00020B9F1110F1B
:10129000009001DB112301E009F101030AAA01A971
:1012A0000CA8FFF7E2FEDDE90C70002609F101054C
:1012B000834647E001204B4600904FF000470AAAC2
:1012C00001A90CA8FFF7D1FEDDE90DB00C995D4630
:1012D000002610B909F101000D18B9EB050003D47F
:1012E000C0F1FF3609F10105A5EB09002BE0B9F1CA
:1012F000010F01DA4FF001090020B9F1110F009040
:10130000484601DD112300E003460AAA01A90CA802
:10131000FFF7ABFEDDE90C704D46002683462078D2
:1013200000070AD4AB4500DA5D4601A8012D04DDB3
:10133000411911F8011C302907D04F4502DA17F185
:10134000040F04DA012082460FE06D1EEEE7002F45
:1013500002DCED1B3E4403E0781CA84200DD7D1C4E
:10136000B81B00F1010A4FF000472078000703D4B2
:10137000AA4501DB4FF0FF3A0021B7F1004F0DF114
:1013800043088DF8431024D002202B23002F01DACC
:101390007F422D230A21021EA0F1010000DC5FB173
:1013A00097FBF1FC97FBF1F201FB1C7C17460CF15B
:1013B000300C08F801CDEEE7A8F101000370218898
:1013C000090501D5452100E06521A0F1010800F8DB
:1013D000011C09980FA9A1EB0807FF1D00B101200E
:1013E000411901EBEA70A1693844081A401EA06156
:1013F0002078C00602D42046FFF70EFC099828B1D9
:10140000D4E901219047206A401C20622078C00660
:1014100022D52046FFF700FC1EE0002E04DBB3457A
:1014200002DD01A8805D00E03020D4E90121904771
:10143000206A401C2062761CAAF101005FEA000AC3
:101440000AD100F081FAC0680168405CD4E901214A
:101450009047206A401C2062281EA5F10105DCDCB3
:1014600007E0D4E9012118F8010B9047206A401CDD
:101470002062381EA7F10107F3DC2046FFF7E2FBEC
:10148000032011B041E600002DE9F04F04460D465F
:10149000D21D22F0070089B0D0E9009748463946AE
:1014A0000CF071FD0246F80F01D02D2307E02068F3
:1014B000810701D52B2302E0202101EAC0038DF82A
:1014C00020300BB1012000E00020032A824601D029
:1014D000072A04DB2946204600F062FA3FE1207823
:1014E000800601D40D2500E0E569C7F30A560D2DED
:1014F00049DA00214FEA175B08464FF00000002F41
:1015000000F4400007DA00EB80004FF4400100EBEC
:10151000D07001EA60008115012901DD4FF0FF3133
:1015200000224FEA850CBCF1180F06D31346ACF12C
:1015300018004FF08052C24003E04FF4801323FAAA
:101540000CF30CF10C0CBCF1200F04D3ACF1200C0B
:1015500009FA0CF001E007FA0CF000294FF00048FE
:1015600001DD18B90FE00ED140450CD319EB02098B
:101570005F4121B9404502D19F4329EA0209BBEBF3
:10158000175F00D0761C2088000502D57B48784480
:1015900002E07A487844193808AA302302F80A3061
:1015A000037C0AF10101002E0AF1020A53546A4633
:1015B00002DC4FF0300101E04FF031014FF0010843
:1015C0008DF8001002D0A6F2FF3603E059EA470179
:1015D00000D06B4E002D02DC2178090704D54FF0B6
:1015E00002082E218DF80110C44600210BE0C7F33C
:1015F00003433F01C35C491C6D1E02F808300529F6
:1016000008F1010801DA002DF1DC00210CE000EB0B
:101610001973491C1B786D1E082902F808304FEA1F
:10162000091908F1010801DA002DF0DC21688B06A8
:1016300002D516E0A8F10108E04505DD02EB08033C
:1016400013F8013C302BF5D0B8F1000F09DD02EBA7
:10165000080313F8013C2E2B03D1090701D4A8F18C
:101660000108002D05DD3E2102F808106D1E08F16D
:101670000108407C002E02F8080008F1010804DA95
:101680002D20764202F8080002E02B2002F8080024
:101690000A214FF47A70864208F101080BDB96FBB1
:1016A000F0F3303302F8083096FBF0F308F101084C
:1016B00000FB136601E0642E0CDB642096FBF0F364
:1016C000303302F8083096FBF0F308F1010800FB14
:1016D000136601E00A2E06DB96FBF1F0303002F8CB
:1016E000080008F1010896FBF1F001FB10603030B2
:1016F00002F80800A16908F1010808EB050202EBF5
:101700000A00081AA0612078C00602D42046FFF71C
:1017100083FA216A08AE01EB0A00206204E0D4E9F2
:10172000012116F8010B9047BAF1010AF7D220788F
:10173000C00602D52046FFF76FFA6E4609E016F89C
:10174000010B3E280FD0D4E901219047206A401CAC
:101750002062B8F10108F2D22046FFF773FA09B00F
:101760000320BDE8F08F206A2844206203E0D4E91A
:101770000121302090476D1EEBD3F8E701CB00002C
:1017800002FCFFFF10B5436913B1AFF3008001E025
:10179000FFF730FB012010BD128800F12401828484
:1017A0000022C2840122EDE711684FF0FF32E9E721
:1017B000007B00F08000704710B542485421FFF7CD
:1017C00004FA41485421FFF700FA40485421FFF73A
:1017D000FCF93F493B483C4A3F4B08603D490A60A1
:1017E0003A491960531C0365481C106501200865BF
:1017F0003B48344A39A1784400F0A8F920B9384868
:1018000078440A3800F049FA37482F4A35A178441D
:1018100000F09CF920B9344878440A3800F03DFAC9
:1018200032482A4A2FA1784400F090F920B92F4875
:1018300078440A3800F031FA40232248DC000021C5
:10184000224600F05FF920B125487844543800F072
:1018500024FA1D4822464023002100F053F920B10C
:1018600021487844543800F018FA184822461023CA
:10187000002100F047F9002806D01C487844BDE854
:101880001040563800F009BA10BD104870B5006D10
:1018900020F001040B4800F0D1F90B4800F0CEF91C
:1018A0000A4800F0CBF909E0206D20F00105204640
:1018B00000F0C4F9204600F04BF82C46002CF3D180
:1018C00070BD00001002002464020024B80200244D
:1018D000000000240400002408000024720000001E
:1018E000ACC800007700000098C8000084C8000061
:1018F0002DE9F04116460C46054600F01DF8036838
:1019000093F80101012807D0FF2C12D8185D80B18F
:1019100001202C70BDE8F081D3F807013246214642
:1019200003F20713C7182846BC46BDE8F041002360
:1019300060474FF0FF30EDE710B500F005F8001DEF
:1019400010BD00BFADC60000004870472C03002446
:1019500070B50446051F00F0DBF90068002C14BFC9
:10196000446870BD002C18BFAC423CBF2046646880
:10197000F8D301680A18AA4218BF456003D12A6843
:1019800005461144016028684119A1421CBF6C60E2
:1019900070BD6168696021680844286070BD0000FE
:1019A0002DE9F0411F46044603260168072A01F489
:1019B000006004DB08B116A505E016A503E008B138
:1019C00015A500E015A521F010002060A069C01E3B
:1019D000A0610FB1401EA0612046FFF71DF94FB175
:1019E000D4E9012138469047206A401C2062C01C7F
:1019F000206206E0206AFAE7D4E9012115F8010B1C
:101A00009047761EF8D22046FFF71CF9BDE8F0811A
:101A10004E414E006E616E00494E4600696E660092
:101A20002DE9F047814616468AB0354878440DC8FE
:101A30008DE80D0032487844801C03AC0DC884E862
:101A40000D0041F69B300844372190FBF1F290FBEA
:101A5000F1F5A5F1800501FB12041B3C02D564429F
:101A6000012000E00020DFF898A080460027FA441B
:101A7000AAF1BE0A0EE0E0070AD03246684607EB3C
:101A8000470101230AEB81010CF03DF98DE80700C5
:101A900064107F1C002CEED1194F7F44AE3F19E03B
:101AA000E80715D007EB04100DF1180A90E80E00B6
:101AB0008AE80E00C068F04201D1981908903246B9
:101AC000012306A903A80CF01EF903AB83E8070065
:101AD0006D10641C002DE3D14FF0010332466946BE
:101AE000B8F1000F03A802D00CF0F8F801E00CF0F8
:101AF0000AF9C9E90001C9F808200AB0BDE8F08771
:101B000000C7000070B5C468A50713D0650211D4E2
:101B1000B2F5807F09D0B2F5007F06D0B2F5806FB4
:101B200008D1012300F1240106E05D1E6FF07F461D
:101B3000B54201D3012070BD0161C361416024F44D
:101B400070611143C160002070BD00002DE9F041BB
:101B50000C461646070047D0104600F06FF8207874
:101B6000611C61280AD0722802D077283CD102E09B
:101B70000125002405E00225042402E0082448F29F
:101B8000020511F8010B2B2806D0622809D011F8A4
:101B9000010C74280AD00BE045F0030544F0020460
:101BA000EFE745F0040544F00104EAE744F01004CF
:101BB0003846214600F078F8411C15D000213161EB
:101BC00071604FF40071F560F1617061200704D518
:101BD00030460222002100F015F9306D40F001007E
:101BE00030653046BDE8F0810020FBE72DE9F0418B
:101BF0000D460646104C206DC10704D0410804D0A4
:101C000020F00104F7E722460EE0542000F0CBF864
:101C100007000ED0206D47F00101084354212065D4
:101C20003846FEF7D2FF3A4629463046BDE8F04135
:101C30008CE70020D6E70000100200242DE9F047D1
:101C400004464FF0FF380026C568D4E90497A8077A
:101C500018D0204600F092F9384600F02FF80028FE
:101C600000DA4646280502D54846FFF771FE4C21AA
:101C70002046FEF7AAFF206D20F0010020653046C7
:101C8000BDE8F0874046FBE710B50446AFF300809F
:101C90002046BDE81040FEF7E1BB10B500F0B8F9F2
:101CA000BDE8104000F0AEB90EB5CDE90001FEF779
:101CB00065FF029069460120ABBE0EBD08B56946BE
:101CC00000900220ABBE08BD1FB58DE80700694635
:101CD0000520ABBE04B010BD1FB58DE80F006946EE
:101CE0000620ABBEF6E708B5694600900920ABBEFA
:101CF00008BD1CB5CDE9000169460A20ABBE1CBD7C
:101D0000704708B5694600900C20ABBE08BD0000C6
:101D100000487047140300247047704770477047AD
:101D200038B504460A460020694600F03EFA00280D
:101D300008BF38BD02460099204600F0D0F90120C6
:101D400038BD012000F01FBAF8B500F023FA0546AF
:101D500000200C460C2000BF0646A819A0420DD951
:101D600032466946002000F020FA070008BF00F064
:101D70000AFA0098A04218BF0546C419FFF7C8FF29
:101D800005600746F01D20F007004619284600F0C0
:101D9000A0F9B44208BFF8BDA21B31463868BDE8BF
:101DA000F84000F09CB970B50646FFF7B1FF056832
:101DB00006F10B0020F00704B4429CBF002070BD68
:101DC0002B466A68BAB11068A04210D304F108012A
:101DD00088423CBF5068586007D351681019416071
:101DE0001168091B016058601460101D70BD134616
:101DF0005268002AE7D121462846FFF791FF0028C4
:101E0000DED170BD2DE9F041044616460D46476906
:101E1000007B80072ED03846FFF765FF50BB3EB3EE
:101E2000012E02D0022E25D104E0204600F071F9E7
:101E300005441DE03846FFF764FFE168002841F0E3
:101E40001001E16005DA204600F058F80120BDE8F5
:101E5000F081C9030BD56268E16A914200D811464E
:101E6000A26911442269891A814200DD08460544AD
:101E7000002D01DA0220EAE7E16A6068E268814247
:101E800006D29103E06203D522F4003141F0100242
:101E9000A6690027AE4213DCE16A814201D90B46F4
:101EA00000E0034603EB060C2369ACEB030CAC45E6
:101EB00006DD814201D98C4600E084469C4505D16F
:101EC000A760276042F02000A5620DE0AD1BE66927
:101ED000AE1B8142A66000D90846C01A281A2060AD
:101EE0005819606022F0200003490840E06000209B
:101EF00084F84870ABE70000BFCFD7FFC16821F47A
:101F0000001141F08001C1600021816001607047D3
:101F10002DE9F74F15460C464FF0FF3B3848D76880
:101F2000D2F814A0074209D05046A969FFF7E1FE94
:101F3000002819DB3248C0430740EF604FF00049EA
:101F40006FF000484C4501D3464600E02646009914
:101F50003B4650463246FFF7B7FEA96920F00042E3
:101F6000B21A1144A96128B12846FFF7C7FF5846A5
:101F7000BDE8FE8FA41BE5D10020F9E770B504464B
:101F80000569C06A6168884200D80846E16821F4A2
:101F90002011E160C90312D5A84208D02246411B96
:101FA0002846FFF7B5FF10B14FF0FF3070BD00209D
:101FB000E562C4E90150E06820F48030E060002070
:101FC00070BD10B50446C06820F02000E060A16A32
:101FD000A06988420DD02046FFF7D0FFE06820F4CA
:101FE000405040F01000E060A06AA0612069E0620B
:101FF000606044F24001E0688843E06010BD00008A
:1020000010000200002801D000F05CB8704700000A
:1020100010B5014602A000F09DF8012010BD00009F
:1020200053494752545245443A2052656469726597
:1020300063743A2063616E2774206F70656E3A2076
:10204000000000000000000030B44FF0013C50F8E8
:10205000042BCCFA52F451F8043BD51A20D1FCB928
:1020600050F8042BCCFA52F451F8043BD51A17D18E
:10207000B4B950F8042BCCFA52F451F8043BD51AF9
:102080000ED16CB950F8042BCCFA52F451F8043B41
:10209000D51A05D1002CDAD030BC4FF000007047C3
:1020A00029BAB1FA81F111F01801D1F12000844070
:1020B000F2D1CA40CB4012F0FF0213F0FF0330BC54
:1020C000D01A704701491820ABBEFEE72600020077
:1020D000704700210160416070470C207047034643
:1020E00040688C46002818BF88423CBF03464068C1
:1020F000F8D318681844884207D00CF1030020F088
:102100000700001D411A521A0146081D0A60FFF718
:102110001FBC10B50146C268900703D0900607D5D2
:10212000886A0AE000F066F801210160881E10BD8F
:102130008B69486818440B69C01A91F848301BB184
:1021400091F84910401A10BD1103FCD50028FADDA2
:10215000401E10BD70B505460C460A2000E06D1CFF
:1021600000F040F835B128780028F8D102E0641C6E
:1021700000F038F814B120780028F8D1BDE870409C
:102180000A2000F02FB810B500F038F8BDE8104074
:10219000FFF738BF124B694600F580528A421A6039
:1021A00001D8114670471960704730B50C4D6B4629
:1021B000A3F580532C6822449A420FD89B1A02F54B
:1021C000805003EBD37302EB6303984200D91846A7
:1021D000C01D20F007020C60101B2A6030BD0000FB
:1021E0000C00002408B569468DF800000320ABBE42
:1021F00008BD0000004870470C03002410B50128FA
:1022000005D0002103A0FFF7A5FF012010BD09A103
:10221000F8E7000053494752544D454D3A204F7559
:1022200074206F662068656170206D656D6F7279CE
:10223000000000003A2048656170206D656D6F7286
:102240007920636F7272757074656400A648EFF34D
:10225000108172B642680132426081F31088F6E75D
:1022600002200AF0CDFE4FF4FA7005F0EFFBF7E71D
:1022700088B0214C02200025257005F0E7FB642082
:10228000656005F0E3FB606801262670E06002F0FF
:102290006FFC0AF0B7FC02F039FD04A84FF0B40857
:1022A00018A11B4A00234FF48057019780E8600172
:1022B0000320CDE9020011480090114806F048FBC8
:1022C00004A816A1194A002380E8600104200390A5
:1022D000CDE901700F4800900F4806F039FB04F17A
:1022E000140013A10022342306F004FA03F092F93B
:1022F000012005F0ABFBF9E76C030024300B002450
:10230000301B0024417070204D73702050726F009C
:102310006122000858310024584100244170702087
:102320005461736B2055736572494600A123000800
:102330004170705072696E746653656D7000000074
:10234000154C207818B9C82005F080FBF9E7E26841
:102350006421B2FBF1F0632AE06001D80022A260A0
:10236000414300259FED0D8A6160616800EE100A0F
:1023700064206560216101EE101AB8EE400AB8EEE3
:10238000411A81EE000A38EE400A84ED020A05F097
:102390005DFBE068E9E700BF6C0300240000C84271
:1023A00082B0DFF86C80DFF86C900FF2B00BDFF8D2
:1023B000E8A03A4D0AF016FC012825D14046C8474E
:1023C000154890ED020A1548B7EEC00A53EC102BE1
:1023D000C8474046C84712A0C8475846C84757464E
:1023E000D7F8A830D7E90462D7E90A01BC68F31A24
:1023F000CDE900302846331B00F052F8D7F888703A
:10240000574518BF002FEBD1142005F01FFBD1E773
:10241000D1E10008A12400086C030024B8E1000801
:1024200020C8CECEF1D3C5CFC8BCB620C8CECEF121
:10243000D5BBB4F3D0A120B5B1C7B0CAB9D3C3D509
:10244000BB2020D7EEB4F3D5BBCAB9D3C32020201C
:10245000C8CECEF1C3FB0D0A0000000020202050A2
:1024600072696F2020202020537461636B53697A56
:1024700065202020437572537461636B20202020F7
:102480004D6178537461636B2020205461736B6ECF
:10249000616D650D0A000000E82B002413E20008BE
:1024A00083B0B0B5B5B0044639A80DF10B050EC028
:1024B00039ABC921224601932846FEF7A5F90A48FF
:1024C0004FF0FF3100F11404204606F06DF907A02B
:1024D0002946FEF7B7F9204606F090F935B0BDE879
:1024E000B04003B0704700BF6C03002425730000A8
:1024F000FEE710B5029C5B1A241A101A634393FB83
:10250000F0F0084410BD0000082803D206A151F8DD
:102510002000704780B503484FF48E7100F015F825
:10252000002080BDCFE200084C0400240000000021
:1025300078040024000000000000000000000000FB
:102540000000000000000000704701B1FEE7704786
:102550002DE9F04190460C4606460AF03DFFE74F54
:102560007020B847E64DA847F0B2B847A8470AF030
:1025700033FF7120B847A847A8F101050026F7B23C
:102580000AF0E4FEBD42E05503DD0AF0B9FE013673
:10259000F5E70AF0CBFEBDE8F0410AF02DBF00BF21
:1025A0002DE9F04389B0DFF8389199F80700002849
:1025B00000F08C8099F808000A28C0F08780002578
:1025C00089F8085003F040FA00285BD00DF10308A9
:1025D0000020212289F801504146FFF7B9FF4FF052
:1025E000000C002189F809500A2D23D005EB450283
:1025F00008EB02035A79EF2A1CD802F00F00DC78AE
:102600001E799B7909EB0507013189F80910120938
:10261000023543EA0020B882A30904F00F0046EA1D
:102620000020788109EB0C000CF1010C80F82330BC
:102630008277D9E799F806000A2810D055280ED1DC
:10264000B9F80A40B4F5877F88BF40F20F14B9F893
:102650001450B5F5EF7F88BF40F2DF150DE0B9F8F3
:10266000144040F21F35B4F5EF7F88BF40F2DF140D
:10267000B9F80A00A84238BF054699F80000D0B161
:1026800002201BE099F8000001281FD199F80100F1
:10269000013089F80100C0B2032817D30020B9F82F
:1026A0000420B9F80210A9F80000032009B0BDE821
:1026B000F04303F0E7B9012089F8000029462246DB
:1026C00003F0E0F9A9F80440A9F8025009B0BDE808
:1026D000F08300BF0248017A01310172704700BFE8
:1026E000220500242DE9F84391460C4606460AF0DF
:1026F00073FEDFF8A481B64F98F80800B847B54DCF
:10270000A8470720B847A847F0B2B847A8470AF03B
:1027100063FE98F808000130C0B2B847A847A9F195
:1027200001050026F7B20AF011FEBD42E05503DDB7
:102730000AF0E6FD0136F5E70AF0F8FDBDE8F843DA
:102740000AF05ABE70B58CB0534EB079002800F034
:102750009A80F0791428C0F0968000206C46F071C1
:10276000012240F221702146FFF7BCFF9DF80000D6
:10277000C0070DD13078012840F085800020B28854
:102780007188307003200CB0BDE8704003F07AB956
:10279000611C40F222702122FFF7A4FF9DF80B106C
:1027A0009DF811209DF81830BDF800009DF81B50D1
:1027B000B175BDF80410A6F809009DF8060086F86A
:1027C00022503074BDF8020009BA0C0CF481BDF837
:1027D000071000BA000CB08109BA090C7182BDF86B
:1027E000091009BA090CB182BDF80C1009BA090C1C
:1027F0003183BDF80E1009BA090C71839DF81010D1
:1028000031779DF8201086F8281043EA0221F183E1
:10281000BDF8191009BA090C3184BDF81C1009BAA9
:10282000090CB184BDF81E1009BA090CF184317A83
:10283000BA290ED1B4F5487F40F2DF1128BF4FF41A
:102840004874081A85B2B5F5F07F28BF4FF4F075CB
:102850000DE0B4F5806F40F2572128BF4FF480643B
:10286000081A85B2B5F5167F28BF4FF41675307873
:1028700008B1022001E00120307021462A4603F011
:1028800001F9B58074800CB070BD00BF0248C179F9
:102890000131C171704700BF4A0500242DE9F8439A
:1028A00091460C4606460AF097FDDFF83881484FFE
:1028B00098F80800B847474DA847300AB847A847D6
:1028C000F0B2B847A8470AF087FD98F80800013031
:1028D000C0B2B847A847A9F101050026F7B20AF02F
:1028E00035FDBD42E05503DD0AF00AFD0136F5E78E
:1028F0000AF01CFDBDE8F8430AF07EBD89D300084C
:1029000015D4000870B58CB0364EB07900285CD074
:10291000F0790A2859D3694648F24E100122002462
:10292000F471FFF7BBFF9DF8000098B3694648F2C9
:102930004E1008227470FFF7B1FF0AF04DFD307A97
:10294000234CA047234DA8478120A047A8474E20ED
:10295000A047A8470020A047A8470AF04DFDBDF8B2
:102960000440BDF80000BDF8061040F21F35A6F87F
:102970000900BDF80200F4813182B4F5EF7FB08127
:1029800088BF40F2DF14A84238BF05463078A0B1B6
:10299000022014E03078012817D17078013070706F
:1029A000C0B2022811D30020B28871883080032081
:1029B0000CB0BDE8704003F065B8012030702946C6
:1029C000224603F05FF8B48075800CB070BD00BF84
:1029D00089D3000815D400080248C1790131C171BA
:1029E000704700BF740500240AF0E0B8014802F007
:1029F00007BC00BF200400582DE9F04F85B0604AA5
:102A00000A244FF0000B90425E4A08BF092402449A
:102A10004FEAB223092B38BF4FEAB22400F120025B
:102A200001940390009202910020012400220F687B
:102A300037FA0BF600F0A18004FA0BFA17EA0A083D
:102A400000F096800323D1F804E003FA00F60EF0BC
:102A500003096FEA060CA9F10106012E11D8039BA8
:102A60009E68CF6806EA0C0687403E439E60CEF320
:102A700000165F6806FA0BF627EA0A073E435E6017
:102A800005E0B9F1030F02D14FF0030923E0039BE6
:102A9000DE68029906EA0C068F6887403E43DE60D6
:102AA000B9F1020F17D102F01C060F23009D03FAA3
:102AB00006F76FF0030303EA5B0E55F80E30029938
:102AC000BB430F6907FA06F6334345F80E30D1F8D9
:102AD00004E00EF00309039909FA00F30D6805EA12
:102AE0000C052B430B601EF4403F029940D0274C4D
:102AF000236843F00203236023680F2403F00203DA
:102B0000049302F00C03049E04FA03F52BF0030671
:102B10001F4C375927EA0505019F07FA03F32B439A
:102B200033514FF0B04423684E6843EA0805F7027A
:102B300058BF23EA08052560134CB702236843EA0F
:102B4000080558BF23EA08052560B703D4F880308C
:102B500043EA080558BF23EA0805C4F88050F60385
:102B6000E36F43EA080558BF23EA0805E567012437
:102B7000023004320BF1010B59E705B0BDE8F08FCC
:102B8000002402580000FEA704000058F444025834
:102B900008040058426902EA0103914341EA0341F3
:102BA00081617047002A08BF0904816170470000F5
:102BB00001480068000C70470010005C0D48006878
:102BC000B0B10D480068800B68B100BF013800BF8C
:102BD00000BF00BF00BF00BF00BF00BF00BF00BFFD
:102BE00000BF00BFF0E70549086801300860704782
:102BF00005F0BABB20000024180000240C42002479
:102C0000D0F80003016D426F01310165506C012164
:102C100061F3010050640A480068E03009F05CBFCD
:102C2000D0F80003016D426F01310165506C022143
:102C300061F30100506402480068E03009F04CBFC5
:102C4000D4470024006803F071BC006803F072BC34
:102C50002C2211FB0200006D704710B502F0D5FA6E
:102C600004BF022010BD012084F8F802206803F0A0
:102C700070FC02F0FDBA2DE9FF4102F0C6FA03D163
:102C8000022004B0BDE8F081012084F8F802D509E3
:102C9000DDF830C0DDE90A764FF000082C2011FB8A
:102CA000004080F83B5002F07F0580F83D80A0F89E
:102CB00040C080F8383080F83F6080F8391080F8E4
:102CC0003C7080F83A502068CDE90076CDF808C015
:102CD00003F084FC84F8F88204B0BDE8F081F0B51C
:102CE00085B0052A68D80123934013F0360F63D0CE
:102CF000D0F80003466F002E5ED006EB8100856899
:102D0000002D59D0AC68002C56D0052A56D0022A86
:102D100030D0012A54D195F82A00012857D195F8CE
:102D20002C0040F0020002284CD102F05BF9D4E9FB
:102D3000031210442061814247D902F053F96968B7
:102D4000C969884241D1D4E903128C1AA04238BF24
:102D50000446AC6195F82C3095F829102D69B06CBB
:102D60002A440125CDE900520026A4B2CDE902464D
:102D700001221FE095F82820092A1DD80120904043
:102D800010F42A7F18D06B68002795F82910B06CD2
:102D90002E6924692D8B033A34449B6918BF0122A4
:102DA0008DE8B40003F00302023AB2FA82F252094B
:102DB0005300002200F072F805B0F0BD212028E099
:102DC000232026E002F00EF9206195F82A00F8B9D8
:102DD000A969D4E903020A442261904218D995F8FE
:102DE0002D100029E8D1871AA06BB84238BF0746DA
:102DF00095F82C3095F82910B06C2C69AF61BEB2F3
:102E0000002522440124CDE90042CDE90265D0E746
:102E1000002060633046294606F0B5FAE76BAF60E4
:102E200037B395F82D0060BB95F82C00012802D12E
:102E300095F82A0080B30C203858A86129463A46F4
:102E4000304606F0B8FA95F82C3095F82A2095F817
:102E50002910B06C2E693F692D8B4FF0000C3E4459
:102E60000127CDE90076CDE9025C00F017F808E013
:102E700095F82C0040F00200032804BF012085F8DB
:102E80002D00616A09B12046884704F1440005B06D
:102E9000BDE8F04009F020BE3820CDE72DE9F04133
:102EA0002C2411FB040484F83F3084F83B20383490
:102EB000DDE9067EDDF820800FB1022602E0099EE2
:102EC000667103264FF0000C032BA67216D800265D
:102ED000DFE803F00513020252B1227F09E06AB96C
:102EE000012F0BD1B8F1000F17D0627FBAB904E0FF
:102EF000627F002A18BF01225600A6726170027B11
:102F00000168C4F80CE0C4E9058CA4F828C00846A0
:102F10002146BDE8F04103F0E3BB012262770226BF
:102F2000EBE700002DE9F04F85B006680446304617
:102F300003F00BFB012840F05583206803F0FEFCF2
:102F4000002800F04F83206803F0F8FC0146206859
:102F5000890202D54FF40011416103F0EFFC0146F4
:102F60002068C90202D54FF48011416103F0E6FCEC
:102F700001462068490102D54FF08061416103F0AC
:102F8000DDFC01462068890701D50221416103F07B
:102F9000D5FC01462068890018D54FF000514161E9
:102FA000D6F84014C90711D13046102103F09AFA1F
:102FB000304603F077FAA069022803D12068012186
:102FC00003F098FC2046FFF72BFE206803F0B6FCC8
:102FD0002568C00148D5D5F840040490D5F84004D0
:102FE0000390039820F02E0003900498800709D5E1
:102FF0000498C00702D02046FFF702FE039840F075
:10300000020003900498000723D5039840F00800BD
:1030100003900498400703D4204600F0A7FB18E073
:10302000A06902280BD12068049901F4C021B1F5F0
:10303000802F14BF0121022103F05CFC06E020690F
:10304000012803D14EF66020C5F80404204600F0A4
:103050008EFB0498800603D5039840F0200003906F
:103060000398C5F840042568284603F067FC00076C
:1030700001D4206805E0204600F07EFB206808218E
:10308000416103F05BFC2568C00649D5A86920F0C2
:103090001000A861286A00F4F011B1F5802F3AD130
:1030A000C0F30A17BFB300F00F092C2019FB004032
:1030B000416C81B300F13808D8E905023A448242F4
:1030C00003D9042088F8280025E028463A4603F072
:1030D00039FCD8F80C00D8F818103844C8F80C009F
:1030E000C819C8F8180005EB4910D0F81015B8F841
:1030F000082097420FD1D44A11400CD000F5A060AF
:103100000222016862F39F71016098F81C0080F050
:10311000010088F81C002568A86940F01000A8612B
:10312000284603F00BFC800140F15C82214651F8F7
:10313000380B019103F0D0FA4FF0000A4FF0000B6A
:103140004FF00108029006F5A0600090A06883454A
:1031500080F044820BF00F00029921FA00F0C007C2
:1031600000F0D38100985FFA8BF64FF02C093146BE
:1031700050F80A502768384603F0D8FB29044FEA74
:10318000407047D400285CD401F0EBFE80064FF07D
:10319000020567D401F0E5FE800500F1788001F0BA
:1031A000E0FEC00740F07C8001F0DBFE400600F14D
:1031B000318101F0D6FE000700F1578101F0D1FE08
:1031C000C00600F16B8101F0CCFE000600F1A28187
:1031D00001F0C7FE400500F1B58101F0C2FE800795
:1031E0004FF02C0040F1918107EB461101F0DBFF1D
:1031F00000F28B81DFE812F0D10189010B01090097
:103200000900DE01BE018901BE0140F202210185F3
:10321000022276E1002821D401F0A3FEC0054FF080
:10322000020530D401F09DFE000736D401F099FE6E
:10323000400547D401F095FE000654D507208021B3
:1032400043E001F086FF072180F8291007EB4610C4
:103250000421C0F8081501F0EEFE56E10720042114
:10326000022532E007EB46102021C0F8081501F0D6
:1032700070FF4179012940F0488140F20231018517
:1032800000214171E7E708204FF480711DE00AF446
:10329000FF504FF400713844DBE70620082114E0AA
:1032A000019816FB0905314600206862206803F08A
:1032B0003DFB400607EB461000F1BB8000F5A06027
:1032C0000121BDE009204FF480612C22019B16FBF7
:1032D000023282F8290007EB4610C0F80815314683
:1032E000206803F036F901F03CFE8005206828D400
:1032F000314603F01BFBC0072ED101F032FE8006E1
:1033000054D401F02EFE800771D401F02AFE40064D
:1033100000F19C8001F025FEC0064FF02C0040F12A
:10332000F480019916FB0010C179002900F0AE80ED
:10333000022900F0AB80032940F0C08000214162E7
:10334000A8E0314603F005F90AF4FF504FF400718C
:103350003844C0F80815D8E007EB461020212C2788
:1033600000F5A069C0F80815E068019B40B116FBA4
:1033700007300169D9F810206FF3DF42891A8161A3
:1033800016FB07370122C9F8082000207862F87977
:1033900087F82920032819D8DFE800F0020C020C76
:1033A00001F049FE1020C9F808000FE00AF4FF50B0
:1033B0002021CDE787F828203146D9F8000040F0D9
:1033C0000050C9F800002046FFF789FCE06801289A
:1033D00008D13889B96901440139B1FBF0F0C0075F
:1033E00000F09380387F80F0010038778DE007EBA4
:1033F00046112C2001F0D7FE00F2818001F5A0617A
:10340000DFE802F07083056005733C773C0080F8CC
:10341000295074E001F09DFE0021416201214171BB
:10342000052180F8291001F006FE07EB4610402127
:103430008FE7012169714022C0F8082500F5A060DE
:1034400085F82910816006E70000F81F2C200199FB
:10345000402216FB0010052180F8291007EB4611C9
:10346000C1F8082500214162F5E601F072FE06214F
:1034700080F8291007EB46100821EAE601F00BFF5F
:1034800029D3042180F82810002137E0002141626F
:10349000E16899B9042180F829100DE00198042110
:1034A00016FB090080F8291000214162417919B901
:1034B000017909B980F8058001F0BDFD07EB4610E0
:1034C000102146E740F202220285C27942F0020250
:1034D000022A02D013E080F828500A6865F39F7230
:1034E0000A600CE040F2012101E040F20521018573
:1034F00005E04FF401710185416A0131416290F8A4
:10350000282020463146FFF7EAFB0AF1200A0BF19A
:10351000010B1BE6E068019900284FF02C0016FB18
:1035200000101BD0416A0131416203291CD30421E0
:1035300080F8281004220021416220463146FFF71E
:10354000CEFB13E001F005FE092180F8291001F0FF
:1035500072FD07EB46104FF48061FAE6072180F810
:10356000291001F068FD01E080F8285007EB4610B3
:103570008021EEE601F08FFE05D30422002180F8C1
:1035800028204162BDE701F5A061022280F82820D1
:10359000086862F39F700860B3E740F2012101857B
:1035A000C17901F0FE01022916D1E168012906D096
:1035B00071B111E040F2052101850522A1E74169C1
:1035C00051B1028911440139B1FBF2F1C90703D0AD
:1035D000417F81F001014177012292E720684FF09D
:1035E0000071416105B0BDE8F08F00285ED02DE983
:1035F000F04F8BB00446056890F8F90228B9002016
:1036000084F8F802204600F053F8032084F8F90209
:10361000E86BC00501D40020E060206802F004FFE0
:1036200004F1040B04F1140E04F1240A20680A903A
:10363000D4E90C509BE80E089EE8C0509AE80007B9
:10364000CDE90850CDE900B602A880E8805005A871
:1036500080E800070A9802F081FE2068012103F04B
:10366000A9F904F1080704F1180E04F1240BD4E9B8
:1036700000800A90D4E90C10CCCF9EE820509BE843
:10368000000ECDE90810CDE9006702A880E82050BF
:1036900005A80A9980E8000E404603F0C9F8012009
:1036A00084F8F90200200BB0BDE8F08F01207047CC
:1036B00070B5B8B0044633A81421FDF786FA02A805
:1036C000B8210830FDF781FA20682449884242D1A8
:1036D0004FF4802002900225002403941294109548
:1036E0004FF4001024900520CDE90E50F0200D90ED
:1036F00019200C9002A800F033FA18B11848542190
:10370000FEF723FF00F090F9164EB06840F002007B
:10371000B060B06800F002000190CDE934540C2094
:10372000CDE936404FF440403390019833A90E481C
:10373000FFF762F930680721002240F00070306026
:10374000306800F00070019001984D2000F016F9EB
:103750004D2000F003F938B070BD00BF00000440F8
:10376000F2E20008D844025800040258704770473B
:10377000006803F002B90000D0F80003416F4A6C02
:10378000530748BF704742F004024A64416E01315A
:1037900041660348006800F5DE7009F09DB900BF7E
:1037A000D447002410B501F030FD04BF022010BD45
:1037B000012084F8F8020121206802F04BFE206805
:1037C00002F069FE01F054BD80B5032000F0FCF862
:1037D00000F0F0FE0E499D4B0A68C2F303229A5C8A
:1037E000096801F00F0102F01F02595CD040094A3C
:1037F00001F01F011060C840074908600F2000F069
:103800000DF808B1012080BD00F0A6F8002080BDB1
:1038100018440258180000241C000024002070479F
:10382000704770B504460068866B456B710711D50B
:1038300069070FD5416B21F0040141630421C16385
:10384000D4F8A40040F00100C4F8A40001F053FC37
:10385000FFF7E6FFB00717D5A80715D52068416B1D
:1038600021F0020141630221C163D4F8A40040F0B9
:103870000200C4F8A400002084F8A000042084F80A
:10388000A1002046FFF7CCFFF0070CD0E8070AD0D4
:103890002068416B21F0010141630121C16301F006
:1038A0002AFC00F017F8300701D5280700D470BDB6
:1038B0002068416B21F0080141630821C1630020A9
:1038C00084F8A000012084F8A1002046BDE87040E3
:1038D00000F001B8704770470278114943780B60D7
:1038E000D2B143684B60037B42EA0372C37A42EA77
:1038F0000362837A42EAC342437B42EA8342837B88
:1039000042EA4342C37B42EA0342437A007A42EAF4
:10391000032242EA400001E00020486088607047CE
:1039200098ED00E00B48BFF35F8F016821F4803110
:103930000160002101677047064940F001000867F7
:10394000086840F480300860BFF34F8FBFF36F8F7B
:10395000704700BF24ED00E070470000002809D444
:1039600000F01F010122C0F34A1002FA01F1024ADD
:1039700042F82010704700BF00E100E0F0B5184B9E
:103980004FF0FF361C68C4F30224E51E84F00704E0
:1039900038BF002506FA05F7BA43042C28BF0424D3
:1039A00006FA04F4A14300F00F04A940043C1143BB
:1039B000044A234409010244002848BF03F10C02D1
:1039C0001170F0BD00E400E005494FF6FF030A68FE
:1039D0001A4060F30A22034810430860704700BF92
:1039E0000CED00E00000FA05B0B5124D2A68296818
:1039F000520705D401F00701081A18BF0120B0BD15
:103A000021F00701084301F01AFB044655F8080CA1
:103A1000800406D4FFF7D2F801F0A7FAF6D9012006
:103A2000B0BD0020B0BD00BF0248016841F0807108
:103A3000016070470C48025880B500F085FD0249CE
:103A4000024A01F04CBB00BF2044025880E100084C
:103A5000B0B51B498B6A8A6ACC6ACD6BC2F305325A
:103A6000AAB1E40601F014FB15D0BBB90B689B06A4
:103A700051BF9FED161A0B68C3F3C103144C42BF2C
:103A800024FA03F301EE103AB8EE411A08E00021DF
:103A9000C0E9001112E09FED0C1A01E09FED091A38
:103AA0008B6B9FED0C3A01F01AFC8A6B01F064FA03
:103AB0008A6B01F0E1FB896B01F0B3FB8160B0BD63
:103AC000004402580024744A20BCBE4B0024744CAD
:103AD0000090D00300000039B0B51B498B6A8A6A98
:103AE000CC6A4D6CC2F30552AAB1E40501F0D0FADC
:103AF00015D0BBB90B689B0651BF9FED161A0B681A
:103B0000C3F3C103144C42BF24FA03F301EE103A8D
:103B1000B8EE411A08E00021C0E9001112E09FED63
:103B20000C1A01E09FED091A0B6C9FED0C3A01F0A5
:103B3000D6FB0A6C01F020FA0A6C01F09DFB096CBF
:103B400001F06FFB8160B0BD004402580024744A4C
:103B500020BCBE4B0024744C0090D0030000003900
:103B60002DE9F0470446C078A64F00071AD5A06E8D
:103B70004FEA305103292CD8DFE801F002070A0F81
:103B8000F96941F40031F96107E001F07CFA01E0E4
:103B900001F017FB064630B9A06E396C21F44011D4
:103BA0000843386400266078BA46C00701D135461C
:103BB00020E0A06D042800F265803546DFE800F0C3
:103BC000030E0B111100F869354640F40030F8611E
:103BD00007E00126E7E701F04BFA01E001F036FAD1
:103BE00005462F463DB9A06D01F06EFA21F00701A0
:103BF00001F0CDFA3746607880071BD5E06D4FEABB
:103C0000B010042841D8DFE800F00309060C0C00CE
:103C100001F0A9FA05E001F02BFA01E001F016FA33
:103C200005462E463DB9E06D01F04EFA21F4E071F3
:103C300001F0ADFA3E466078400702D4B0465746E0
:103C400029E0D4F8A80057464FEA705004281FD83E
:103C5000DFE800F00309060C0C0001F058FA05E05B
:103C600001F006FA01E001F0F1F90546A84695B920
:103C7000D4F8A800B96C0025B04621F460010843CF
:103C8000B86408E001250127B5E701250126D2E740
:103C900001254FF00108607800071ED5D4F8AC006C
:103CA0004FEA3060042800F26C80DFE800F003097E
:103CB000060C0C0001F02BFA05E001F0D9F901E047
:103CC00001F0C4F905462F4645B9D4F8AC0001F01F
:103CD000ECF921F0E06101F00AFA4746E07880074C
:103CE0001AD5E06C4FEA3010032826D8DFE800F040
:103CF0000802050801F037FA02E001F0C4F90546B0
:103D00002E4655B9E06CDAF83C100025524621F0F9
:103D100030010843CAF83C003E466078C0061ED514
:103D2000206E4FEA303004282ED8DFE800F0030C74
:103D3000090F0F0001F017FA08E001250126ECE752
:103D400001F096F901E001F081F905462F463DB9F1
:103D5000206E01F0B9F921F4E04101F018FA37467C
:103D6000607880061FD5606E4FEA3040052800F26B
:103D7000B182DFE800F00F030C0F0F0F01F0C1FA62
:103D800007E001250127A9E701250127E8E701F060
:103D9000B3FA05462E463DB9606E01F095F921F45F
:103DA000E02101F0F4F93E46607840061BD5D4F8D6
:103DB000B0004FEA3070052800F28F82DFE800F093
:103DC00009030609090901F09CFA01E001F094FADF
:103DD00005462F4645B9D4F8B00001F066F921F048
:103DE000E04101F084F937466078000618D5206F6D
:103DF00068B1B0F1005F07D0B0F1805F22D101F06F
:103E0000B2F904E01044025801F07BFA05462E4650
:103E10003DB9206F01F058F921F0405101F0B7F998
:103E20003E46E078C00702D1B04657461EE0A06C7F
:103E30005746032817D8DFE800F00B02080B01F003
:103E400066F905E001250126EBE701F01CF90546BE
:103E5000A8465DB9A06CF96B0025B04621F00301BE
:103E60000843F86302E001254FF00108A0784006FE
:103E700001D4474616E0D7F8F00340F48070C7F845
:103E8000F003FEF79BFE0646D7F8F003C00507D403
:103E9000FEF794FE801B6428F6D90325032701E072
:103EA0002F4685B12078C00744D0E06F4FEAF0007C
:103EB000052800F21582DFE800F034033134343491
:103EC00001F01FFA2CE0DAF86010D4F8B40055467F
:103ED000414011F4407F0BD0296E2A6E42F48032AB
:103EE0002A6621F440712A6E22F480322A662966FD
:103EF000B0F5807F40F00982FEF760FE064641F291
:103F000088390327DAF86000800700F1FB81FEF7AB
:103F100055FE801B03254845F4D9C3E701F0ECF9B1
:103F200005462E463DB9E06F01F0ECF821F038016E
:103F300001F0F2F83E462078800717D5A06F0528DB
:103F400000F2D181DFE800F009030609090901F058
:103F5000D8F901E001F0D0F905462F463DB9A06F30
:103F600001F0D0F821F0070101F0D6F837462078AB
:103F7000400719D5D4F89400052800F2B781DFE88E
:103F800000F009030609090901F0BBF901E001F09D
:103F9000B3F905462E4645B9D4F8940001F085F8EA
:103FA00021F0070101F0A3F83E46207880061BD5DA
:103FB000D4F890004FEA3070052800F29A81DFE8CB
:103FC00000F009030609090901F040F801E001F0D9
:103FD000F8F805462F4645B9D4F8900001F092F85C
:103FE00021F0E04101F098F83746207840061BD5D3
:103FF000D4F89C004FEAB020052800F27D81DFE86C
:1040000000F009030609090901F020F801E001F0B8
:10401000D8F805462E4645B9D4F89C0001F045F87D
:1040200021F4E05101F063F83E46207800061BD5EC
:10403000D4F8A0004FEA7030052800F26081DFE874
:1040400000F009030609090901F000F801E001F098
:10405000B8F805462F4645B9D4F8A00001F025F878
:1040600021F4604101F043F837462068010713D579
:10407000D4F88400B0F5805F06D101F0A2F80028E2
:1040800018BF0127D4F88400DAF84410524621F40E
:10409000405101F041F82068C10613D5D4F89800CA
:1040A000B0F5807F06D101F08CF8002818BF0127F9
:1040B000D4F89800DAF84810524621F4407101F023
:1040C00016F8206800031AD5D4F8A400B0F5003F14
:1040D0000BD0B0F5803F05D0002840F0F38000F011
:1040E000B5FF01E001F06DF805462E4645B9D4F85C
:1040F000A40000F0DAFF21F4403100F0F8FF3E4662
:10410000A07840071BD5D4F88800B0F5401F0CD02C
:10411000B0F5001F06D0B0F5801F40F0D68001F04A
:1041200022F802E001F0E8F805462F4645B9D4F838
:10413000880000F0E7FF21F4401100F0EDFF374662
:10414000A078C00701D13E4619E0206DB0F5803F50
:1041500003D090B901F007F802E000F094FF0546A3
:104160002E4665B9206DDAF83C100025524621F440
:1041700080310843CAF83C00E5E7012501262168A3
:10418000880001D4606806E001F01BF8002818BF21
:104190000126D4E900108A031BD5D4F880206FF0E3
:1041A000010303EB3223022B0BD34FEA322343B13B
:1041B000012B40F08D80DAF81C3043F40033CAF84C
:1041C0001C303DB9DAF8443023F440731A43CAF87E
:1041D00044203546CA0207D5626FDAF8403023F032
:1041E00000431A43CAF84020CA0008D5D4F8B820C2
:1041F000DAF8003023F480431A43CAF800208A0218
:1042000007D5E26EDAF8403023F080731A43CAF81B
:1042100040204A000CD5DAF8002022F40042CAF807
:104220000020D4F8BC20DAF800301A43CAF8002085
:10423000CA0F07D0626DDAF83C3023F040531A43BE
:10424000CAF83C20090208D5D4F88C10DAF84420CA
:1042500022F440021143CAF84410C10705D000F00F
:10426000F5FE002818BF05466068810705D501F0F6
:1042700048F8002818BF05466068410705D500F0DA
:1042800002FF002818BF05466068010705D500F049
:10429000EFFE002818BF05466068C10605D501F08D
:1042A0002BF8002818BF05466068800604D500F08A
:1042B00088FF002818BF0125002D18BF01252846BA
:1042C000BDE8F087012501261AE70125012737E718
:1042D00001257FE70125012666E50125012783E504
:1042E0000125012627E60125012740E601250126B3
:1042F0005BE60125012778E60125012695E60125E3
:104300000127B2E65546D4F8B4002A68094900F4FA
:10431000407322F47C5201EA1011B3F5407F6FF331
:104320001F3008BF0A432A60296E0843286600250B
:104330009FE500BFCFFFFF002DE9F843002800F004
:10434000F9807E4D04468846286800F00F008842B8
:104350000BD2286820F00F0040EA08002860286887
:1043600000F00F00404540F0E5802068744F4107A1
:1043700009D52169BA6800F020FF04D9BA6822F093
:1043800070021143B960010709D56169FA6800F04C
:1043900014FF04D9FA6822F070021143F960C106D3
:1043A0000AD5A169FA6802F4E062914204D9FA6878
:1043B00022F4E0621143F960810609D5E1693A69A6
:1043C00000F0FBFE04D93A6922F070021143396112
:1043D00010F002010AD0E268BB6803F00F039A42B2
:1043E00004D9BB6823F00F031A43BA60C20738D060
:1043F000D4E90101BA6822F470621143B96057F838
:10440000101C012809D0032804D0022808D18903F0
:1044100009D48FE0890106D48CE0C90503D489E072
:10442000490740F187803968A94621F00701084310
:104430003860FEF7C3FB064641F28835606839688C
:1044400001F03801B1EBC00F07D0FEF7B7FB801BBE
:10445000A842F3D90320BDE8F88320684D4600F058
:10446000020151B1E168BA6802F00F02914204D230
:10447000BA6822F00F021143B960296801F00F01F8
:1044800041450AD9296821F00F0141EA0801296054
:10449000296801F00F0141454CD1410709D5216937
:1044A000BA6800F08AFE04D2BA6822F070021143A2
:1044B000B960010709D56169FA6800F07EFE04D28F
:1044C000FA6822F070021143F960C1060AD5A169A9
:1044D000FA6802F4E062914204D2FA6822F4E062DF
:1044E0001143F96080060AD5E069396901F070016D
:1044F000884204D2396921F070010843386100F024
:1045000059F8B9682A4A1D4BC1F30321515C01F0E7
:104510001F01C840B968186001F00F01515C01F03B
:104520001F01C8401649086006480068BDE8F84306
:10453000FFF774B90120BDE8F88300BF00200052E6
:10454000104402581400002480B500F033F80A49E2
:10455000174B0A68C2F303229A5C096801F00F0145
:1045600002F01F02595CD040044A01F01F011060A4
:10457000C8400349086080BD184402581800002450
:104580001C00002480B5FFF7DFFF0849084A0968CE
:10459000C1F3021100F0E2BD80B5FFF7D5FF03497A
:1045A000034A0968C1F3022100F0D8BD1C44025837
:1045B00080E1000810B535490869C0F3C20003283E
:1045C0000FD0022804BF334810BD40B908688006E8
:1045D00034485AD50968C1F3C101C84010BD2C4800
:1045E00010BD8A6A886ACC6A4B6BC0F3051000B3B1
:1045F00004F0010402F00302644204EAD303022A35
:104600006FF35F3300EE103AB8EE400A13D0AAB948
:104610000A68920651BF9FED221A0A68C2F3C102CE
:10462000204B42BF23FA02F201EE102AB8EE411AE3
:1046300006E0002010BD9FED191A01E09FED161A4B
:104640000A6B9FED193A6FF35F2202EE102AB8EE63
:10465000422A00EE032AB7EE000A32EE000A02EE0A
:10466000100A086BC0F34620B8EE422A013081EEF2
:10467000021A21EE000A01EE100AB8EE411A80EE8D
:10468000010ABCEEC00A10EE100A10BD0044025828
:1046900000093D0040787D010024744A20BCBE4BD7
:1046A0000024744C0090D0030000003928B3F8B502
:1046B00004460078D44EC00721D12078800740F10D
:1046C000A480306910F03801B06A3CD0182901D1BB
:1046D000800738D03068E16800295CD020F01900EC
:1046E000084300F046FC05463068400742D4FEF718
:1046F00065FA401B0228F7D959E10120704730695B
:1047000000F03801B06A102905D018290AD100F04C
:104710000300022806D130688003CED560680028E7
:10472000CBD11EE162683068002A20F4803153D07A
:10473000B2F5A02F3DD0B2F5803F3ED03160306859
:1047400020F480203BE0E0683168490702D500286A
:1047500000F00781316821F01901084300F009FCDD
:1047600005463068400705D4FEF728FA00F06AFCD9
:10477000F7D9F8BDFEF71CFA41F2030188423DD893
:104780002069716821F47C31402814BF41EA00306F
:1047900041F4003038E020F0010000F0EAFB05466B
:1047A0003068400731D5FEF709FA00F04BFCF7D925
:1047B000DFE740F480203060306840F4803000F063
:1047C000D8FB0546306880033FF577AFFEF7F6F972
:1047D000401B6428F6D9EAE03160306820F480207C
:1047E00000F0C7FB0546306880037FF566AFFEF733
:1047F000E5F9411B03206429F5D9BAE720697168FE
:1048000021F0FE4141EA006070602078C0063ED58C
:10481000306900F03801B06A082905D018291CD188
:1048200000F00300012818D13068C00503D5E06905
:10483000802840F09680FEF7BBF941F203018842E0
:104840001ED8206A716821F0F841202814BF41EA7F
:10485000806041F08040706019E03068E1690029B3
:1048600000F0D48040F0800000F083FB0546306803
:10487000C005E0D4FEF7A2F900F0E4FBF7D978E731
:10488000206AF16821F07C5141EA0060F0602078F4
:10489000000754D42078800665D42078400774D46B
:1048A000676A002F49D0306900F03800182840F0BE
:1048B000BC80B16A306B012F53D0A26A01F00303B0
:1048C00093424ED1E26AC1F30511914249D10146AA
:1048D000226B6FF35F21013A914242D1626BC0F3C8
:1048E0004621013A91423CD1A26BC0F30641013A04
:1048F000914236D1E16BC0F306600139884230D174
:10490000A06C716BC1F3CC01884216D0F06A20F024
:104910000100F062FEF752F90546FEF74FF9A84292
:10492000FBD0706B4FF6F8718843A16C40EAC10070
:104930007063F06A40F00100F0620020F8BD706F13
:104940006169B1B340F001007067FEF737F90546C1
:10495000706F80079ED4FEF731F9401B0228F7D90B
:1049600025E00120F8BD3068A169E9B340F480502A
:1049700000F0FFFA0546306880043FF58EAFFEF781
:104980001DF9401B0228F6D911E0D6F8000440F4C6
:104990008070C6F80004FEF711F90546D6F8000449
:1049A000C00516D4FEF70AF9401B6428F6D9032087
:1049B000F8BD20F001007067FEF700F90546706F42
:1049C00080077FF567AFFEF7F9F800F03BFBF6D9FB
:1049D000CFE6A168306F002959D0052940D00129C0
:1049E00042D000F017FC41E020F4805000F0C1FA02
:1049F0000546306880047FF550AFFEF7DFF800F021
:104A000021FBF6D9B5E600BF0044025820F0800033
:104A100000F0AFFA05463068C0057FF538AFFEF705
:104A2000CDF800F00FFBF6D9A3E6306820F08070D7
:104A300000F09FFA0546022F08D13068800139D571
:104A4000FEF7BCF800F0FEFAF7D992E63068800174
:104A50007FF573AFFEF7B2F800F0F4FAF6D988E606
:104A600040F004003067306F40F001003067FEF71F
:104A7000A5F8054641F28837306F80073FF510AF43
:104A8000FEF79CF8411B0320B942F5D971E600F00E
:104A9000C1FB3067FEF792F8054641F28837306F68
:104AA00080077FF5FDAEFEF789F8411B0320B94270
:104AB000F5D95EE604F12805B06A40F2F331884387
:104AC0002ECD0843591E40EA0210B0626FF35F21F9
:104AD0004FF4FE024FF47E4000EB452080B20844C4
:104AE000A16B02EB01414FF0FE4201F4FE010844CC
:104AF000E16B02EB016101F0FE41084430634FF6C7
:104B0000F871F06A20F00100F062706B8843A16CCC
:104B100040EAC1007063206CF16A21F00C01084387
:104B2000F062F06A616C20F002000843F062F06A03
:104B300040F48030F062F06A40F40030F062F06AD5
:104B400040F48020F062F06A40F00100F0623068CA
:104B500040F0807000F00DFA0446306880013FF5A7
:104B6000ECAEFEF72BF8011B03200229F5D900E675
:104B7000034800F0E9BA00BF014800F074BB00BF71
:104B800010E000E010B540B10446D0F8880008B944
:104B900000F073FA00F01AFB08B1012010BDA06A02
:104BA00008B100F05DFB00F054FB21F02A018160A8
:104BB00000F08FFABDE8104001F058B970470000CE
:104BC000244A9168B1F1FF3F3BDDB0B5224913683B
:104BD00023A44B62137981F828305379CB6253694F
:104BE0000B63D3888B8693688B63D368CB6392699E
:104BF0000A641A4B0022292A06D0A55CDD601D68D4
:104C00006D06FCD50132F6E700220A60BDE8B0402F
:104C10000A68002AFCD002684A6042688A6082689A
:104C2000CA60C2680A6102694A6142698A6182692E
:104C3000CA61C06908620020086008680028FCD0CA
:104C40007047916841F00041916081690231816152
:104C5000704700BF24ED00E0A00500241C100140B7
:104C60000D0A456E74657220486172644661756C08
:104C7000745F48616E646C65722C2053797374653F
:104C80006D2048616C742E0D0A000000F8B50446D2
:104C9000012817D8FF2500260027F0B2012807D8E1
:104CA00000F020F8002818BF354607440136F4E725
:104CB00085EA040087F001010843C0B2B0FA80F031
:104CC0004009F8BD022C09D105480168C90705D083
:104CD000D0F80008800444BF0120F8BD0020F8BDD2
:104CE00010000258054901EBC00251F830009288CB
:104CF0000069104018BF0120704700BFA8E10008FC
:104D00000148FEF78EBD00BF505B0024B0B588B0EF
:104D1000342000903EA1434A4FF4E0433B4803F067
:104D20007FFC08B100202DE0384807A94FF4C042AD
:104D3000002303F041FC08B1022023E007984FF460
:104D4000C0410022002307F0C1FCD0B9364807F06B
:104D50006FF8B0B9354807F041FD3548354906F0E0
:104D600081FC70B93448354904F0EAFB48B934484D
:104D7000344904F0E5FB20B93348344906F072FCAD
:104D800010B1FF2008B0B0BD204807A94FF48062E1
:104D900000234FF48065002403F00EFC0028CBD1E3
:104DA0000798B42101220A23CDE90005CDE9023399
:104DB000CDE904420691264826A12D4A002303F09E
:104DC000C7FD08B10E20DDE7104807A900F014F96F
:104DD0000028B1D100F094F8264827A12C4A0023DE
:104DE00003F0B6FD0028EDD1084807A900F004F94A
:104DF0000028A1D100F084F8264827A12C4A0023DE
:104E000003F0A6FD0028DDD18CE700BF645D00241F
:104E1000557820417070206D656D6F727920706FCC
:104E20006F6C00000050032479D5000821D50008DC
:104E300088000024159800086900002475A3000864
:104E4000470000247D9F00089A00002435AE00082A
:104E5000985D0024555342582041707020486F736C
:104E600074204D61696E20546872656164000000B1
:104E7000A9CB0008AC5C0024484944206D6F7573D1
:104E800065204170702074687265616400000000E4
:104E900095D10008F85B0024484944204B657962AD
:104EA0006F61726420417070207468726561640083
:104EB0005DD1000810B511480B4B012110220224CE
:104EC000036000234363C0E906430362C0E9022391
:104ED0000161FEF78AFB28B104483321BDE8104088
:104EE000FDF733BB10BD00BF00000440F2E2000834
:104EF000FEE770470148FEF715B800BF4C58002484
:104F00000798B42101221E23CDE90004CDE9023324
:104F1000CDE90422069170470091D4F8181441F4A9
:104F20004041C4F81814D4F8181401F44041009119
:104F30007047C0B208F07CB8608AD4E90012105CF7
:104F40008862608A01306082A18980B2884270479D
:104F500014460E46054608F03FBA4FF40010206094
:104F600028472068314601F0E1BC001BB0F57A7F8C
:104F700070473060FDF722BEC2F34622B8EE433AD6
:104F800032EE002A81EE031A21EE021A02EE102AF6
:104F9000B8EE422A32EE002A81EE022ABCEEC22A84
:104FA00080ED002A70472369D3F80130B3F1EF3F59
:104FB00070470A20FBF7C6BD20460E22434607F085
:104FC000F0BB022007214222422507F071BB1046A8
:104FD00004F0E0BD104604F0DDBDBDF80620284613
:104FE0002146704795F82910B06CFDF731BE204678
:104FF0004FF47A7107F04EBD4FF4806200234FF4F6
:10500000806403F0D9BABFF34F8FBFF36F8F70473F
:10501000386840F002003860386800F00200019003
:1050200001987047804638464A460095FDF761BAB8
:105030001020206028472068314601F08ABA286095
:10504000FDF7BCBD411B03200229704704F1080095
:10505000002100F065B920F000405050505840F059
:10506000004050507047A268D4F8A8108A42704798
:1050700004F12800002100F0B3B9002084F8840076
:105080002046FFF79BBD04F10800022100F048B95B
:10509000ED0803F0030305EAE474022B6FF35F34B9
:1050A00000EE104AB8EE400A7047DAF848100025C2
:1050B00052467047016851E8001F026821F4907160
:1050C00042E80013002B7047DAF8401000255246E2
:1050D0007047016841F0010101602046704709688E
:1050E000C1F30211515C01F01F01C84080BD0843AB
:1050F000CAF848007047002084F8A00084F8A11086
:1051000020467047DAF84410002552467047F86987
:1051100040F40030F86170470843CAF84400704713
:105120000A20FBF70FBD8DF82F60CDF83080ADF869
:105130002D507047386840F001003860386800F042
:105140000100329032987047016841F0020101601D
:1051500070472C20019916FB00107047515C01F03C
:105160001F01C84080BDDAF81C00514640F40030F1
:10517000CAF81C0070470098013000900098B0F504
:105180007A7F704751F8041CB1F1EF3F7047084334
:10519000CAF8400070473860FDF710BDC4F8DC0065
:1051A000D4F8DC007047C1F80855019A16FB0020BE
:1051B00090F82920013A082A704702F070029142C3
:1051C000704704F12800022100F00AB92420C4F835
:1051D00088002068016821F001010160204600F08C
:1051E000B3BEE2681368B3F1EF3F704700222B466D
:1051F000204600F0FDBF1968C1F3C101C8407047E7
:10520000016841F0010101607047044690F8F8021E
:105210000128704720F001003067306F20F0040053
:105220007047C1F3066102EE101AB8EE422A32EE60
:10523000000A81EE000ABCEEC00A10EE101A704798
:1052400041E80002002A7047206850E8000F2168FA
:1052500070472068416821F490414160816870473F
:10526000204600F0AFBD016821F0020101607047E7
:10527000002084F8F80210BDC2F3064202EE102AA4
:10528000B8EE422A32EE002A81EE022ABCEEC22A91
:1052900080ED012A7047426A80F82950013242624B
:1052A000032A7047B8626FF35F214FF47E4000EB32
:1052B00042204FF0FE4280B208444FF4FE0101EB61
:1052C000034101F4FE010844296902EB016101F088
:1052D000FE410844704741E80202002A70476FF31C
:1052E0005F2302EE103AB8EE422A00EE032A03EEE4
:1052F000102AB7EE000A704704F12800012100F0DF
:105300006FB804F10800012100F00AB8016851E803
:10531000001F026821F0100142E80013002B7047C3
:10532000F8B55F4F0546B86A00F00300032804BFD4
:105330000120F8BD38680C4620F08060FFF72BFF95
:1053400006463868000105D5FDF738FC801B0228A9
:10535000F7D941E095E80F00BE6A26F47C360139A2
:1053600046EA0030FFF79EFFB8636869F96A21F0EA
:10537000C0010843F862A869F96A21F020010843D6
:10538000F8624FF6F871F86A20F01000F862F86BD6
:105390008843E969012C40EAC100F863F86A40F0EB
:1053A0001000F8624FF4001008BF4FF48010002C7A
:1053B00008BF4FF40020F96A0843F862386840F0EB
:1053C0008060FFF7E8FE04463868000106D4FDF768
:1053D000F5FB001B0328F7D30320F8BD0020F8BD20
:1053E000F8B5CF4F0546B86A00F00300032804BFA4
:1053F0000120F8BD38680C4620F08050FFF7CBFE46
:1054000006463868800005D5FDF7D8FB801B0228CA
:10541000F7D941E095E80F00BE6A26F07C760139A5
:1054200046EA0050FFF73EFF38646869F96A21F4E4
:1054300040610843F862A869F96A21F400710843E1
:10544000F8624FF6F871F86A20F48070F862786CB0
:105450008843E969012C40EAC1007864F86A40F4A5
:105460008070F8624FF0807008BF4FF40000002C8D
:1054700008BF4FF48000F96A0843F862386840F0CA
:105480008050FFF788FE04463868800006D4FDF798
:1054900095FB001B0328F7D30320F8BD0020F8BDBF
:1054A00000440258FEB50C48016841F00201016059
:1054B000006800F002000090032004900020039098
:1054C0000120029004200190009801A90348FDF7F3
:1054D00093FA06B080BD00BFE044025800040258B1
:1054E00070470000044804210160704702484FF4EF
:1054F00080210160704700BF180402580B20FF2173
:1055000000F07CB870B5FFF723FD822007F03CFF68
:1055100007F080FF68B9304607F036FF07F07AFFE2
:1055200038B907F059FF832007F02EFF07F072FF0C
:1055300080B1002407F060FF204670BD07F006FF31
:10554000012C287002D107F0F1FE01E007F0D8FE2F
:105550000135013C002CF1D10124EBE7E0B5014617
:105560000DF107000122FFF7CDFF9DF807008CBD6C
:10557000E0B54020FFF7F2FF40B2B0F1FF3F02DD9F
:105580000020002112E00DF10500D7210322FFF7D2
:10559000B9FF9DF806209DF805009DF8071002F060
:1055A0000F03000140EA121041EA0321034A11806F
:1055B0008CBD00BF01480088704700BF605D0024BB
:1055C00070B5FFF7C5FC822007F0DEFE07F022FF72
:1055D00020B1002407F010FF204670BD304607F0D0
:1055E000D3FE07F017FF0028F3D12CB115F8010BFB
:1055F00007F0CAFE013CF4E70124EBE7E0B5024600
:105600008DF807100DF1070011460122FFF7D8FFB2
:105610008CBD704710B51A4CA06828B1A06801383D
:10562000A06001D10120A0700020012130280ED0FF
:10563000221813694BB11369013B136105D15173F2
:10564000137B012B01D1536913610C30EEE76068C5
:105650006FF00041013060606068884201D1002035
:10566000606007F0F5FC607801306070C0B20A2815
:1056700038BF10BD00206070BDE8104007F0E6BCE8
:10568000100400242448254BD0F8801041F4700108
:10569000C0F88010196801F00F01062904D81968B4
:1056A000072262F303011960B0B5BA491D4D0A68BB
:1056B00042F001020A6000220A610C682C400C6072
:1056C0001C68240704D51C68072565F303041C60C7
:1056D000154B8A61CA610A628B62144BCB62144B10
:1056E0000B634A638B63CA630B644A640B6823F4DD
:1056F00080230B600A660F490968B2EB517F02D123
:105700000D4901220A600D4943F2D2020A604FF0AE
:1057100000610160B0BD00BF08ED00E00020005254
:10572000004402587FEDF6EA000202020000FF0189
:10573000800201010010005C08810051004000520D
:105740002DE9F0419CB0FEF7EDF812208DF82C0009
:10575000032600258DF82F600C958A4F4FF01050CE
:105760000A900120ADF824004FF48070ADF82D00B0
:1057700009AC2046B8470F208DF82C004FF08078F8
:10578000FFF7D1FC4FF0C0400A9040F20110ADF895
:1057900024002046B84719208DF82C008DF82F6082
:1057A000ADF82D504FF050400A9040F20120ADF876
:1057B00024004FF480300C902046B8470E208DF81E
:1057C0002C00FFF7B0FC70480A9040F20130ADF8B1
:1057D00024002046B8470420FEF7AEF86B48016865
:1057E00089030BD4FFF70FFCC0F83C52FFF70BFC0A
:1057F000016841F400310160FFF705FC0168C9034D
:1058000025D40021016743F6E075BFF34F8FC46EC6
:10581000E308C4F34E32C4F3C9049B0751010134B9
:1058200001EA050627461E44C0F84C6206F14046D0
:10583000013FF9D12039561E002A3246F0D1BFF37C
:105840004F8F016841F480310160FFF7DCFBFDF709
:10585000BBFF09A84C21FBF7B8F901A82021FBF7F1
:10586000B4F90220FEF7C0F800200090494C4848E7
:10587000016821F001010160016801F00101FFF7F9
:105880004BFB0099D4F818148904FBD5D4F8F41014
:1058900041F00201C4F8F410D4F8F41001F0020150
:1058A000009100990021FFF737FB016841F00101E9
:1058B0000160006800F0010000900098D4F818041E
:1058C0008004FBD504201890A021002508261591FE
:1058D000CDE91A5519960220CDE91600CDE912003E
:1058E000052114914FF480300A900120099009A8F5
:1058F000FEF7DCFE00B1FEE740200890CDE9050090
:105900004FF480610791CDE90356032002900421F2
:105910003F20019001A8FEF70FFD00B1FEE72068CF
:1059200040F080002060D4F8F40040F00200C4F899
:10593000F400D4F8F40000F0020000900098FDF7A5
:1059400055F8D4F8DC0040F00050FFF727FC00F0D9
:10595000005000900098D4F8DC0040F08040FFF741
:105960001DFC00F0804000900098D4F8DC0040F06E
:105970000040FFF713FC00F00040009000981CB0BE
:10598000BDE8F081D93800080000043014ED00E0D3
:105990002C04005800440258B1480078012801D175
:1059A000FCF7D0BEB0484078012801D1FCF7F8BD23
:1059B000AC480078012818BF7047FCF7A3BF00BFB0
:1059C000B0B50021002209290BD000EB410430F8CA
:1059D00011306588AB4202D90122258063800131F4
:1059E000F1E70021002A4FF00002ECD10630032934
:1059F00004D030F8113001311A44F8E70320B2FB2B
:105A0000F0F080B2B0BD0000C91A48BF4942801A08
:105A100048BF404202040020B2F5C81F06DA09045C
:105A2000B1F5C81F02DA0120002107E00549097815
:105A30000131CAB2022A84BF01200021014A11703B
:105A4000704700BF1042002489480121006800F01F
:105A5000080081EAD0007047032801D20020704777
:105A600002460020032900D27047804B1B88023B6E
:105A70008B424FF00001C8BF01219342C8BF0120F3
:105A800008407047F8B5794F14460E4697F86D20D8
:105A9000B9793A440129D0710AD13046214600F043
:105AA000E9F805463046214600F034F9044600E0A6
:105AB0003546C349C87A03282FD8DFE800F0021E14
:105AC0000B1426480178032937D82846DFE801F06F
:105AD000371E282E2148017803292ED82846DFE8D2
